:020000040800F2
:1000000000000220CD0E0008550E00085B0E00080F
:10001000610E0008670E00086D0E00080000000069
:10002000000000000000000000000000730E000847
:10003000810E0008000000008F0E00089D0E0008D1
:100040001D0F00081D0F00081D0F00081D0F0008E0
:100050001D0F00081D0F00081D0F00081D0F0008D0
:100060001D0F00081D0F00081D0F00081D0F0008C0
:100070001D0F00081D0F00081D0F00081D0F0008B0
:100080001D0F00081D0F00081D0F00081D0F0008A0
:100090001D0F00081D0F00081D0F00081D0F000890
:1000A0001D0F00081D0F00081D0F00081D0F000880
:1000B0001D0F00081D0F00081D0F00081D0F000870
:1000C0001D0F00081D0F00081D0F00081D0F000860
:1000D0001D0F00081D0F00081D0F00081D0F000850
:1000E0001D0F00081D0F00081D0F00081D0F000840
:1000F0001D0F00081D0F00081D0F00081D0F000830
:100100001D0F00081D0F00081D0F00081D0F00081F
:100110001D0F00081D0F00081D0F00081D0F00080F
:100120001D0F00081D0F00081D0F00081D0F0008FF
:100130001D0F00081D0F00081D0F00081D0F0008EF
:100140001D0F00081D0F00081D0F00081D0F0008DF
:100150001D0F00081D0F00081D0F00081D0F0008CF
:100160001D0F00081D0F00081D0F00081D0F0008BF
:100170001D0F00081D0F00081D0F000800000000E3
:080180001D0F00081D0F00080F
:1001880010B5054C237833B9044B13B10448AFF3C9
:1001980000800123237010BD0C0000200000000027
:1001A8008428000808B5034B1BB103490348AFF383
:1001B800008008BD0000000010000020842800080E
:1001C80053B94AB9002908BF00281CBF4FF0FF31B6
:1001D8004FF0FF3000F074B9ADF1080C6DE904CEB2
:1001E80000F006F8DDF804E0DDE9022304B070470A
:1001F8002DE9F047089D04468E46002B4DD18A42D2
:10020800944669D9B2FA82F252B101FA02F3C2F104
:10021800200120FA01F10CFA02FC41EA030E944095
:100228004FEA1C48210CBEFBF8F61FFA8CF708FBB6
:1002380016E341EA034306FB07F199420AD91CEB8E
:10024800030306F1FF3080F01F81994240F21C81C0
:10025800023E63445B1AA4B2B3FBF8F008FB103308
:1002680044EA034400FB07F7A7420AD91CEB04043D
:1002780000F1FF3380F00A81A74240F2078164440D
:10028800023840EA0640E41B00261DB1D440002392
:10029800C5E900433146BDE8F0878B4209D9002DF6
:1002A80000F0EF800026C5E9000130463146BDE880
:1002B800F087B3FA83F6002E4AD18B4202D38242EA
:1002C80000F2F980841A61EB030301209E46002D99
:1002D800E0D0C5E9004EDDE702B9FFDEB2FA82F2EE
:1002E800002A40F09280A1EB0C014FEA1C471FFA4C
:1002F8008CFE0126200CB1FBF7F307FB131140EA33
:1003080001410EFB03F0884208D91CEB010103F1FF
:10031800FF3802D2884200F2CB804346091AA4B2C1
:10032800B1FBF7F007FB101144EA01440EFB00FE95
:10033800A64508D91CEB040400F1FF3102D2A645FA
:1003480000F2BB800846A4EB0E0440EA03409CE799
:10035800C6F12007B34022FA07FC4CEA030C20FA46
:1003680007F401FA06F31C43F9404FEA1C4900FA66
:1003780006F3B1FBF9F8200C1FFA8CFE09FB1811E3
:1003880040EA014108FB0EF0884202FA06F20BD956
:100398001CEB010108F1FF3A80F08880884240F2A6
:1003A8008580A8F102086144091AA4B2B1FBF9F0EA
:1003B80009FB101144EA014100FB0EFE8E4508D9E5
:1003C8001CEB010100F1FF346CD28E456AD902386A
:1003D800614440EA0840A0FB0294A1EB0E01A1424F
:1003E800C846A64656D353D05DB1B3EB080261EBBD
:1003F8000E0101FA07F722FA06F3F1401F43C5E997
:10040800007100263146BDE8F087C2F12003D840CC
:100418000CFA02FC21FA03F3914001434FEA1C470E
:100428001FFA8CFEB3FBF7F007FB10360B0C43EA00
:10043800064300FB0EF69E4204FA02F408D91CEBB0
:10044800030300F1FF382FD29E422DD902386344AE
:100458009B1B89B2B3FBF7F607FB163341EA03414E
:1004680006FB0EF38B4208D91CEB010106F1FF389D
:1004780016D28B4214D9023E6144C91A46EA004694
:1004880038E72E46284605E70646E3E61846F8E626
:100498004B45A9D2B9EB020864EB0C0E0138A3E76F
:1004A8004646EAE7204694E74046D1E7D0467BE750
:1004B800023B614432E7304609E76444023842E7C8
:1004C800704700BF80B500AF00F026FD00F018F8B7
:1004D80000F086FA00F07EF800F0D0F800F022F97B
:1004E80000F084F900F02CFA4FF48071034801F011
:1004F80044F84FF4FA6000F081FDF5E7001002407F
:1005080080B594B000AF07F12003302200211846CF
:1005180002F0ACF907F10C0300221A605A609A60E5
:10052800DA601A610023BB60284B1B6C274A43F032
:1005380080531364254B1B6C03F08053BB60BB686E
:1005480000237B60224B1B68214A23F480431360FD
:100558001F4B1B6803F480437B607B6801233B626D
:100568004FF480337B620223BB634FF48003FB6349
:1005780008233B644FF4A8737B640223BB64042301
:10058800FB6407F12003184601F012F80346002B1C
:1005980001D000F0B9FA0F23FB6002233B6100236E
:1005A8007B614FF4C053BB614FF48053FB6107F18B
:1005B8000C030221184601F073FA0346002B01D000
:1005C80000F0A2FA00BF5037BD4680BD0038024097
:1005D8000070004080B58CB000AF07F10C032422F6
:1005E8000021184602F042F93B1D00221A605A60A9
:1005F800214B4FF080421A601F4B00225A601E4B5D
:1006080000229A601C4B4FF6FF72DA601A4B0022E8
:100618001A61194B00229A610323FB6000233B6196
:1006280001237B610023BB610A23FB6100233B623A
:1006380001237B620023BB620A23FB6207F10C03E0
:1006480019460D4801F067FC0346002B01D000F065
:100658005BFA00237B600023BB603B1D19460648FC
:1006680002F012F80346002B01D000F04DFA00BF4B
:100678003037BD4680BD00BF2800002080B58CB053
:1006880000AF07F10C0324220021184602F0EEF80F
:100698003B1D00221A605A60204B214A1A601F4BEA
:1006A80000225A601D4B00229A601C4B4FF6FF72C5
:1006B800DA601A4B00221A61184B00229A61032350
:1006C800FB6000233B6101237B610023BB610A239C
:1006D800FB6100233B6201237B620023BB620A2388
:1006E800FB6207F10C0319460C4801F014FC0346A1
:1006F800002B01D000F008FA00237B600023BB60C8
:100708003B1D1946054801F0BFFF0346002B01D0E9
:1007180000F0FAF900BF3037BD4680BD70000020F8
:100728000004004080B58AB000AF07F12003002222
:100738001A605A603B1D00221A605A609A60DA609B
:100748001A615A619A61274B274A1A60254B002281
:100758005A60244B00229A60224B41F26702DA6009
:10076800204B00221A611F4B80229A611D4801F01C
:1007780083FB0346002B01D000F0C6F900233B623F
:1007880000237B6207F120031946164801F07CFF1D
:100798000346002B01D000F0B7F960237B600023EB
:1007A800BB600023FB6000237B613B1D08221946C8
:1007B8000C4801F057FC0346002B01D000F0A4F9C7
:1007C8003B1D0C221946074801F04CFC0346002B40
:1007D80001D000F099F9034800F0ACFA00BF2837BF
:1007E800BD4680BDB80000200008004080B592B02A
:1007F80000AF07F1400300221A605A6007F1240392
:1008080000221A605A609A60DA601A615A619A6125
:100818003B1D20220021184602F028F8464B474A83
:100828001A60454BA7225A60434B00229A60424BFC
:1008380044F61F62DA60404B00221A613E4B0022E8
:100848005A613D4B80229A613B4801F015FB0346F3
:10085800002B01D000F058F900233B6400237B648F
:1008680007F140031946344801F00EFF0346002BF8
:1008780001D000F049F960237B6240F2DC53BB628F
:100888000023FB6200233B6300237B630023BB63DD
:100898000023FB6307F1240300221946264801F0D0
:1008A800E1FB0346002B01D000F02EF90023BB62C8
:1008B80007F12403042219461F4801F0D3FB03461D
:1008C800002B01D000F020F907F124030822194673
:1008D800194801F0C7FB0346002B01D000F014F9BA
:1008E80007F124030C221946134801F0BBFB034609
:1008F800002B01D000F008F900237B600023BB60C7
:100908000023FB6000233B6100237B614FF400530D
:10091800BB6100233B623B1D1946074801F030FFCD
:100928000346002B01D000F0EFF8034800F002FA6C
:1009380000BF4837BD4680BD0001002000040140CB
:1009480080B588B000AF3B1D00221A605A609A60DB
:10095800DA601A615A619A611F4B204A1A601E4B6D
:1009680001225A601C4B00229A601B4B41F267021D
:10097800DA60194B00221A61174B80229A611648D7
:1009880001F07AFA0346002B01D000F0BDF860238D
:100998007B600023BB600023FB6000237B613B1D61
:1009A800002219460C4801F05DFB0346002B01D0DC
:1009B80000F0AAF83B1D04221946074801F052FB33
:1009C8000346002B01D000F09FF8034800F0B2F96D
:1009D80000BF2037BD4680BD4801002000400140CF
:1009E80080B58CB000AF07F11C0300221A605A6072
:1009F8009A60DA601A610023BB61404B1B6B3F4A67
:100A080043F0100313633D4B1B6B03F01003BB61F2
:100A1800BB6900237B61394B1B6B384A43F0800369
:100A28001363364B1B6B03F080037B617B690023E8
:100A38003B61324B1B6B314A43F0080313632F4B66
:100A48001B6B03F008033B613B690023FB602B4BE6
:100A58001B6B2A4A43F004031363284B1B6B03F0F8
:100A68000403FB60FB680023BB60244B1B6B234A19
:100A780043F001031363214B1B6B03F00103BB60BD
:100A8800BB6800237B601D4B1B6B1C4A43F00203B1
:100A980013631A4B1B6B03F002037B607B68002215
:100AA8004FF48071164800F04FFD00224FF4F041DA
:100AB800144800F049FD4FF48073FB6101233B6249
:100AC80000237B620023BB6207F11C0319460C4814
:100AD80000F09EFB4FF4F043FB6101233B620023CF
:100AE8007B620023BB6207F11C031946054800F02E
:100AF8008FFB00BF3037BD4680BD00BF00380240C5
:100B080000100240000C024080B400AF72B600BF73
:100B1800FEE7000080B483B000AF00237B60104B79
:100B28005B6C0F4A43F4804353640D4B5B6C03F4D6
:100B380080437B607B6800233B60094B1B6C084A41
:100B480043F080531364064B1B6C03F080533B60E7
:100B58003B6800BF0C37BD465DF8047B704700BF9B
:100B68000038024080B58CB000AF786007F11C03F4
:100B780000221A605A609A60DA601A617B681B6802
:100B8800B3F1804F4BD10023BB613F4B1B6C3E4AF6
:100B980043F0010313643C4B1B6C03F00103BB617E
:100BA800BB6900237B61384B1B6B374A43F0010359
:100BB8001363354B1B6B03F001037B617B690023D7
:100BC8003B61314B1B6B304A43F0020313632E4BDE
:100BD8001B6B03F002033B613B694FF40043FB616D
:100BE80002233B6200237B620023BB620123FB627A
:100BF80007F11C031946254800F00AFB0823FB618E
:100C080002233B6200237B620023BB620123FB6259
:100C180007F11C0319461E4800F0FAFA30E07B6819
:100C28001B681C4A93422BD10023FB60164B1B6C9C
:100C3800154A43F002031364134B1B6C03F00203C1
:100C4800FB60FB680023BB600F4B1B6B0E4A43F035
:100C5800020313630C4B1B6B03F00203BB60BB68FE
:100C68003023FB6102233B6200237B620023BB62CB
:100C78000223FB6207F11C031946054800F0C8FA75
:100C880000BF3037BD4680BD00380240000002403A
:100C9800000402400004004080B487B000AF7860D0
:100CA8007B681B681F4A93420ED100237B611E4B51
:100CB8001B6C1D4A43F0040313641B4B1B6C03F0AD
:100CC80004037B617B6926E07B681B68174A9342B3
:100CD8000ED100233B61144B5B6C134A43F00203B3
:100CE8005364114B5B6C03F002033B613B6912E0F8
:100CF8007B681B680E4A93420DD10023FB600A4BA8
:100D08005B6C094A43F480335364074B5B6C03F410
:100D18008033FB60FB6800BF1C37BD465DF8047B71
:100D2800704700BF0008004000380240000401403E
:100D38000040014080B58AB000AF786007F1140325
:100D480000221A605A609A60DA601A617B681B6830
:100D5800374A93421FD100233B61364B1B6B354A00
:100D680043F002031363334B1B6B03F002033B6135
:100D78003B694FF440737B610223BB610023FB6135
:100D880000233B6202237B6207F1140319462A48B9
:100D980000F03EFA47E07B681B68284A93421FD15F
:100DA8000023FB60234B1B6B224A43F004031363AD
:100DB800204B1B6B03F00403FB60FB684FF470735C
:100DC8007B610223BB610023FB6100233B62032399
:100DD8007B6207F114031946194800F019FA22E05A
:100DE8007B681B68174A93421DD10023BB60114BD7
:100DF8001B6B104A43F0100313630E4B1B6B03F07D
:100E08001003BB60BB6860237B610223BB610023C6
:100E1800FB6100233B6203237B6207F1140319463D
:100E2800094800F0F5F900BF2837BD4680BD00BF6E
:100E3800000800400038024000040240000401405D
:100E480000080240004001400010024080B400AF9A
:100E5800FEE780B400AFFEE780B400AFFEE780B4E1
:100E680000AFFEE780B400AFFEE780B400AF00BF7C
:100E7800BD465DF8047B704780B400AF00BFBD4637
:100E88005DF8047B704780B400AF00BFBD465DF8D5
:100E9800047B704780B500AF00F090F800BF80BDBC
:100EA80080B400AF064BD3F88830054A43F470038A
:100EB800C2F8883000BFBD465DF8047B704700BFAC
:100EC80000ED00E0DFF834D00D480E490E4A00234B
:100ED80002E0D458C4500433C4188C42F9D30B4AE6
:100EE8000B4C002301E013600432A242FBD3FFF74E
:100EF800D7FF01F097FCFFF7E5FA704700000220E2
:100F0800000000200C000020BC2800080C00002075
:100F180094010020FEE7000080B500AF0E4B1B686F
:100F28000D4A43F4007313600B4B1B680A4A43F4E1
:100F380080631360084B1B68074A43F4807313608F
:100F4800032000F031F90F2000F008F8FFF7E2FD68
:100F58000023184680BD00BF003C024080B582B027
:100F680000AF7860124B1A68124B1B7819464FF481
:100F78007A73B3FBF1F3B2FBF3F3184600F03BF9D5
:100F88000346002B01D001230EE07B680F2B0AD803
:100F9800002279684FF0FF3000F011F9064A7B68AB
:100FA8001360002300E0012318460837BD4680BDC2
:100FB80000000020080000200400002080B400AFDA
:100FC800064B1B781A46064B1B681344044A1360E9
:100FD80000BFBD465DF8047B704700BF08000020D5
:100FE8009001002080B400AF034B1B681846BD4633
:100FF8005DF8047B704700BF9001002080B584B085
:1010080000AF7860FFF7EEFFB8607B68FB60FB68B5
:10101800B3F1FF3F05D00A4B1B781A46FB6813440F
:10102800FB6000BFFFF7DEFF0246BB68D31AFA6811
:101038009A42F7D800BF00BF1037BD4680BD00BF39
:101048000800002080B485B000AF78607B6803F0AA
:101058000703FB600C4BDB68BB60BA684FF6FF0305
:101068001340BB60FB681A02BB68134343F0BF63BD
:1010780043F40033BB60044ABB68D36000BF143735
:10108800BD465DF8047B704700ED00E080B400AF1A
:10109800044BDB681B0A03F007031846BD465DF8DE
:1010A800047B704700ED00E080B483B000AF0346D6
:1010B8003960FB7197F90730002B0ADB3B68DAB21D
:1010C8000C4997F907301201D2B20B4483F8002378
:1010D8000AE03B68DAB20849FB7903F00F03043BE6
:1010E8001201D2B20B441A7600BF0C37BD465DF828
:1010F800047B704700E100E000ED00E080B489B0B7
:1011080000AFF860B9607A60FB6803F00703FB6121
:10111800FB69C3F10703042B28BF0423BB61FB69E8
:101128000433062B02D9FB69033B00E000237B61F3
:101138004FF0FF32BB6902FA03F3DA43BB681A4087
:101148007B699A404FF0FF317B6901FA03F3D94379
:101158007B680B40134318462437BD465DF8047B73
:101168007047000080B582B000AF78607B68013BB3
:10117800B3F1807F01D301230FE00A4A7B68013B6A
:1011880053600F214FF0FF30FFF78EFF054B002211
:101198009A60044B07221A60002318460837BD4698
:1011A80080BD00BF10E000E080B582B000AF78607D
:1011B8007868FFF747FF00BF0837BD4680BD80B598
:1011C80086B000AF0346B9607A60FB7300237B6189
:1011D800FFF75CFF78617A68B9687869FFF78EFF76
:1011E800024697F90F3011461846FFF75DFF00BF1A
:1011F8001837BD4680BD80B582B000AF786078688A
:10120800FFF7B0FF034618460837BD4680BD00000B
:1012180080B489B000AF7860396000237B61002317
:101228003B610023BB610023FB616BE10122FB6989
:1012380002FA03F37B613B681B687A6913403B61E0
:101248003A697B699A4240F05A813B685B6803F0CF
:101258000303012B05D03B685B6803F00303022BF3
:1012680030D17B689B68BB61FB695B00032202FA93
:1012780003F3DB43BA691340BB613B68DA68FB6977
:101288005B0002FA03F3BA691343BB617B68BA696E
:101298009A607B685B68BB610122FB6902FA03F311
:1012A800DB43BA691340BB613B685B681B0903F009
:1012B8000102FB6902FA03F3BA691343BB617B6855
:1012C800BA695A603B685B6803F00303032B17D0C5
:1012D8007B68DB68BB61FB695B00032202FA03F3EE
:1012E800DB43BA691340BB613B689A68FB695B00E2
:1012F80002FA03F3BA691343BB617B68BA69DA601F
:101308003B685B6803F00303022B23D1FB69DA080F
:101318007B68083253F82230BB61FB6903F007038E
:101328009B000F2202FA03F3DB43BA691340BB6147
:101338003B681A69FB6903F007039B0002FA03F391
:10134800BA691343BB61FB69DA087B680832B9697B
:1013580043F822107B681B68BB61FB695B000322B2
:1013680002FA03F3DB43BA691340BB613B685B686D
:1013780003F00302FB695B0002FA03F3BA69134343
:10138800BB617B68BA691A603B685B6803F44033E9
:10139800002B00F0B4800023FB60604B5B6C5F4A5D
:1013A80043F4804353645D4B5B6C03F48043FB6000
:1013B800FB685B4AFB699B08023352F82330BB6128
:1013C800FB6903F003039B000F2202FA03F3DB43DC
:1013D800BA691340BB617B68524A93422BD07B6841
:1013E800514A934225D07B68504A93421FD07B686C
:1013F8004F4A934219D07B684E4A934213D07B6878
:101408004D4A93420DD07B684C4A934207D07B6883
:101418004B4A934201D107230EE008230CE0062330
:101428000AE0052308E0042306E0032304E002237E
:1014380002E0012300E00023FA6902F003029200AF
:101448009340BA691343BB613549FB699B08023372
:10145800BA6941F823203B4B9B68BB613B69DB437E
:10146800BA691340BB613B685B6803F48013002BC7
:1014780003D0BA693B691343BB61324ABB699360C5
:10148800304BDB68BB613B69DB43BA691340BB6126
:101498003B685B6803F40013002B03D0BA693B690F
:1014A8001343BB61274ABB69D360264B5B68BB61AA
:1014B8003B69DB43BA691340BB613B685B6803F473
:1014C8000033002B03D0BA693B691343BB611D4A43
:1014D800BB6953601B4B1B68BB613B69DB43BA6943
:1014E8001340BB613B685B6803F48033002B03D077
:1014F800BA693B691343BB61124ABB691360FB6954
:101508000133FB61FB690F2B7FF690AE00BF00BF74
:101518002437BD465DF8047B704700BF00380240A1
:101528000038014000000240000402400008024068
:10153800000C024000100240001402400018024053
:10154800001C0240003C014080B483B000AF7860CA
:101558000B467B8013467B707B78002B03D07A8800
:101568007B689A6103E07B881A047B689A6100BFF4
:101578000C37BD465DF8047B704780B485B000AF7A
:1015880078600B467B807B685B69FB607A88FB68C8
:1015980013401A04FB68D9437B880B401A437B68C5
:1015A8009A6100BF1437BD465DF8047B70470000A0
:1015B80080B586B000AF78607B68002B01D101232D
:1015C80067E27B681B6803F00103002B75D0884B2A
:1015D8009B6803F00C03042B0CD0854B9B6803F02D
:1015E8000C03082B12D1824B5B6803F48003B3F51C
:1015F800800F0BD17E4B1B6803F40033002B5BD0AC
:101608007B685B68002B57D1012342E27B685B68EB
:10161800B3F5803F06D1764B1B68754A43F4803397
:1016280013601DE07B685B68B3F5A02F0CD1704B8D
:101638001B686F4A43F4802313606D4B1B686C4A28
:1016480043F4803313600BE0694B1B68684A23F44A
:1016580080331360664B1B68654A23F4802313604C
:101668007B685B68002B13D0FFF7BCFC386108E08F
:10167800FFF7B8FC02463B69D31A642B01D9032350
:1016880007E25B4B1B6803F40033002BF0D014E037
:10169800FFF7A8FC386108E0FFF7A4FC02463B69A5
:1016A800D31A642B01D90323F3E1514B1B6803F4CC
:1016B8000033002BF0D100E000BF7B681B6803F00B
:1016C8000203002B63D04A4B9B6803F00C03002BEA
:1016D8000BD0474B9B6803F00C03082B1CD1444BE1
:1016E8005B6803F48003002B16D1414B1B6803F0A1
:1016F8000203002B05D07B68DB68012B01D0012396
:10170800C7E13B4B1B6823F0F8027B681B69DB00D1
:10171800374913430B603AE07B68DB68002B20D025
:10172800344B01221A60FFF75DFC386108E0FFF7CF
:1017380059FC02463B69D31A022B01D90323A8E1BD
:101748002B4B1B6803F00203002BF0D0284B1B68BF
:1017580023F0F8027B681B69DB00254913430B6003
:1017680015E0244B00221A60FFF73CFC386108E0C2
:10177800FFF738FC02463B69D31A022B01D9032331
:1017880087E11B4B1B6803F00203002BF0D17B6839
:101798001B6803F00803002B36D07B685B69002BBD
:1017A80016D0154B01221A60FFF71CFC386108E0BF
:1017B800FFF718FC02463B69D31A022B01D9032311
:1017C80067E10B4B5B6F03F00203002BF0D01BE0CB
:1017D800094B00221A60FFF705FC38610EE0FFF79D
:1017E80001FC02463B69D31A022B07D9032350E1B7
:1017F8000038024000004742800E4742884B5B6F2A
:1018080003F00203002BEAD17B681B6803F0040392
:10181800002B00F097800023FB75814B1B6C03F0B5
:101828008053002B0FD10023BB607D4B1B6C7C4A7F
:1018380043F0805313647A4B1B6C03F08053BB60F6
:10184800BB680123FB75774B1B6803F48073002B7F
:1018580018D1744B1B68734A43F480731360FFF705
:10186800C1FB386108E0FFF7BDFB02463B69D31AAC
:10187800022B01D903230CE16A4B1B6803F4807324
:10188800002BF0D07B689B68012B06D1644B1B6F43
:10189800634A43F0010313671CE07B689B68052BD0
:1018A8000CD15F4B1B6F5E4A43F0040313675C4B1C
:1018B8001B6F5B4A43F0010313670BE0584B1B6F28
:1018C800574A23F001031367554B1B6F544A23F003
:1018D800040313677B689B68002B15D0FFF782FB16
:1018E80038610AE0FFF77EFB02463B69D31A41F2F2
:1018F8008832934201D90323CBE0494B1B6F03F095
:101908000203002BEED014E0FFF76CFB38610AE00D
:10191800FFF768FB02463B69D31A41F288329342CB
:1019280001D90323B5E03E4B1B6F03F00203002BE4
:10193800EED1FB7D012B05D1394B1B6C384A23F0C6
:10194800805313647B689B69002B00F0A180344BA3
:101958009B6803F00C03082B5CD07B689B69022B07
:1019680041D1314B00221A60FFF73CFB386108E097
:10197800FFF738FB02463B69D31A022B01D9032330
:1019880087E0274B1B6803F00073002BF0D17B68BE
:10199800DA697B681B6A1A437B685B6A9B011A4396
:1019A8007B689B6A5B08013B1B041A437B68DB6A04
:1019B8001B061B4913434B601B4B01221A60FFF7A0
:1019C80011FB386108E0FFF70DFB02463B69D31AAB
:1019D800022B01D903235CE0114B1B6803F0007351
:1019E800002BF0D054E0104B00221A60FFF7FAFAEF
:1019F800386108E0FFF7F6FA02463B69D31A022B72
:101A080001D9032345E0064B1B6803F00073002B44
:101A1800F0D13DE07B689B69012B07D1012338E0B9
:101A28000038024000700040600047421B4B5B6872
:101A3800FB607B689B69012B28D0FB6803F480025C
:101A48007B68DB699A4221D1FB6803F03F027B681F
:101A58001B6A9A421AD1FA6847F6C07313407A682B
:101A6800526A9201934211D1FB6803F440327B68B9
:101A78009B6A5B08013B1B049A4207D1FB6803F091
:101A880070627B68DB6A1B069A4201D0012300E082
:101A9800002318461837BD4680BD00BF00380240F5
:101AA80080B584B000AF786039607B68002B01D1C5
:101AB8000123CCE0684B1B6803F007033A689A429D
:101AC8000CD9654B3A68D2B21A70634B1B6803F0A5
:101AD80007033A689A4201D00123B8E07B681B6883
:101AE80003F00203002B20D07B681B6803F004037B
:101AF800002B05D0594B9B68584A43F4E053936038
:101B08007B681B6803F00803002B05D0534B9B68C8
:101B1800524A43F460439360504B9B6823F0F002B1
:101B28007B689B684D4913438B607B681B6803F097
:101B38000103002B44D07B685B68012B07D1474B1E
:101B48001B6803F40033002B19D101237FE07B6865
:101B58005B68022B03D07B685B68032B07D13F4B84
:101B68001B6803F00073002B09D101236FE03B4B86
:101B78001B6803F00203002B01D1012367E0374BF8
:101B88009B6823F003027B685B68344913438B60CE
:101B9800FFF728FAF8600AE0FFF724FA0246FB6824
:101BA800D31A41F28832934201D903234FE02B4BD9
:101BB8009B6803F00C027B685B689B009A42EBD140
:101BC800254B1B6803F007033A689A420CD2224B54
:101BD8003A68D2B21A70204B1B6803F007033A68C0
:101BE8009A4201D0012332E07B681B6803F00403AA
:101BF800002B08D0194B9B6823F4E0527B68DB6804
:101C0800164913438B607B681B6803F00803002B9D
:101C180009D0124B9B6823F460427B681B69DB0088
:101C28000E4913438B6000F021F802460B4B9B686A
:101C38001B0903F00F030A49CB5C22FA03F3094A94
:101C48001360094B1B681846FFF788F900231846EC
:101C58001037BD4680BD00BF003C0240003802403E
:101C68009C28000800000020040000202DE9B04F47
:101C780094B000AF00237B640023FB6400233B6423
:101C88000023BB64794B9B6803F00C03082B0DD031
:101C9800082B00F2E180002B02D0042B03D0DBE0FC
:101CA800734BBB64DBE0734BBB64D8E06F4B5B6882
:101CB80003F03F037B646D4B5B6803F48003002BE8
:101CC80063D06A4B5B689B090022BB63FA63BB6BFA
:101CD800C3F308033B6300237B63D7E90C45224623
:101CE8002B464FF000004FF00001590141EAD26144
:101CF800500102460B462146511A3961294663EBC9
:101D080001037B614FF000024FF00003D7E904ABF9
:101D180059468B01514643EA916351468A0151461F
:101D2800B2EB0108594663EB01094FF000024FF08E
:101D380000034FEAC90343EA58734FEAC8029046C2
:101D48009946234618EB0303BB602B4649EB030374
:101D5800FB604FF000024FF00003D7E90245294627
:101D68004B02214643EAD15321464A0210461946FE
:101D78007B6C0022BB62FA62D7E90A23FEF720FADD
:101D880002460B461346FB6458E0384B5B689B09D8
:101D9800002218461146C0F308033B6200237B6209
:101DA800D7E9088942464B464FF000004FF0000142
:101DB800590141EAD261500102460B464146B2EB55
:101DC800010A494663EB010B4FF000024FF0000394
:101DD8004FEA8B1343EA9A634FEA8A12B2EB0A047A
:101DE80063EB0B054FF000024FF00003EB0043EAF2
:101DF8005473E20014461D464346E3183B604B46C5
:101E080045EB03037B604FF000024FF00003D7E976
:101E1800004529468B02214643EA915321468A020E
:101E2800104619467B6C0022BB61FA61D7E906238C
:101E3800FEF7C6F902460B461346FB640B4B5B687C
:101E48001B0C03F0030301335B003B64FA6C3B6C2F
:101E5800B2FBF3F3BB6402E0054BBB6400BFBB6C91
:101E680018465037BD46BDE8B08F00BF0038024065
:101E78000024F40000127A0080B582B000AF7860C8
:101E88007B68002B01D1012341E07B6893F83D304A
:101E9800DBB2002B06D17B68002283F83C207868EF
:101EA800FEF7FAFE7B68022283F83D207B681A68F9
:101EB8007B6804331946104600F096F97B680122C6
:101EC80083F846207B68012283F83E207B68012244
:101ED80083F83F207B68012283F840207B68012239
:101EE80083F841207B68012283F842207B68012225
:101EF80083F843207B68012283F844207B68012211
:101F080083F845207B68012283F83D20002318468A
:101F18000837BD4680BD80B586B000AF78603960AF
:101F28007B68002B01D1012397E07B6893F83D3053
:101F3800DBB2002B06D17B68002283F83C2078684E
:101F4800FEF710FE7B68022283F83D207B681B6841
:101F58009B687A68126823F4804323F00703936030
:101F68007B681A687B6804331946104600F03CF910
:101F78007B681B689B687B617B681B689B693B610E
:101F88007B681B681B6AFB603B681B687A691343A4
:101F98007B613B6923F4407323F003033B613B6897
:101FA8009A683B689B691B0213433A6913433B6178
:101FB8003B6923F4406323F00C033B613B6923F442
:101FC800704323F0F0033B613B68DA683B68DB69E8
:101FD8001B0213433A6913433B613B681B691A01AF
:101FE8003B681B6A1B0313433A6913433B61FB6855
:101FF80023F02203FB60FB6823F08803FB603B6847
:102008005A683B685B691B011343FA681343FB601A
:102018007B681B687A699A607B681B683A699A6171
:102028007B681B68FA681A627B68012283F846207D
:102038007B68012283F83E207B68012283F83F20D9
:102048007B68012283F842207B68012283F84320C1
:102058007B68012283F83D20002318461837BD46C7
:1020680080BD000080B586B000AFF860B9607A60C6
:102078000023FB75FB6893F83C30012B01D1022348
:10208800AEE0FB68012283F83C207B680C2B00F251
:102098009F8001A252F823F0D5200008D92100081A
:1020A800D9210008D921000815210008D9210008E4
:1020B800D9210008D921000857210008D921000892
:1020C800D9210008D921000897210008FB681B685E
:1020D800B968184600F028F9FB681B689A69FB681C
:1020E8001B6842F008029A61FB681B689A69FB68E2
:1020F8001B6822F004029A61FB681B689969BB6837
:102108001A69FB681B680A439A6164E0FB681B68EC
:10211800B968184600F078F9FB681B689A69FB688B
:102128001B6842F400629A61FB681B689A69FB6845
:102138001B6822F480629A61FB681B689969BB6816
:102148001B691A02FB681B680A439A6143E0FB6833
:102158001B68B968184600F0CDF9FB681B68DA6996
:10216800FB681B6842F00802DA61FB681B68DA69E1
:10217800FB681B6822F00402DA61FB681B68D969F6
:10218800BB681A69FB681B680A43DA6123E0FB68CD
:102198001B68B968184600F021FAFB681B68DA6901
:1021A800FB681B6842F40062DA61FB681B68DA6945
:1021B800FB681B6822F48062DA61FB681B68D969D6
:1021C800BB681B691A02FB681B680A43DA6102E0F4
:1021D8000123FB7500BFFB68002283F83C20FB7DD0
:1021E80018461837BD4680BD80B485B000AF78600A
:1021F80039607B681B68FB607B68404A934213D058
:102208007B68B3F1804F0FD07B683D4A93420BD077
:102218007B683C4A934207D07B683B4A934203D091
:102228007B683A4A934208D1FB6823F07003FB604D
:102238003B685B68FA681343FB607B682F4A9342EC
:102248002BD07B68B3F1804F27D07B682C4A934210
:1022580023D07B682B4A93421FD07B682A4A93423B
:102268001BD07B68294A934217D07B68284A93423F
:1022780013D07B68274A93420FD07B68264A934243
:102288000BD07B68254A934207D07B68244A934247
:1022980003D07B68234A934208D1FB6823F4407338
:1022A800FB603B68DB68FA681343FB60FB6823F05C
:1022B80080023B685B691343FB607B68FA681A60BD
:1022C8003B689A687B68DA623B681A687B689A623E
:1022D8007B680A4A934203D07B680C4A934203D135
:1022E8003B681A697B681A637B6801225A6100BFE0
:1022F8001437BD465DF8047B704700BF00000140FD
:102308000004004000080040000C004000040140A8
:1023180000400140004401400048014000180040CE
:10232800001C00400020004080B487B000AF7860F7
:1023380039607B681B6A23F001027B681A627B683C
:102348001B6A7B617B685B683B617B689B69FB60A0
:10235800FB6823F07003FB60FB6823F00303FB605A
:102368003B681B68FA681343FB607B6923F0020330
:102378007B613B689B687A6913437B617B68204A71
:10238800934203D07B681F4A93420CD17B6923F0A8
:1023980008037B613B68DB687A6913437B617B696F
:1023A80023F004037B617B68154A934203D07B6862
:1023B800144A934211D13B6923F480733B613B6912
:1023C80023F400733B613B685B693A6913433B61E3
:1023D8003B689B693A6913433B617B683A695A6079
:1023E8007B68FA689A613B685A687B685A637B68BD
:1023F8007A691A6200BF1C37BD465DF8047B7047D6
:10240800000001400004014080B487B000AF78604C
:1024180039607B681B6A23F010027B681A627B684C
:102428001B6A7B617B685B683B617B689B69FB60BF
:10243800FB6823F4E043FB60FB6823F44073FB6014
:102448003B681B681B02FA681343FB607B6923F037
:1024580020037B613B689B681B017A6913437B619E
:102468007B68224A934203D07B68214A93420DD16C
:102478007B6923F080037B613B68DB681B017A6919
:1024880013437B617B6923F040037B617B68174AB8
:10249800934203D07B68164A934213D13B6923F4D5
:1024A80080633B613B6923F400633B613B685B6984
:1024B8009B003A6913433B613B689B699B003A69FF
:1024C80013433B617B683A695A607B68FA689A6192
:1024D8003B685A687B689A637B687A691A6200BFAE
:1024E8001C37BD465DF8047B704700BF0000014003
:1024F8000004014080B487B000AF786039607B6821
:102508001B6A23F480727B681A627B681B6A7B6192
:102518007B685B683B617B68DB69FB60FB6823F079
:102528007003FB60FB6823F00303FB603B681B68D8
:10253800FA681343FB607B6923F400737B613B6893
:102548009B681B027A6913437B617B68214A93422B
:1025580003D07B68204A93420DD17B6923F4006342
:102568007B613B68DB681B027A6913437B617B698B
:1025780023F480637B617B68164A934203D07B68AF
:10258800154A934213D13B6923F480533B613B695D
:1025980023F400533B613B685B691B013A691343B1
:1025A8003B613B689B691B013A6913433B617B684C
:1025B8003A695A607B68FA68DA613B685A687B68EE
:1025C800DA637B687A691A6200BF1C37BD465DF81A
:1025D800047B7047000001400004014080B487B0CC
:1025E80000AF786039607B681B6A23F480527B688F
:1025F8001A627B681B6A3B617B685B687B617B68EE
:10260800DB69FB60FB6823F4E043FB60FB6823F4B1
:102618004073FB603B681B681B02FA681343FB604E
:102628003B6923F400533B613B689B681B033A6991
:1026380013433B617B68124A934203D07B68114A7B
:10264800934209D17B6923F480437B613B685B69D2
:102658009B017A6913437B617B687A695A607B685E
:10266800FA68DA613B685A687B681A647B683A6979
:102678001A6200BF1C37BD465DF8047B704700BF77
:10268800000001400004014080B485B000AF7860CC
:1026980039607B6893F83C30012B01D102235AE062
:1026A8007B68012283F83C207B68022283F83D2066
:1026B8007B681B685B68FB607B681B689B68BB600A
:1026C800FB6823F07003FB603B681B68FA681343E0
:1026D800FB607B681B68FA685A607B681B68214A44
:1026E800934222D07B681B68B3F1804F1DD07B6872
:1026F8001B681D4A934218D07B681B681B4A93428B
:1027080013D07B681B681A4A93420ED07B681B68FB
:10271800184A934209D07B681B68174A934204D031
:102728007B681B68154A93420CD1BB6823F0800371
:10273800BB603B685B68BA681343BB607B681B6817
:10274800BA689A607B68012283F83D207B68002282
:1027580083F83C20002318461437BD465DF8047BF7
:10276800704700BF0000014000040040000800401E
:10277800000C0040000401400040014000180040E7
:1027880080B485B000AF786039600023FB607B6857
:1027980093F83C30012B01D102233DE07B680122F4
:1027A80083F83C20FB6823F0FF023B68DB68134397
:1027B800FB60FB6823F440723B689B681343FB6033
:1027C800FB6823F480623B685B681343FB60FB682B
:1027D80023F400623B681B681343FB60FB6823F427
:1027E80080523B681B691343FB60FB6823F400526B
:1027F8003B685B691343FB60FB6823F480423B68DA
:10280800DB691343FB607B681B68FA685A647B6862
:10281800002283F83C20002318461437BD465DF893
:10282800047B704770B50D4D0D4C641BA410002639
:10283800A64209D10B4D0C4C00F020F8641BA410E3
:102848000026A64205D170BD55F8043B98470136CD
:10285800EEE755F8043B98470136F2E7B42800083C
:10286800B4280008B4280008B82800080244034621
:10287800934200D1704703F8011BF9E7F8B500BF90
:10288800F8BC08BC9E467047F8B500BFF8BC08BC49
:042898009E467047A1
:10289C000000000000000000010203040607080904
:0828AC004CD9FF7F0100000080
:0428B400AD0100086A
:0428B800890100088A
:0C28BC000024F4001000000001000000E7
:0400000508000ECD14
:00000001FF
