:020000040800F2
:1000000000000220BD110008C5100008CB10000838
:10001000D1100008D7100008DD1000080000000013
:10002000000000000000000000000000E3100008D5
:10003000F110000800000000FF1000080D1100087A
:100040000D1200080D1200080D1200080D12000814
:100050000D1200080D1200080D1200080D12000804
:100060000D1200080D1200080D1200080D120008F4
:100070000D1200080D1200080D1200080D120008E4
:100080000D1200080D1200080D1200080D120008D4
:100090000D1200080D1200080D1200080D120008C4
:1000A0000D1200080D1200080D1200080D120008B4
:1000B0000D1200080D1200080D1200080D120008A4
:1000C0000D1200080D1200080D1200080D12000894
:1000D0000D1200080D1200080D1200080D12000884
:1000E0000D1200080D1200080D1200080D12000874
:1000F0000D1200080D1200080D1200080D12000864
:100100000D1200080D1200080D1200080D12000853
:100110000D1200080D120008191100080D12000838
:100120000D1200080D1200080D1200080D12000833
:100130000D1200080D1200080D1200080D12000823
:100140000D1200080D1200080D1200080D12000813
:100150000D1200080D1200080D1200080D12000803
:100160000D1200080D1200080D1200080D120008F3
:100170000D1200080D1200080D120008000000000A
:080180000D1200080D12000829
:1001900010B5054C237833B9044B13B10448AFF3C1
:1001A00000800123237010BD7400002000000000B7
:1001B000185B000808B5034B1BB103490348AFF3B4
:1001C000008008BD0000000078000020185B0008D7
:1001D00001F0FF01102A2BDB10F0070F08D010F8F8
:1001E000013B013A8B422DD010F0070F42B3F6D1FC
:1001F000F0B441EA012141EA014122F007047FF015
:1002000000070023F0E80256083C85EA010586EA6B
:10021000010685FA47F5A3FA87F586FA47F6A5FAA7
:1002200087F68EB9EED1F0BC01F0FF0102F00702B3
:1002300032B110F8013B013A83EA010313B1F8D15E
:100240000020704701387047002D06BF354603383F
:10025000073815F0010F07D1013015F4807F02BF78
:10026000013015F4C03F0130F0BC0138704700BFC9
:1002700053B94AB9002908BF00281CBF4FF0FF310D
:100280004FF0FF3000F074B9ADF1080C6DE904CE09
:1002900000F006F8DDF804E0DDE9022304B0704761
:1002A0002DE9F047089D04468E46002B4DD18A4229
:1002B000944669D9B2FA82F252B101FA02F3C2F15C
:1002C000200120FA01F10CFA02FC41EA030E9440ED
:1002D0004FEA1C48210CBEFBF8F61FFA8CF708FB0E
:1002E00016E341EA034306FB07F199420AD91CEBE6
:1002F000030306F1FF3080F01F81994240F21C8118
:10030000023E63445B1AA4B2B3FBF8F008FB10335F
:1003100044EA034400FB07F7A7420AD91CEB040494
:1003200000F1FF3380F00A81A74240F20781644464
:10033000023840EA0640E41B00261DB1D4400023E9
:10034000C5E900433146BDE8F0878B4209D9002D4D
:1003500000F0EF800026C5E9000130463146BDE8D7
:10036000F087B3FA83F6002E4AD18B4202D3824241
:1003700000F2F980841A61EB030301209E46002DF0
:10038000E0D0C5E9004EDDE702B9FFDEB2FA82F245
:10039000002A40F09280A1EB0C014FEA1C471FFAA3
:1003A0008CFE0126200CB1FBF7F307FB131140EA8A
:1003B00001410EFB03F0884208D91CEB010103F157
:1003C000FF3802D2884200F2CB804346091AA4B219
:1003D000B1FBF7F007FB101144EA01440EFB00FEED
:1003E000A64508D91CEB040400F1FF3102D2A64552
:1003F00000F2BB800846A4EB0E0440EA03409CE7F1
:10040000C6F12007B34022FA07FC4CEA030C20FA9D
:1004100007F401FA06F31C43F9404FEA1C4900FABD
:1004200006F3B1FBF9F8200C1FFA8CFE09FB18113A
:1004300040EA014108FB0EF0884202FA06F20BD9AD
:100440001CEB010108F1FF3A80F08880884240F2FD
:100450008580A8F102086144091AA4B2B1FBF9F041
:1004600009FB101144EA014100FB0EFE8E4508D93C
:100470001CEB010100F1FF346CD28E456AD90238C1
:10048000614440EA0840A0FB0294A1EB0E01A142A6
:10049000C846A64656D353D05DB1B3EB080261EB14
:1004A0000E0101FA07F722FA06F3F1401F43C5E9EE
:1004B000007100263146BDE8F087C2F12003D84024
:1004C0000CFA02FC21FA03F3914001434FEA1C4766
:1004D0001FFA8CFEB3FBF7F007FB10360B0C43EA58
:1004E000064300FB0EF69E4204FA02F408D91CEB08
:1004F000030300F1FF382FD29E422DD90238634406
:100500009B1B89B2B3FBF7F607FB163341EA0341A5
:1005100006FB0EF38B4208D91CEB010106F1FF38F4
:1005200016D28B4214D9023E6144C91A46EA0046EB
:1005300038E72E46284605E70646E3E61846F8E67D
:100540004B45A9D2B9EB020864EB0C0E0138A3E7C6
:100550004646EAE7204694E74046D1E7D0467BE7A7
:10056000023B614432E7304609E76444023842E71F
:10057000704700BF80B588B002AF00F049FE00F0C0
:1005800087F800F02BFB00F0EDF800F03FF900F0E9
:1005900091F900F029FA00F0D1FA00F0EFF903F038
:1005A000A9FC03F063F803F0B5F802F071FE3148DE
:1005B00001F068FE03F02CFF012003F05DFF03F063
:1005C00037F9962003F09EFA4FF47A6000F092FE1D
:1005D00003F07CFAF0EE407AFDEEE77A17EE903AFF
:1005E0001AB2254B1A8003F07FFAF0EE407AFDEE46
:1005F000E77A17EE903A1AB2204B1A8004F020F8EE
:1006000003461A461E4B1A8004F026F803461A4683
:100610001C4B1A8003F0B2FA174B1B881BB21A4608
:10062000164B1B881BB2384600931346164A1821F6
:1006300004F050F83B461A460021002003F028FC45
:100640000F4B1B881BB21A460E4B1B881BB2384639
:10065000009313460D4A182104F03CF83B461A4615
:100660001021002003F014FC03F09AFA322000F06D
:1006700041FED1E76801002044020020460200202C
:100680004002002042020020305B00083C5B000872
:1006900080B594B000AF07F1200330220021184646
:1006A00004F010F807F10C0300221A605A609A60F7
:1006B000DA601A610023BB60284B1B6C274A43F0A9
:1006C00080531364254B1B6C03F08053BB60BB68E5
:1006D00000237B60224B1B68214A43F48043136054
:1006E0001F4B1B6803F480437B607B6801233B62E4
:1006F0004FF480337B620223BB634FF48003FB63C0
:1007000008233B644FF4A8737B640223BB64042377
:10071000FB6407F12003184601F000F90346002BA3
:1007200001D000F005FB0F23FB6002233B61002397
:100730007B614FF4A053BB614FF48053FB6107F121
:100740000C030521184601F061FB0346002B01D084
:1007500000F0EEFA00BF5037BD4680BD00380240C1
:100760000070004080B58CB000AF07F10C0324226C
:100770000021184603F0A6FF3B1D00221A605A60B4
:10078000214B4FF080421A601F4B00225A601E4BD3
:1007900000229A601C4B4FF6FF72DA601A4B00225F
:1007A0001A61194B00229A610323FB6000233B610D
:1007B00001237B610023BB610A23FB6100233B62B1
:1007C00001237B620023BB620A23FB6207F10C0357
:1007D00019460D4801F0DEFE0346002B01D000F063
:1007E000A7FA00237B600023BB603B1D1946064827
:1007F00002F06CFC0346002B01D000F099FA00BF18
:100800003037BD4680BD00BF9000002080B58CB061
:1008100000AF07F10C0324220021184603F052FF19
:100820003B1D00221A605A60204B214A1A601F4B60
:1008300000225A601D4B00229A601C4B4FF6FF723B
:10084000DA601A4B00221A61184B00229A610323C6
:10085000FB6000233B6101237B610023BB610A2312
:10086000FB6100233B6201237B620023BB620A23FE
:10087000FB6207F10C0319460C4801F08BFE03469E
:10088000002B01D000F054FA00237B600023BB60F2
:100890003B1D1946054802F019FC0346002B01D008
:1008A00000F046FA00BF3037BD4680BDD8000020BA
:1008B0000004004080B58AB000AF07F12003002299
:1008C0001A605A603B1D00221A605A609A60DA6012
:1008D0001A615A619A61274B274A1A60254B0022F8
:1008E0005A60244B00229A60224B41F26702DA6080
:1008F000204B00221A611F4B80229A611D4801F093
:1009000031FD0346002B01D000F012FA00233B62B8
:1009100000237B6207F120031946164802F0D6FB3C
:100920000346002B01D000F003FA60237B60002314
:10093000BB600023FB6000237B613B1D082219463E
:100940000C4802F063F80346002B01D000F0F0F9E8
:100950003B1D0C221946074802F058F80346002BAD
:1009600001D000F0E5F9034800F020FB00BF283774
:10097000BD4680BD200100200008004080B582B047
:1009800000AF3B4600221A605A60154B154A1A60A8
:10099000134B42F2CF025A60114B00229A60104B67
:1009A0006322DA600E4B00229A610D4801F01AFCB6
:1009B0000346002B01D000F0BBF900233B6000236D
:1009C0007B603B461946064802F080FB0346002B3D
:1009D00001D000F0ADF900BF0837BD4680BD00BFB3
:1009E000680100200010004080B592B000AF07F110
:1009F000400300221A605A6007F1240300221A60A3
:100A00005A609A60DA601A615A619A613B1D20222D
:100A10000021184603F056FE464B474A1A60454BE4
:100A2000A7225A60434B00229A60424B44F61F6251
:100A3000DA60404B00221A613E4B00225A613D4B66
:100A400080229A613B4801F08DFC0346002B01D0C7
:100A500000F06EF900233B6400237B6407F1400340
:100A60001946344802F032FB0346002B01D000F057
:100A70005FF960237B6240F2DC53BB620023FB62C0
:100A800000233B6300237B630023BB630023FB63E2
:100A900007F1240300221946264801F0B7FF034658
:100AA000002B01D000F044F90023BB6207F12403BE
:100AB000042219461F4801F0A9FF0346002B01D06C
:100AC00000F036F907F1240308221946194801F00D
:100AD0009DFF0346002B01D000F02AF907F1240303
:100AE0000C221946134801F091FF0346002B01D058
:100AF00000F01EF900237B600023BB600023FB6035
:100B000000233B6100237B614FF40053BB61002352
:100B10003B623B1D1946074802F054FB0346002B7D
:100B200001D000F005F9034800F040FA00BF483753
:100B3000BD4680BDB00100200004014080B588B0F2
:100B400000AF3B1D00221A605A609A60DA601A6199
:100B50005A619A611F4B204A1A601E4B01225A604B
:100B60001C4B00229A601B4B41F26702DA60194B62
:100B700000221A61174B80229A61164801F0F2FB9D
:100B80000346002B01D000F0D3F860237B600023E4
:100B9000BB600023FB6000237B613B1D00221946E4
:100BA0000C4801F033FF0346002B01D000F0C0F8E1
:100BB0003B1D04221946074801F028FF0346002B7D
:100BC00001D000F0B5F8034800F0F0F900BF20377D
:100BD000BD4680BDF80100200040014080B58CB0CA
:100BE00000AF07F11C0300221A605A609A60DA60B5
:100BF0001A610023BB61404B1B6B3F4A43F010035B
:100C000013633D4B1B6B03F01003BB61BB690023F7
:100C10007B61394B1B6B384A43F080031363364BBF
:100C20001B6B03F080037B617B6900233B61324BCC
:100C30001B6B314A43F0080313632F4B1B6B03F00C
:100C400008033B613B690023FB602B4B1B6B2A4A6B
:100C500043F004031363284B1B6B03F00403FB6096
:100C6000FB680023BB60244B1B6B234A43F001034A
:100C70001363214B1B6B03F00103BB60BB680023B4
:100C80007B601D4B1B6B1C4A43F0020313631A4B22
:100C90001B6B03F002037B607B6800224FF48071C2
:100CA000164800F0F9FD00224FF4F041144800F01E
:100CB000F3FD4FF48073FB6101233B6200237B62F1
:100CC0000023BB6207F11C0319460C4800F048FCE6
:100CD0004FF4F043FB6101233B6200237B6202235C
:100CE000BB6207F11C031946054800F039FC00BF40
:100CF0003037BD4680BD00BF0038024000100240C2
:100D0000000C024080B582B000AF78607B681B6841
:100D1000064A934205D102F0FDFA02F0C7FD03F046
:100D20005BFC00BF0837BD4680BD00BF001000401F
:100D300080B400AF72B600BFFEE7000080B483B09D
:100D400000AF00237B60104B5B6C0F4A43F4804381
:100D500053640D4B5B6C03F480437B607B68002322
:100D60003B60094B1B6C084A43F080531364064BED
:100D70001B6C03F080533B603B6800BF0C37BD46E3
:100D80005DF8047B704700BF0038024080B58CB02E
:100D900000AF786007F11C0300221A605A609A6065
:100DA000DA601A617B681B68B3F1804F4BD1002376
:100DB000BB613F4B1B6C3E4A43F0010313643C4B49
:100DC0001B6C03F00103BB61BB6900237B61384BE3
:100DD0001B6B374A43F001031363354B1B6B03F066
:100DE00001037B617B6900233B61314B1B6B304A04
:100DF00043F0020313632E4B1B6B03F002033B61B2
:100E00003B694FF40043FB6102233B6200237B629A
:100E10000023BB620123FB6207F11C03194625482E
:100E200000F09EFB0823FB6102233B6200237B62F0
:100E30000023BB620123FB6207F11C0319461E4815
:100E400000F08EFB30E07B681B681C4A93422BD17C
:100E50000023FB60164B1B6C154A43F0020313641E
:100E6000134B1B6C03F00203FB60FB680023BB60A9
:100E70000F4B1B6B0E4A43F0020313630C4B1B6BAF
:100E800003F00203BB60BB683023FB6102233B62BB
:100E900000237B620023BB620223FB6207F11C0379
:100EA0001946054800F05CFB00BF3037BD4680BDE9
:100EB00000380240000002400004024000040040EC
:100EC00080B487B000AF78607B681B681F4A93428C
:100ED0000ED100237B611E4B1B6C1D4A43F00403A3
:100EE00013641B4B1B6C03F004037B617B6926E0DE
:100EF0007B681B68174A93420ED100233B61144B59
:100F00005B6C134A43F002035364114B5B6C03F0B8
:100F100002033B613B6912E07B681B680E4A934207
:100F20000DD10023FB600A4B5B6C094A43F480330C
:100F30005364074B5B6C03F48033FB60FB6800BFBA
:100F40001C37BD465DF8047B704700BF00080040B9
:100F500000380240000401400040014080B584B0E8
:100F600000AF78607B681B680E4A934215D100235E
:100F7000FB600D4B1B6C0C4A43F0100313640A4BCF
:100F80001B6C03F01003FB60FB680022002136207D
:100F900000F0AFFA362000F0C8FA00BF1037BD46A7
:100FA00080BD00BF001000400038024080B58AB00C
:100FB00000AF786007F1140300221A605A609A604B
:100FC000DA601A617B681B68374A93421FD100239D
:100FD0003B61364B1B6B354A43F002031363334BC3
:100FE0001B6B03F002033B613B694FF440737B6171
:100FF0000223BB610023FB6100233B6202237B626F
:1010000007F1140319462A4800F0AAFA47E07B6862
:101010001B68284A93421FD10023FB60234B1B6BA4
:10102000224A43F004031363204B1B6B03F00403B9
:10103000FB60FB684FF470737B610223BB6100238C
:10104000FB6100233B6203237B6207F11403194613
:10105000194800F085FA22E07B681B68174A934222
:101060001DD10023BB60114B1B6B104A43F01003D2
:1010700013630E4B1B6B03F01003BB60BB68602354
:101080007B610223BB610023FB6100233B620323DE
:101090007B6207F114031946094800F061FA00BFAA
:1010A0002837BD4680BD00BF000800400038024020
:1010B00000040240000401400008024000400140DA
:1010C0000010024080B400AFFEE780B400AFFEE73E
:1010D00080B400AFFEE780B400AFFEE780B400AF9D
:1010E000FEE780B400AF00BFBD465DF8047B7047EB
:1010F00080B400AF00BFBD465DF8047B704780B48C
:1011000000AF00BFBD465DF8047B704780B500AFFF
:1011100000F0D0F800BF80BD80B500AF024801F0FC
:101120006DFB00BF80BD00BF6801002080B586B0A8
:1011300000AF7860144A154BD31A7B617B693B6121
:10114000134B1B68002B02D1114B124A1A60104B33
:101150001A687B6813443A699A4207D203F088FA06
:1011600003460C221A604FF0FF3309E0084B1B685E
:10117000FB60074B1A687B681344054A1360FB68E1
:1011800018461837BD4680BD00000220000400004C
:1011900048020020D806002080B400AF064BD3F8E8
:1011A0008830054A43F47003C2F8883000BFBD465A
:1011B0005DF8047B704700BF00ED00E0DFF834D03D
:1011C0000D480E490E4A002302E0D458C45004339F
:1011D000C4188C42F9D30B4A0B4C002301E0136076
:1011E0000432A242FBD3FFF7D7FF03F047FAFFF721
:1011F000C1F97047000002200000002074000020A8
:10120000D069000874000020D8060020FEE7000026
:1012100080B500AF0E4B1B680D4A43F4007313609A
:101220000B4B1B680A4A43F480631360084B1B682E
:10123000074A43F480731360032000F04FF90F2036
:1012400000F008F8FFF77AFD0023184680BD00BFC4
:10125000003C024080B582B000AF7860124B1A6843
:10126000124B1B7819464FF47A73B3FBF1F3B2FBC0
:10127000F3F3184600F067F90346002B01D0012371
:101280000EE07B680F2B0AD8002279684FF0FF3000
:1012900000F02FF9064A7B681360002300E0012369
:1012A00018460837BD4680BD000000200800002019
:1012B0000400002080B400AF064B1B781A46064B92
:1012C0001B681344044A136000BFBD465DF8047BED
:1012D000704700BF080000204C02002080B400AF1F
:1012E000034B1B681846BD465DF8047B704700BF82
:1012F0004C02002080B584B000AF7860FFF7EEFFAD
:10130000B8607B68FB60FB68B3F1FF3F05D00A4B18
:101310001B781A46FB681344FB6000BFFFF7DEFF33
:101320000246BB68D31AFA689A42F7D800BF00BFDA
:101330001037BD4680BD00BF0800002080B485B0D6
:1013400000AF78607B6803F00703FB600C4BDB6841
:10135000BB60BA684FF6FF031340BB60FB681A021C
:10136000BB68134343F0BF6343F40033BB60044ADC
:10137000BB68D36000BF1437BD465DF8047B70477F
:1013800000ED00E080B400AF044BDB681B0A03F003
:1013900007031846BD465DF8047B704700ED00E08A
:1013A00080B483B000AF0346FB7197F90730002B80
:1013B0000BDBFB7903F01F02074997F907305B0944
:1013C000012000FA02F241F8232000BF0C37BD468D
:1013D0005DF8047B704700BF00E100E080B483B09B
:1013E00000AF03463960FB7197F90730002B0ADB29
:1013F0003B68DAB20C4997F907301201D2B20B44BC
:1014000083F800230AE03B68DAB20849FB7903F06D
:101410000F03043B1201D2B20B441A7600BF0C3703
:10142000BD465DF8047B704700E100E000ED00E0A0
:1014300080B489B000AFF860B9607A60FB6803F0EF
:101440000703FB61FB69C3F10703042B28BF0423D7
:10145000BB61FB690433062B02D9FB69033B00E047
:1014600000237B614FF0FF32BB6902FA03F3DA43DA
:10147000BB681A407B699A404FF0FF317B6901FAE3
:1014800003F3D9437B680B40134318462437BD460A
:101490005DF8047B7047000080B582B000AF7860D3
:1014A0007B68013BB3F1807F01D301230FE00A4A3F
:1014B0007B68013B53600F214FF0FF30FFF78EFF39
:1014C000054B00229A60044B07221A60002318463D
:1014D0000837BD4680BD00BF10E000E080B582B097
:1014E00000AF78607868FFF729FF00BF0837BD4676
:1014F00080BD80B586B000AF0346B9607A60FB73EB
:1015000000237B61FFF73EFF78617A68B9687869EC
:10151000FFF78EFF024697F90F3011461846FFF786
:101520005DFF00BF1837BD4680BD80B582B000AFFB
:101530000346FB7197F907301846FFF731FF00BFEC
:101540000837BD4680BD80B582B000AF786078684E
:10155000FFF7A2FF034618460837BD4680BD0000CE
:1015600080B489B000AF7860396000237B610023CC
:101570003B610023BB610023FB616BE10122FB693E
:1015800002FA03F37B613B681B687A6913403B6195
:101590003A697B699A4240F05A813B685B6803F084
:1015A0000303012B05D03B685B6803F00303022BA8
:1015B00030D17B689B68BB61FB695B00032202FA48
:1015C00003F3DB43BA691340BB613B68DA68FB692C
:1015D0005B0002FA03F3BA691343BB617B68BA6923
:1015E0009A607B685B68BB610122FB6902FA03F3C6
:1015F000DB43BA691340BB613B685B681B0903F0BE
:101600000102FB6902FA03F3BA691343BB617B6809
:10161000BA695A603B685B6803F00303032B17D079
:101620007B68DB68BB61FB695B00032202FA03F3A2
:10163000DB43BA691340BB613B689A68FB695B0096
:1016400002FA03F3BA691343BB617B68BA69DA60D3
:101650003B685B6803F00303022B23D1FB69DA08C4
:101660007B68083253F82230BB61FB6903F0070343
:101670009B000F2202FA03F3DB43BA691340BB61FC
:101680003B681A69FB6903F007039B0002FA03F346
:10169000BA691343BB61FB69DA087B680832B96930
:1016A00043F822107B681B68BB61FB695B00032267
:1016B00002FA03F3DB43BA691340BB613B685B6822
:1016C00003F00302FB695B0002FA03F3BA691343F8
:1016D000BB617B68BA691A603B685B6803F440339E
:1016E000002B00F0B4800023FB60604B5B6C5F4A12
:1016F00043F4804353645D4B5B6C03F48043FB60B5
:10170000FB685B4AFB699B08023352F82330BB61DC
:10171000FB6903F003039B000F2202FA03F3DB4390
:10172000BA691340BB617B68524A93422BD07B68F5
:10173000514A934225D07B68504A93421FD07B6820
:101740004F4A934219D07B684E4A934213D07B682C
:101750004D4A93420DD07B684C4A934207D07B6838
:101760004B4A934201D107230EE008230CE00623E5
:101770000AE0052308E0042306E0032304E0022333
:1017800002E0012300E00023FA6902F00302920064
:101790009340BA691343BB613549FB699B08023327
:1017A000BA6941F823203B4B9B68BB613B69DB4333
:1017B000BA691340BB613B685B6803F48013002B7C
:1017C00003D0BA693B691343BB61324ABB6993607A
:1017D000304BDB68BB613B69DB43BA691340BB61DB
:1017E0003B685B6803F40013002B03D0BA693B69C4
:1017F0001343BB61274ABB69D360264B5B68BB615F
:101800003B69DB43BA691340BB613B685B6803F427
:101810000033002B03D0BA693B691343BB611D4AF7
:10182000BB6953601B4B1B68BB613B69DB43BA69F7
:101830001340BB613B685B6803F48033002B03D02B
:10184000BA693B691343BB61124ABB691360FB6908
:101850000133FB61FB690F2B7FF690AE00BF00BF29
:101860002437BD465DF8047B704700BF0038024056
:10187000003801400000024000040240000802401D
:10188000000C024000100240001402400018024008
:10189000001C0240003C014080B483B000AF78607F
:1018A0000B467B8013467B707B78002B03D07A88B5
:1018B0007B689A6103E07B881A047B689A6100BFA9
:1018C0000C37BD465DF8047B7047000080B483B0E0
:1018D00000AF064B01221A60054B1B687B607B68DA
:1018E00000BF0C37BD465DF8047B704720000E42F8
:1018F0000070004080B483B000AF064B00221A6035
:10190000054B1B687B607B6800BF0C37BD465DF8EC
:10191000047B704720000E420070004080B586B006
:1019200000AF78607B68002B01D1012367E27B6800
:101930001B6803F00103002B75D0884B9B6803F0F4
:101940000C03042B0CD0854B9B6803F00C03082B75
:1019500012D1824B5B6803F48003B3F5800F0BD187
:101960007E4B1B6803F40033002B5BD07B685B6805
:10197000002B57D1012342E27B685B68B3F5803FBF
:1019800006D1764B1B68754A43F4803313601DE023
:101990007B685B68B3F5A02F0CD1704B1B686F4A56
:1019A00043F4802313606D4B1B686C4A43F480330F
:1019B00013600BE0694B1B68684A23F480331360A3
:1019C000664B1B68654A23F4802313607B685B6861
:1019D000002B13D0FFF782FC386108E0FFF77EFC94
:1019E00002463B69D31A642B01D9032307E25B4B00
:1019F0001B6803F40033002BF0D014E0FFF76EFCFB
:101A0000386108E0FFF76AFC02463B69D31A642B91
:101A100001D90323F3E1514B1B6803F40033002B7E
:101A2000F0D100E000BF7B681B6803F00203002BCD
:101A300063D04A4B9B6803F00C03002B0BD0474B41
:101A40009B6803F00C03082B1CD1444B5B6803F428
:101A50008003002B16D1414B1B6803F00203002BBF
:101A600005D07B68DB68012B01D00123C7E13B4B2C
:101A70001B6823F0F8027B681B69DB0037491343BE
:101A80000B603AE07B68DB68002B20D0344B0122EE
:101A90001A60FFF723FC386108E0FFF71FFC0246DD
:101AA0003B69D31A022B01D90323A8E12B4B1B68F6
:101AB00003F00203002BF0D0284B1B6823F0F80240
:101AC0007B681B69DB00254913430B6015E0244B41
:101AD00000221A60FFF702FC386108E0FFF7FEFB06
:101AE00002463B69D31A022B01D9032387E11B4B22
:101AF0001B6803F00203002BF0D17B681B6803F026
:101B00000803002B36D07B685B69002B16D0154B81
:101B100001221A60FFF7E2FB386108E0FFF7DEFB05
:101B200002463B69D31A022B01D9032367E10B4B11
:101B30005B6F03F00203002BF0D01BE0094B002287
:101B40001A60FFF7CBFB38610EE0FFF7C7FB0246D8
:101B50003B69D31A022B07D9032350E10038024016
:101B600000004742800E4742884B5B6F03F0020340
:101B7000002BEAD17B681B6803F00403002B00F004
:101B800097800023FB75814B1B6C03F08053002B67
:101B90000FD10023BB607D4B1B6C7C4A43F080530C
:101BA00013647A4B1B6C03F08053BB60BB6801234A
:101BB000FB75774B1B6803F48073002B18D1744BB3
:101BC0001B68734A43F480731360FFF787FB386127
:101BD00008E0FFF783FB02463B69D31A022B01D9C9
:101BE00003230CE16A4B1B6803F48073002BF0D0D5
:101BF0007B689B68012B06D1644B1B6F634A43F0E3
:101C0000010313671CE07B689B68052B0CD15F4BBD
:101C10001B6F5E4A43F0040313675C4B1B6F5B4A08
:101C200043F0010313670BE0584B1B6F574A23F037
:101C300001031367554B1B6F544A23F004031367CA
:101C40007B689B68002B15D0FFF748FB38610AE0E2
:101C5000FFF744FB02463B69D31A41F288329342B4
:101C600001D90323CBE0494B1B6F03F00203002B88
:101C7000EED014E0FFF732FB38610AE0FFF72EFBED
:101C800002463B69D31A41F28832934201D90323B9
:101C9000B5E03E4B1B6F03F00203002BEED1FB7D42
:101CA000012B05D1394B1B6C384A23F08053136448
:101CB0007B689B69002B00F0A180344B9B6803F08C
:101CC0000C03082B5CD07B689B69022B41D1314B04
:101CD00000221A60FFF702FB386108E0FFF7FEFA06
:101CE00002463B69D31A022B01D9032387E0274B15
:101CF0001B6803F00073002BF0D17B68DA697B6806
:101D00001B6A1A437B685B6A9B011A437B689B6A68
:101D10005B08013B1B041A437B68DB6A1B061B49FB
:101D200013434B601B4B01221A60FFF7D7FA38614F
:101D300008E0FFF7D3FA02463B69D31A022B01D918
:101D400003235CE0114B1B6803F00073002BF0D001
:101D500054E0104B00221A60FFF7C0FA386108E027
:101D6000FFF7BCFA02463B69D31A022B01D90323C1
:101D700045E0064B1B6803F00073002BF0D13DE0FB
:101D80007B689B69012B07D1012338E000380240B2
:101D900000700040600047421B4B5B68FB607B6843
:101DA0009B69012B28D0FB6803F480027B68DB6908
:101DB0009A4221D1FB6803F03F027B681B6A9A427A
:101DC0001AD1FA6847F6C07313407A68526A9201D2
:101DD000934211D1FB6803F440327B689B6A5B0835
:101DE000013B1B049A4207D1FB6803F070627B68D9
:101DF000DB6A1B069A4201D0012300E0002318464B
:101E00001837BD4680BD00BF0038024080B584B0A1
:101E100000AF786039607B68002B01D10123CCE0F2
:101E2000684B1B6803F007033A689A420CD9654B6C
:101E30003A68D2B21A70634B1B6803F007033A6822
:101E40009A4201D00123B8E07B681B6803F00203CB
:101E5000002B20D07B681B6803F00403002B05D007
:101E6000594B9B68584A43F4E05393607B681B6866
:101E700003F00803002B05D0534B9B68524A43F4F0
:101E800060439360504B9B6823F0F0027B689B6833
:101E90004D4913438B607B681B6803F00103002BE3
:101EA00044D07B685B68012B07D1474B1B6803F468
:101EB0000033002B19D101237FE07B685B68022B84
:101EC00003D07B685B68032B07D13F4B1B6803F093
:101ED0000073002B09D101236FE03B4B1B6803F01B
:101EE0000203002B01D1012367E0374B9B6823F0ED
:101EF00003027B685B68344913438B60FFF7EEF99C
:101F0000F8600AE0FFF7EAF90246FB68D31A41F2EB
:101F10008832934201D903234FE02B4B9B6803F097
:101F20000C027B685B689B009A42EBD1254B1B68D7
:101F300003F007033A689A420CD2224B3A68D2B2B5
:101F40001A70204B1B6803F007033A689A4201D0CD
:101F5000012332E07B681B6803F00403002B08D0E8
:101F6000194B9B6823F4E0527B68DB6816491343E6
:101F70008B607B681B6803F00803002B09D0124BB1
:101F80009B6823F460427B681B69DB000E491343A6
:101F90008B6000F021F802460B4B9B681B0903F095
:101FA0000F030A49CB5C22FA03F3094A1360094B79
:101FB0001B681846FFF74EF9002318461037BD4638
:101FC00080BD00BF003C024000380240485B000872
:101FD00000000020040000202DE9B04F94B000AFB5
:101FE00000237B640023FB6400233B640023BB6469
:101FF000794B9B6803F00C03082B0DD0082B00F2E3
:10200000E180002B02D0042B03D0DBE0734BBB64D8
:10201000DBE0734BBB64D8E06F4B5B6803F03F03BE
:102020007B646D4B5B6803F48003002B63D06A4BC9
:102030005B689B090022BB63FA63BB6BC3F30803B5
:102040003B6300237B63D7E90C4522462B464FF0C8
:1020500000004FF00001590141EAD26150010246EF
:102060000B462146511A3961294663EB01037B6116
:102070004FF000024FF00003D7E904AB59468B0143
:10208000514643EA916351468A015146B2EB010839
:10209000594663EB01094FF000024FF000034FEA8D
:1020A000C90343EA58734FEAC8029046994623464B
:1020B00018EB0303BB602B4649EB0303FB604FF0B7
:1020C00000024FF00003D7E9024529464B022146A2
:1020D00043EAD15321464A02104619467B6C00223E
:1020E000BB62FA62D7E90A23FEF7C2F802460B4642
:1020F0001346FB6458E0384B5B689B090022184686
:102100001146C0F308033B6200237B62D7E90889CC
:1021100042464B464FF000004FF00001590141EAA2
:10212000D261500102460B464146B2EB010A4946D4
:1021300063EB010B4FF000024FF000034FEA8B13EB
:1021400043EA9A634FEA8A12B2EB0A0463EB0B0587
:102150004FF000024FF00003EB0043EA5473E2003B
:1021600014461D464346E3183B604B4645EB0303CC
:102170007B604FF000024FF00003D7E9004529468D
:102180008B02214643EA915321468A0210461946A2
:102190007B6C0022BB61FA61D7E90623FEF768F881
:1021A00002460B461346FB640B4B5B681B0C03F0AB
:1021B000030301335B003B64FA6C3B6CB2FBF3F34B
:1021C000BB6402E0054BBB6400BFBB6C18465037D4
:1021D000BD46BDE8B08F00BF003802400024F400C7
:1021E00000127A0080B582B000AF78607B68002B67
:1021F00001D1012341E07B6893F83D30DBB2002B35
:1022000006D17B68002283F83C207868FEF7A6FEA2
:102210007B68022283F83D207B681A687B68043360
:102220001946104600F0DCFC7B68012283F846204A
:102230007B68012283F83E207B68012283F83F20DF
:102240007B68012283F840207B68012283F84120CB
:102250007B68012283F842207B68012283F84320B7
:102260007B68012283F844207B68012283F84520A3
:102270007B68012283F83D20002318460837BD46BD
:1022800080BD000080B485B000AF78607B6893F8B3
:102290003D30DBB2012B01D001234EE07B680222EE
:1022A00083F83D207B681B68DA687B681B6842F016
:1022B0000102DA607B681B68234A934222D07B6864
:1022C0001B68B3F1804F1DD07B681B681F4A934287
:1022D00018D07B681B681E4A934213D07B681B682A
:1022E0001C4A93420ED07B681B681B4A934209D05C
:1022F0007B681B68194A934204D07B681B68184AA4
:10230000934211D17B681B689B6803F00703FB6055
:10231000FB68062B10D07B681B681A687B681B68FB
:1023200042F001021A6007E07B681B681A687B684C
:102330001B6842F001021A60002318461437BD469C
:102340005DF8047B704700BF0000014000040040BE
:1023500000080040000C0040000401400040014023
:102360000018004080B582B000AF78607B68002B19
:1023700001D1012341E07B6893F83D30DBB2002BB3
:1023800006D17B68002283F83C207868FEF798FD30
:102390007B68022283F83D207B681A687B680433DF
:1023A0001946104600F01CFC7B68012283F8462089
:1023B0007B68012283F83E207B68012283F83F205E
:1023C0007B68012283F840207B68012283F841204A
:1023D0007B68012283F842207B68012283F8432036
:1023E0007B68012283F844207B68012283F8452022
:1023F0007B68012283F83D20002318460837BD463C
:1024000080BD000080B584B000AF786039603B6863
:10241000002B09D17B6893F83E30DBB2012B14BF4F
:1024200001230023DBB222E03B68042B09D17B6847
:1024300093F83F30DBB2012B14BF01230023DBB242
:1024400015E03B68082B09D17B6893F84030DBB27C
:10245000012B14BF01230023DBB208E07B6893F853
:102460004130DBB2012B14BF01230023DBB2002B70
:1024700001D001237CE03B68002B04D17B68022261
:1024800083F83E2013E03B68042B04D17B680222D2
:1024900083F83F200BE03B68082B04D17B680222C5
:1024A00083F8402003E07B68022283F841207B68A8
:1024B0001B6801223968184600F0E2FD7B681B6842
:1024C0002D4A934204D07B681B682C4A934201D169
:1024D000012300E00023002B07D07B681B685A6CA7
:1024E0007B681B6842F400425A647B681B68224A7E
:1024F000934222D07B681B68B3F1804F1DD07B686C
:102500001B681F4A934218D07B681B681D4A934280
:1025100013D07B681B681C4A93420ED07B681B68F3
:10252000164A934209D07B681B68184A934204D02C
:102530007B681B68164A934211D17B681B689B68B5
:1025400003F00703FB60FB68062B10D07B681B6859
:102550001A687B681B6842F001021A6007E07B681A
:102560001B681A687B681B6842F001021A6000232E
:1025700018461037BD4680BD0000014000040140F0
:102580000004004000080040000C004000400140F2
:102590000018004080B586B000AF786039607B6875
:1025A000002B01D1012397E07B6893F83D30DBB22B
:1025B000002B06D17B68002283F83C207868FEF768
:1025C000E5FB7B68022283F83D207B681B689B68E3
:1025D0007A68126823F4804323F0070393607B68D2
:1025E0001A687B6804331946104600F0F9FA7B68D4
:1025F0001B689B687B617B681B689B693B617B6890
:102600001B681B6AFB603B681B687A6913437B612C
:102610003B6923F4407323F003033B613B689A68F2
:102620003B689B691B0213433A6913433B613B6957
:1026300023F4406323F00C033B613B6923F47043B4
:1026400023F0F0033B613B68DA683B68DB691B02FF
:1026500013433A6913433B613B681B691A013B68AA
:102660001B6A1B0313433A6913433B61FB6823F066
:102670002203FB60FB6823F08803FB603B685A6819
:102680003B685B691B011343FA681343FB607B687B
:102690001B687A699A607B681B683A699A617B68F3
:1026A0001B68FA681A627B68012283F846207B68FF
:1026B000012283F83E207B68012283F83F207B685B
:1026C000012283F842207B68012283F843207B6843
:1026D000012283F83D20002318461837BD4680BDEF
:1026E00080B584B000AF786039607B6893F83E3085
:1026F000FB737B6893F83F30BB737B6893F8423081
:102700007B737B6893F843303B733B68002B10D19D
:10271000FB7B012B02D17B7B012B01D0012369E0E4
:102720007B68022283F83E207B68022283F84220E5
:1027300031E03B68042B10D1BB7B012B02D13B7BEA
:10274000012B01D0012355E07B68022283F83F2052
:102750007B68022283F843201DE0FB7B012B08D11C
:10276000BB7B012B05D17B7B012B02D13B7B012B5A
:1027700001D001233EE07B68022283F83E207B6883
:10278000022283F83F207B68022283F842207B6884
:10279000022283F843203B68002B03D03B68042BC4
:1027A00008D00FE07B681B6801220021184600F06A
:1027B00067FC16E07B681B6801220421184600F0C4
:1027C0005FFC0EE07B681B6801220021184600F0C8
:1027D00057FC7B681B6801220421184600F050FC5E
:1027E00000BF7B681B681A687B681B6842F00102A7
:1027F0001A60002318461037BD4680BD80B582B0F0
:1028000000AF78607B681B681B6903F00203022B32
:1028100022D17B681B68DB6803F00203022B1BD10B
:102820007B681B686FF002021A617B6801221A77CD
:102830007B681B689B6903F00303002B03D0786857
:1028400000F0B0F905E0786800F0A2F9786800F0CF
:10285000B3F97B6800221A777B681B681B6903F059
:102860000403042B22D17B681B68DB6803F004039C
:10287000042B1BD17B681B686FF004021A617B6814
:1028800002221A777B681B689B6903F44073002B54
:1028900003D0786800F086F905E0786800F078F9F0
:1028A000786800F089F97B6800221A777B681B68DA
:1028B0001B6903F00803082B22D17B681B68DB68C7
:1028C00003F00803082B1BD17B681B686FF008021C
:1028D0001A617B6804221A777B681B68DB6903F046
:1028E0000303002B03D0786800F05CF905E07868FA
:1028F00000F04EF9786800F05FF97B6800221A77E3
:102900007B681B681B6903F01003102B22D17B68C6
:102910001B68DB6803F01003102B1BD17B681B685E
:102920006FF010021A617B6808221A777B681B68B7
:10293000DB6903F44073002B03D0786800F032F9B0
:1029400005E0786800F024F9786800F035F97B68D4
:1029500000221A777B681B681B6903F00103012BB7
:102960000ED17B681B68DB6803F00103012B07D1E4
:102970007B681B686FF001021A617868FEF7C2F984
:102980007B681B681B6903F08003802B0ED17B687A
:102990001B68DB6803F08003802B07D17B681B6812
:1029A0006FF080021A61786800F068FC7B681B6831
:1029B0001B6903F04003402B0ED17B681B68DB686A
:1029C00003F04003402B07D17B681B686FF0400287
:1029D0001A61786800F0FAF87B681B681B6903F0DD
:1029E0002003202B0ED17B681B68DB6803F02003DB
:1029F000202B07D17B681B686FF020021A61786872
:102A000000F032FC00BF0837BD4680BD80B586B0FF
:102A100000AFF860B9607A600023FB75FB6893F83B
:102A20003C30012B01D10223AEE0FB68012283F888
:102A30003C207B680C2B00F29F8001A252F823F00F
:102A4000752A0008792B0008792B0008792B0008DB
:102A5000B52A0008792B0008792B0008792B00088B
:102A6000F72A0008792B0008792B0008792B000839
:102A7000372B0008FB681B68B968184600F050F94E
:102A8000FB681B689A69FB681B6842F008029A6140
:102A9000FB681B689A69FB681B6822F004029A6154
:102AA000FB681B689969BB681A69FB681B680A4365
:102AB0009A6164E0FB681B68B968184600F0A0F9E9
:102AC000FB681B689A69FB681B6842F400629A61A4
:102AD000FB681B689A69FB681B6822F480629A6134
:102AE000FB681B689969BB681B691A02FB681B6855
:102AF0000A439A6143E0FB681B68B968184600F016
:102B0000F5F9FB681B68DA69FB681B6842F008028C
:102B1000DA61FB681B68DA69FB681B6822F0040253
:102B2000DA61FB681B68D969BB681A69FB681B68B6
:102B30000A43DA6123E0FB681B68B968184600F0B5
:102B400049FAFB681B68DA69FB681B6842F400629B
:102B5000DA61FB681B68DA69FB681B6822F4806233
:102B6000DA61FB681B68D969BB681B691A02FB68DC
:102B70001B680A43DA6102E00123FB7500BFFB68B2
:102B8000002283F83C20FB7D18461837BD4680BDE7
:102B900080B483B000AF786000BF0C37BD465DF8ED
:102BA000047B704780B483B000AF786000BF0C37FF
:102BB000BD465DF8047B704780B483B000AF786099
:102BC00000BF0C37BD465DF8047B704780B483B00E
:102BD00000AF786000BF0C37BD465DF8047B7047DE
:102BE00080B485B000AF786039607B681B68FB609B
:102BF0007B68404A934213D07B68B3F1804F0FD07B
:102C00007B683D4A93420BD07B683C4A934207D095
:102C10007B683B4A934203D07B683A4A934208D18F
:102C2000FB6823F07003FB603B685B68FA68134342
:102C3000FB607B682F4A93422BD07B68B3F1804FB7
:102C400027D07B682C4A934223D07B682B4A93423F
:102C50001FD07B682A4A93421BD07B68294A934243
:102C600017D07B68284A934213D07B68274A934247
:102C70000FD07B68264A93420BD07B68254A93424B
:102C800007D07B68244A934203D07B68234A93424F
:102C900008D1FB6823F44073FB603B68DB68FA688B
:102CA0001343FB60FB6823F080023B685B691343BE
:102CB000FB607B68FA681A603B689A687B68DA6236
:102CC0003B681A687B689A627B680A4A934203D021
:102CD0007B680C4A934203D13B681A697B681A638C
:102CE0007B6801225A6100BF1437BD465DF8047B42
:102CF000704700BF00000140000400400008004091
:102D0000000C00400004014000400140004401402C
:102D10000048014000180040001C00400020004016
:102D200080B487B000AF786039607B681B6A23F09D
:102D300001027B681A627B681B6A7B617B685B6847
:102D40003B617B689B69FB60FB6823F07003FB6061
:102D5000FB6823F00303FB603B681B68FA681343BE
:102D6000FB607B6923F002037B613B689B687A69A7
:102D700013437B617B68204A934203D07B681F4AE0
:102D800093420CD17B6923F008037B613B68DB68CD
:102D90007A6913437B617B6923F004037B617B6861
:102DA000154A934203D07B68144A934211D13B6980
:102DB00023F480733B613B6923F400733B613B6800
:102DC0005B693A6913433B613B689B693A6913430A
:102DD0003B617B683A695A607B68FA689A613B6834
:102DE0005A687B685A637B687A691A6200BF1C372D
:102DF000BD465DF8047B70470000014000040140BF
:102E000080B487B000AF786039607B681B6A23F0BC
:102E100010027B681A627B681B6A7B617B685B6857
:102E20003B617B689B69FB60FB6823F4E043FB60CC
:102E3000FB6823F44073FB603B681B681B02FA6865
:102E40001343FB607B6923F020037B613B689B6835
:102E50001B017A6913437B617B68224A934203D04A
:102E60007B68214A93420DD17B6923F080037B610B
:102E70003B68DB681B017A6913437B617B6923F044
:102E800040037B617B68174A934203D07B68164AF4
:102E9000934213D13B6923F480633B613B6923F484
:102EA00000633B613B685B699B003A6913433B618C
:102EB0003B689B699B003A6913433B617B683A69B5
:102EC0005A607B68FA689A613B685A687B689A63C3
:102ED0007B687A691A6200BF1C37BD465DF8047BC7
:102EE000704700BF000001400004014080B487B07B
:102EF00000AF786039607B681B6A23F480727B685E
:102F00001A627B681B6A7B617B685B683B617B68DC
:102F1000DB69FB60FB6823F07003FB60FB6823F058
:102F20000303FB603B681B68FA681343FB607B6923
:102F300023F400737B613B689B681B027A6913432F
:102F40007B617B68214A934203D07B68204A93428D
:102F50000DD17B6923F400637B613B68DB681B0256
:102F60007A6913437B617B6923F480637B617B68AF
:102F7000164A934203D07B68154A934213D13B69AA
:102F800023F480533B613B6923F400533B613B686E
:102F90005B691B013A6913433B613B689B691B01F9
:102FA0003A6913433B617B683A695A607B68FA6807
:102FB000DA613B685A687B68DA637B687A691A620F
:102FC00000BF1C37BD465DF8047B70470000014020
:102FD0000004014080B487B000AF786039607B683E
:102FE0001B6A23F480527B681A627B681B6A3B6110
:102FF0007B685B687B617B68DB69FB60FB6823F453
:10300000E043FB60FB6823F44073FB603B681B6894
:103010001B02FA681343FB603B6923F400533B61D6
:103020003B689B681B033A6913433B617B68124A08
:10303000934203D07B68114A934209D17B6923F400
:1030400080437B613B685B699B017A6913437B61C9
:103050007B687A695A607B68FA68DA613B685A680B
:103060007B681A647B683A691A6200BF1C37BD46E8
:103070005DF8047B704700BF000001400004014080
:1030800080B487B000AFF860B9607A60BB6803F0C5
:103090001F03012202FA03F37B61FB681A6A7B6952
:1030A000DB431A40FB681A62FB681A6ABB6803F0CC
:1030B0001F03796801FA03F31A43FB681A6200BF21
:1030C0001C37BD465DF8047B7047000080B485B0B6
:1030D00000AF786039607B6893F83C30012B01D1F8
:1030E00002235AE07B68012283F83C207B6802229D
:1030F00083F83D207B681B685B68FB607B681B680E
:103100009B68BB60FB6823F07003FB603B681B6837
:10311000FA681343FB607B681B68FA685A607B6837
:103120001B68214A934222D07B681B68B3F1804F11
:103130001DD07B681B681D4A934218D07B681B68B2
:103140001B4A934213D07B681B681A4A93420ED0E5
:103150007B681B68184A934209D07B681B68174A32
:10316000934204D07B681B68154A93420CD1BB681C
:1031700023F08003BB603B685B68BA681343BB60A5
:103180007B681B68BA689A607B68012283F83D20DF
:103190007B68002283F83C20002318461437BD4684
:1031A0005DF8047B704700BF000001400004004050
:1031B00000080040000C00400004014000400140B5
:1031C0000018004080B485B000AF786039600023FB
:1031D000FB607B6893F83C30012B01D102233DE07A
:1031E0007B68012283F83C20FB6823F0FF023B68E8
:1031F000DB681343FB60FB6823F440723B689B6809
:103200001343FB60FB6823F480623B685B681343F5
:10321000FB60FB6823F400623B681B681343FB60A0
:10322000FB6823F480523B681B691343FB60FB6817
:1032300023F400523B685B691343FB60FB6823F493
:1032400080423B68DB691343FB607B681B68FA685C
:103250005A647B68002283F83C2000231846143708
:10326000BD465DF8047B704780B483B000AF7860E2
:1032700000BF0C37BD465DF8047B704780B483B057
:1032800000AF786000BF0C37BD465DF8047B704727
:1032900080B500AF3C211548FFF722FA3C211448C5
:1032A000FFF71EFA114B1B6800225A62104B1B6875
:1032B00000225A620F4B00221A800F4B00221A8004
:1032C0000E4B00221A600E4B00221A600D4B00229A
:1032D0001A800D4B00221A80FEF700F803460B4AB5
:1032E00013600B4B14221A6000BF80BD90000020B9
:1032F000D80000205C0200205E0200205002002066
:1033000054020020580200205A02002060020020CF
:103310000C00002080B584B000AFFDF7DFFFF8603F
:10332000224B1B68FA68D31ABB60BB68132B38D9D1
:103330001F4B1B685B6AFB801E4B1B685B6ABB8074
:103340001D4B1B88FA88D31A9BB27B801B4B1B88B2
:10335000BA88D31A9BB23B80174AFB881380174A5E
:10336000BB8813803B885B429BB23B80144A7B88BE
:103370001380144A3B881380B7F90220124B1B6854
:103380001344114A1360B7F90020104B1B68134413
:103390000E4A13600E4ABB681360044AFB68136050
:1033A00000E000BF1037BD4680BD00BF60020020B6
:1033B00090000020D80000205C0200205E02002067
:1033C000580200205A02002050020020540200201F
:1033D0000C00002080B400AF034B1B681846BD46AC
:1033E0005DF8047B704700BF5002002080B400AF3E
:1033F000034B1B681846BD465DF8047B704700BF51
:103400005402002080B485B000AF03463960FB80D1
:103410003B68002B01D1002313E03B684FF4C362EB
:1034200002FB03F3FB60FB68002B01D1002308E0E3
:10343000B7F906304EF6602203FB02F2FB6892FBFE
:10344000F3F318461437BD465DF8047B704700005F
:1034500080B500AF054BB3F90030054A126811463C
:103460001846FFF7CFFF0346184680BD58020020DC
:103470000C00002080B500AF054BB3F90030054AC1
:10348000126811461846FFF7BDFF0346184680BD77
:103490005A0200200C00002080B485B000AF034623
:1034A000FB80B7F90630002BB8BF5B429BB2FB60D4
:1034B000FB68B3F57A7F02DD4FF47A73FB60FB683B
:1034C00041F2670202FB03F3054A82FB03129211E9
:1034D000DB17D31A18461437BD465DF8047B7047D6
:1034E000D34D621080B586B000AFF860B9607A60E5
:1034F0007B80B7F902301846FFF7CEFF7861B7F945
:103500000230002B38DDBB68002B04D1FB681B6840
:103510007A695A6313E0BB68042B04D1FB681A680C
:103520007B6993630BE0BB68082B04D1FB681A68C6
:103530007B69D36303E0FB681A687B6913647B686B
:10354000002B04D1FB681B6800225A638AE07B6869
:10355000042B04D1FB681A680023936382E07B6824
:10356000082B04D1FB681A680023D3637AE0FB6858
:103570001A680023136475E0B7F90230002B38DABB
:10358000BB68002B04D1FB681B6800225A6313E060
:10359000BB68042B04D1FB681A68002393630BE01B
:1035A000BB68082B04D1FB681A680023D36303E0CF
:1035B000FB681A68002313647B68002B04D1FB6846
:1035C0001B687A695A634DE07B68042B04D1FB6861
:1035D0001A687B69936345E07B68082B04D1FB681C
:1035E0001A687B69D3633DE0FB681A687B691364E2
:1035F00038E0BB68002B04D1FB681B6800225A63CB
:1036000013E0BB68042B04D1FB681A6800239363A2
:103610000BE0BB68082B04D1FB681A680023D36356
:1036200003E0FB681A68002313647B68002B04D155
:10363000FB681B6800225A6314E07B68042B04D1EA
:10364000FB681A68002393630CE07B68082B04D1A5
:10365000FB681A680023D36304E0FB681A68002340
:103660001364FFE700BF1837BD4680BD80B500AFCB
:10367000104B1B680022DA630E4B1B6800221A6491
:103680000D4B1B6800225A630B4B1B6800229A6388
:1036900008210848FEF7B6FE0C210648FEF7B2FEE8
:1036A00000210548FEF7AEFE04210348FEF7AAFEFE
:1036B00000BF80BD20010020F801002080B582B04D
:1036C00000AF0346FB80FB885B429BB2FB80B7F9EF
:1036D00006300C2208210348FFF704FF00BF08371B
:1036E000BD4680BD2001002080B582B000AF0346FA
:1036F000FB80FB885B429BB2FB80B7F9063004225B
:1037000000210348FFF7EEFE00BF0837BD4680BD2D
:10371000F801002080B500AF124B1B6840F2DC526C
:103720005A63104B1B6840F2DC529A630D4B1B68C6
:1037300040F2DC52DA630B4B1B6840F2DC521A6435
:1037400000210848FEF75EFE04210648FEF75AFEF7
:1037500008210448FEF756FE0C210248FEF752FEEF
:1037600000BF80BDB001002080B483B000AF87ED02
:10377000010A07E0D7ED017A9FED157A77EEC77A57
:10378000C7ED017AD7ED017A9FED127AF4EEC77A90
:10379000F1EE10FAEEDC07E0D7ED017A9FED0C7A3E
:1037A00077EE877AC7ED017AD7ED017A9FED0A7A35
:1037B000F4EEC77AF1EE10FAEED47B6807EE903A99
:1037C000B0EE670A0C37BD465DF8047B704700BF5A
:1037D0000000B44300003443000034C380B485B01B
:1037E00000AF87ED030AC7ED020A87ED011A97EDD6
:1037F000037AD7ED027AB4EEE77AF1EE10FA01D54A
:10380000BB680BE097ED037AD7ED017AB4EEE77A67
:10381000F1EE10FA01DD7B6800E0FB6807EE903AFC
:10382000B0EE670A1437BD465DF8047B70470000B0
:1038300080B500AFFFF7CEFD03460A4A1360FFF7DD
:10384000D5FD0346084A1360084B00221A70084B46
:1038500000221A80074B4FF000021A6000F00CF8AB
:1038600000BF80BD74020020780200207C0200208E
:103870007E0200208402002080B400AF0A4B4FF08B
:1038800000021A60084B4FF000025A60064B4FF0DE
:1038900000029A60044B4FF00002DA6000BFBD46A0
:1038A0005DF8047B704700BF6402002080B52DEDF9
:1038B000028B88B000AFFFF78DFDF861FFF796FD32
:1038C000B861754B1B68FA69D31A07EE903AF8EEA7
:1038D000E77A9FED727A67EE877AC7ED057A704BCB
:1038E0001B68BA69D31A07EE903AF8EEE77A9FEDB3
:1038F0006B7A67EE877AC7ED047A674AFB691360D3
:10390000674ABB69136097ED057AD7ED047A77EEC5
:10391000277AB6EE007A67EE877AC7ED037A97EDDD
:10392000057AD7ED047A37EE677ADFED5E6AC7EE87
:10393000267A9FED5D7A67EE877AC7ED027A5B4B58
:1039400093ED027AD7ED027AF6EE006A67EEA67A78
:1039500077EE277A9FED567A67EE877AC7ED017A80
:10396000524B93ED008A97ED010A01F035FBB0EE62
:10397000407AD7ED037A67EE277A78EE277A4B4BB9
:10398000C3ED007A494B93ED018A97ED010A01F0EE
:1039900067FBB0EE407AD7ED037A67EE277A78EED0
:1039A000277A424BC3ED017A404B93ED027AD7ED73
:1039B000027A77EE277AB0EE670AFFF7D5FEF0EECF
:1039C000407A3A4BC3ED027A384B93ED037AD7ED48
:1039D000037AF5EEC07AF1EE10FA04D5D7ED037A4A
:1039E000F1EE677A01E0D7ED037A77EE877A2F4B15
:1039F000C3ED037A2F4B1B78002B46D02E4B93ED53
:103A0000007A2A4BD3ED027A77EE677AB0EE670A36
:103A1000FFF7AAFE87ED000AD7ED007AB6EE007A2E
:103A200067EE877A9FED251ADFED250AB0EE670A6B
:103A3000FFF7D4FEF0EE407A224BC3ED007A224B22
:103A4000B3F9003007EE903AB8EEE77A1D4BD3EDAC
:103A5000007A77EE277AFDEEE77A17EE903A1BB2FE
:103A6000194AB2F9002007EE902AB8EEE77A154A13
:103A7000D2ED007A77EE677AFDEEE77A17EE902ABC
:103A800012B21146184600F07DFD00BF2037BD463A
:103A9000BDEC028B80BD00BF74020020B2F2023E7A
:103AA000780200200000FE42E02E65426402002001
:103AB00035FA8E3C7C02002080020020000020426B
:103AC000000020C2840200207E02002080B400AFEB
:103AD000044B9B6807EE903AB0EE670ABD465DF86E
:103AE000047B70476402002080B400AF044B1B6865
:103AF00007EE903AB0EE670ABD465DF8047B70476A
:103B00008402002080B582B000AF0346FB80074BE3
:103B1000D3ED027AB7F90630B0EE670A184600F026
:103B200007F800BF0837BD4680BD00BF6402002013
:103B300080B582B000AF034687ED000AFB8097EDA9
:103B4000000AFFF711FEF0EE407A084BC3ED007A51
:103B5000074AFB881380074B4FF000021A60064BA0
:103B600001221A7000BF0837BD4680BD80020020C8
:103B70007E020020840200207C02002080B500AF7D
:103B8000054B00221A70054B4FF000021A6000F03E
:103B90000FFD00BF80BD00BF7C020020840200201A
:103BA00080B582B000AF0023FB7126E0FB79503B6B
:103BB000DBB20021184600F02BF80021002000F0B5
:103BC00027F80021102000F023F80023BB710DE03E
:103BD000BA79FB790D49D2000A4413441B780121BC
:103BE000184600F015F8BB790133BB7197F9063020
:103BF000002BEDDAFB790133FB71FB79072BD5D96B
:103C000000BF00BF0837BD4680BD00BF880200204E
:103C100080B584B000AF03460A46FB711346BB7102
:103C2000BB79002B06D001224FF400611E48FDF73E
:103C300033FE05E000224FF400611B48FDF72CFE27
:103C40000023FB7322E000224FF480411648FDF769
:103C500023FE97F90730002B06DA01224FF40051BA
:103C60001148FDF719FE05E000224FF400510E48FF
:103C7000FDF712FE01224FF480410B48FDF70CFEC8
:103C8000FB795B00FB71FB7B0133FB73FB7B072B39
:103C9000D9D901224FF400610348FDF7FDFD00BFB3
:103CA0001037BD4680BD00BF000C024080B582B019
:103CB00000AF0023FB7114E00023BB710AE0BA7966
:103CC000FB790C49D2000A44134400221A70BB79D4
:103CD0000133BB7197F90630002BF0DAFB79013321
:103CE000FB71FB79072BE7D9FFF75AFF00BF0837B5
:103CF000BD4680BD8802002080B485B000AF034679
:103D0000FB710B46BB7113467B710023FB7397F964
:103D10000730002B41DBBB793F2B3ED8BB79DB085A
:103D2000DBB2C3F10703BB73BB7903F007037B73FB
:103D30007B7BC3F10703012202FA03F3FB737B7958
:103D4000002B12D0FA79BB7B1749D2000A441344E6
:103D50001878FA79BB7BF97B0143C8B21249D200CB
:103D60000A44134402461A7018E0FA79BB7B0E49E4
:103D7000D2000A4413441B785AB297F90F30DB4340
:103D80005BB2134059B2FA79BB7BC8B20649D20084
:103D90000A44134402461A7000E000BF1437BD46BF
:103DA0005DF8047B704700BF8802002090B585B0A5
:103DB00000AF0446084611461A462346FB710346E7
:103DC000BB710B467B7113463B71BB793B737B79AF
:103DD000203B7B710023BB734DE03B790C2B0BD157
:103DE0007A79B97B284813465B0013449B0003444F
:103DF0000B441B78FB7307E07A79BB7B23491201E4
:103E00000A4413441B78FB7300237B732DE097F95E
:103E10000F30002B07DA97F82020B979FB79184684
:103E2000FFF76AFF0CE097F82030002B0CBF01234E
:103E30000023DBB21A46B979FB791846FFF75CFF1D
:103E4000FB7B5B00FB73BB790133BB71BA793B7BB6
:103E5000D21A3B799A4205D13B7BBB71FB79013386
:103E6000FB7105E07B7B01337B737B7B072BCED91A
:103E7000BB7B0133BB73BA7B3B799A42ADD300BFA6
:103E800000BF1437BD4690BD585B0008CC5F0008EA
:103E900080B584B002AF03463A60FB710B46BB713C
:103EA0001FE0FB797A2B04D90023FB71BB79103317
:103EB000BB71BB793A2B05D90023FB71FB79BB7130
:103EC000FFF7F4FE3B681A78B979F879012300937B
:103ED0000C23FFF76BFFFB790833FB713B68013361
:103EE0003B603B681B78002BDBD100BF00BF08376D
:103EF000BD4680BD80B500AFFDF7E8FC424B1B6FAF
:103F0000414A23F0010313673F4B1B6F3E4A23F0E6
:103F100004031367FDF7EEFC00224FF480513B4889
:103F2000FDF7BAFC6420FDF7E5F901224FF480515A
:103F30003648FDF7B1FC0021AE20FFF769FE0021F5
:103F4000D520FFF765FE00215020FFF761FE00211C
:103F5000A820FFF75DFE00213F20FFF759FE00215A
:103F6000D320FFF755FE00210020FFF751FE00216E
:103F70004020FFF74DFE00218D20FFF749FE002174
:103F80001420FFF745FE00212020FFF741FE00210D
:103F90000220FFF73DFE0021A120FFF739FE00219E
:103FA000C020FFF735FE0021DA20FFF731FE0021A7
:103FB0001220FFF72DFE00218120FFF729FE0021AE
:103FC000EF20FFF725FE0021D920FFF721FE002179
:103FD000F120FFF71DFE0021DB20FFF719FE002175
:103FE0003020FFF715FE0021A420FFF711FE00216D
:103FF000A620FFF70DFE0021AF20FFF709FEFFF717
:1040000055FE00BF80BD00BF00380240000C0240DA
:1040100080B485B000AF87ED030AC7ED020A87EDD3
:10402000011A97ED037AD7ED027AB4EEE77AF1EE52
:1040300010FA01D5BB680BE097ED037AD7ED017A52
:10404000B4EEE77AF1EE10FA01DD7B6800E0FB6880
:1040500007EE903AB0EE670A1437BD465DF8047B70
:104060007047000080B485B000AF87ED010A0346B9
:104070007B80D7ED017AF5EEC07AF1EE10FA04D527
:10408000D7ED017AF1EE677A01E0D7ED017AC7ED5D
:10409000037AD7ED037AB7EE007AF4EEC77AF1EE41
:1040A00010FA03D4B7F90230002B02DCDFED0E7AF0
:1040B00013E00E4BBB60B7F9023007EE903AF8EE12
:1040C000E77AD7ED036A86EEA77AD7ED027A67EE34
:1040D000277A9FED077A77EE877AB0EE670A143772
:1040E000BD465DF8047B7047000000000000C84337
:1040F0000000164480B485B000AF87ED010AD7ED0B
:10410000017AF5EEC07AF1EE10FA04D5D7ED017A16
:10411000F1EE677A01E0D7ED017AC7ED037AD7EDCA
:10412000037AB7EE007AF4EEC77AF1EE10FA01D511
:1041300000232EE0D7ED037A9FED197AF4EEC77ACB
:10414000F1EE10FA02D5174BFB600AE0D7ED037AC7
:104150009FED157AF4EEC77AF1EE10FA01DD134BFC
:10416000FB60D7ED017AF5EEC07AF1EE10FA09D5D1
:10417000D7ED037AF1EE677AFDEEE77A17EE903A23
:104180001BB206E0D7ED037AFDEEE77A17EE903A20
:104190001BB218461437BD465DF8047B704700BF5C
:1041A000000016440000164400007A4400007A44DF
:1041B00080B483B000AF78607B684FF00002DA60B3
:1041C0007B684FF000021A617B684FF000025A6171
:1041D0007B6800221A8300BF0C37BD465DF8047B64
:1041E0007047000080B588B000AF786087ED000AA6
:1041F0007B68D3ED037AF5EEC07AF1EE10FA05D5BF
:104200007B68D3ED037AF1EE677A02E07B68D3ED49
:10421000037AC7ED057AD7ED057AB3EE097AF4EEA5
:10422000C77AF1EE10FA04D57868FFF7C1FF0023D2
:10423000DBE07B6893ED037AD7ED007A77EE677A5F
:10424000C7ED047A7B68D3ED007A97ED047A67EEC8
:10425000277AC7ED037A7B6893ED047A7B68D3ED08
:10426000016AD7ED047A66EEA77ADFED626A67EE3F
:10427000A67A77EE277A7B68C3ED047A7B68D3ED64
:10428000047A9FED5D1ADFED5D0AB0EE670AFFF775
:10429000BFFEF0EE407A7B68C3ED047A7B6893ED55
:1042A000027A7B68D3ED057AD7ED046A76EEE77A79
:1042B00027EE277ADFED4F6AC7EE267AC7ED027A3E
:1042C0007B683A695A617B68D3ED037A7B68B3F9FE
:1042D0001A301846B0EE670AFFF7C4FE87ED070AEA
:1042E0007B68D3ED037AF5EEC07AF1EE10FA05D5CE
:1042F000D7ED077AF1EE677AC7ED077A97ED077A7F
:10430000D7ED037A37EE277A7B68D3ED047A77EE20
:10431000277A97ED027A77EE277AC7ED067AD7EDFE
:10432000067A9FED377AF4EEC77AF1EE10FA24DDC3
:104330007B68D3ED047AF5EEC07AF1EE10FA1CDD5D
:104340007B6893ED047AD7ED067ADFED2D6A77EE80
:10435000E67A77EE677A7B68C3ED047A7B68D3ED03
:10436000047AF5EEC07AF1EE10FA03D57B684FF0CF
:1043700000021A61234BBB612CE0D7ED067A9FED5A
:10438000227AF4EEC77AF1EE10FA23D57B68D3EDEA
:10439000047AF5EEC07AF1EE10FA1BD57B6893ED46
:1043A000047ADFED196AD7ED067A76EEE77A77EED2
:1043B000277A7B68C3ED047A7B68D3ED047AF5EE47
:1043C000C07AF1EE10FA03DD7B684FF000021A614B
:1043D0000E4BBB6197ED060AFFF78CFE03461A46AB
:1043E0007B681A837B68B3F9183018462037BD46BE
:1043F00080BD00BF0AD7233C00009643000096C34F
:1044000000007A4400007A4400007AC400007AC4B4
:1044100080B500AF164B4FF07E521A60144B4FF030
:1044200080425A60124B4FF000029A60104B4FF4DA
:10443000BD725A830E4B00221A770D48FFF7B8FE63
:104440000C4B4FF07E521A600A4B4FF080425A607C
:10445000084B4FF000029A60064B4FF4B5725A8336
:10446000044B00221A770348FFF7A2FE00BF80BD6D
:1044700088060020A806002080B582B000AF034661
:10448000FB71FB79002B05D10020FFF717F9002005
:10449000FFF72AF90A48FFF78BFE0A48FFF788FE64
:1044A000FB79002B01D0012200E00022044B1A7797
:1044B000034B1A7F034B1A7700BF0837BD4680BDF8
:1044C00088060020A806002080B483B000AF034611
:1044D0000A46FB801346BB80B7F90620B7F90430C3
:1044E0009A4202DDB7F904300DE0B7F90620B7F9BA
:1044F00004305B429A4204DABB885B429BB21BB237
:1045000001E0B7F9063018460C37BD465DF8047B6C
:104510007047000080B582B000AF0346FB800A4BB5
:10452000B3F91A20B7F9063011461846FFF7CCFF49
:10453000034607EE903AF8EEE77A034BC3ED037AB1
:1045400000BF0837BD4680BD8806002080B582B018
:1045500000AF0346FB800A4BB3F91A20B7F90630C7
:1045600011461846FFF7B0FF034607EE903AF8EE03
:10457000E77A034BC3ED037A00BF0837BD4680BD21
:10458000A806002080B582B000AF03460A46FB8033
:104590001346BB80B7F906301846FFF7BBFFB7F9E3
:1045A00004301846FFF7D2FF00BF0837BD4680BD74
:1045B00080B500AF0648FFF7FBFD0648FFF7F8FDA2
:1045C0000020FFF77BF80020FFF78EF800BF80BDCA
:1045D00088060020A806002080B582B000AF164BE8
:1045E0001B7F002B24D0FEF733FF07EE900AF8EE76
:1045F000E77AB0EE670A1048FFF7F4FD0346FB8048
:10460000FEF738FF07EE900AF8EEE77AB0EE670A99
:104610000A48FFF7E7FD0346BB80B7F906301846A6
:10462000FFF74CF8B7F904301846FFF75DF800E0E3
:1046300000BF0837BD4680BD88060020A8060020C0
:1046400080B400AF034BB3F918301846BD465DF88F
:10465000047B70478806002080B400AF034BB3F999
:1046600018301846BD465DF8047B7047A806002048
:10467000014B1868704700BF1000002070B50D4D49
:104680000D4C641BA4100026A64209D10B4D0C4C06
:1046900001F042FA641BA4100026A64205D170BDA9
:1046A00055F8043B98470136EEE755F8043B984728
:1046B0000136F2E7C8690008C8690008C86900083F
:1046C000CC69000802440346934200D1704703F8C6
:1046D000011BF9E70CB430B5174B0C1E1D689DB0DB
:1046E00008DA8B232B604FF0FF301DB0BDE830405F
:1046F00002B070474FF40273ADF8143014BF04F1E8
:10470000FF332346049307934FF6FF7302900690FE
:10471000ADF81630209A21AB02A92846019300F08B
:1047200069F8431CBCBF8B232B60002CDDD0029B9F
:1047300000221A70D9E700BF100000202DE9F047D1
:104740008E689E4282460C4690461F4638D88A891B
:1047500012F4906F32D025680969A5EB01096569EB
:1047600005EB450505EBD57501334B446D109D42B6
:1047700038BF1D46530531D5294600F063FB064678
:1047800050B90C23CAF80030A38943F04003A38139
:104790004FF0FF30BDE8F08721694A4600F0BEFACD
:1047A000A38923F4906343F08003A38126616561AC
:1047B0004E44A5EB09052660A5603E46BE4200D9E1
:1047C0003E4620683246414600F0B6FAA3689B1B7D
:1047D000A3602368334423600020DBE72A4600F00F
:1047E000A5FB06460028E1D12169504600F0BEFA3B
:1047F000C7E700002DE9F04F98468B891B069DB056
:1048000007460D4614460ED50B6963B9402100F0EA
:1048100019FB2860286120B90C233B604FF0FF3062
:10482000D1E040236B610023099320238DF82930C8
:10483000CDF80C803023DFF8A8818DF82A304FF0B6
:10484000010923469A4613F8012B0AB1252AF9D10A
:10485000BAEB040B0BD05B46224629463846FFF7DD
:104860006DFF013000F0AA80099A5A4409929AF823
:104870000030002B00F0A28000234FF0FF32CDE982
:1048800005230AF1010A049307938DF853301A9314
:104890005446052214F8011B5148FBF799FC049A71
:1048A000D8B9D00644BF20238DF85330110744BF38
:1048B0002B238DF853309AF800302A2B15D0079A05
:1048C000544600204FF00A0C214611F8013B303BC2
:1048D000092B4ED9B0B1079214E0A0EB080309FAF6
:1048E00003F313430493A246D2E7039B191D1B68ED
:1048F0000391002BBBBF5B4242F002020793079378
:10490000B8BF049223782E2B0CD163782A2B35D193
:10491000039B1A1D1B680392002BB8BF4FF0FF3397
:1049200002340593DFF8C8A0217803225046FBF734
:104930004FFC40B14023A0EB0A0003FA00F0049BB7
:1049400003430134049314F8011B26488DF8281002
:104950000622FBF73DFC002838D0234B1BBB039BF2
:10496000073323F0070308330393099B3344099368
:1049700067E70CFB02320C460120A5E70023013457
:10498000059319464FF00A0C204610F8012B303AD7
:10499000092A03D9002BC5D00591C3E70CFB0121DF
:1049A00004460123F0E703AB00932A460F4B04A90A
:1049B0003846AFF30080421C0646D6D1AB895B0671
:1049C0003FF52CAF09981DB0BDE8F08F03AB009305
:1049D0002A46064B04A9384600F07AF8EBE700BFF8
:1049E000BC650008C6650008000000003D470008DF
:1049F000C26500082DE9F047164699468A680B699A
:104A0000DDF820809342B8BF1346336091F843200D
:104A100007460C460AB1013333602368990642BF4A
:104A2000336802333360256815F0060506D104F1BA
:104A3000190AE36832689B1AAB4226DC94F84320DB
:104A4000131E226818BF012392062BD404F14302DF
:104A500049463846C04701301ED02368E5683268B1
:104A600003F00603042B08BFAD1AA36822690CBF2C
:104A700025EAE57500259342C4BF9B1AED18002670
:104A80001A34B5421AD1002008E0012352464946A3
:104A90003846C047013003D14FF0FF30BDE8F08702
:104AA0000135C6E7E1185A1C302081F84300224442
:104AB00094F8451082F843100233C7E701232246D9
:104AC00049463846C0470130E6D00136D9E70000F4
:104AD0002DE9FF470F7E0C9D782F914680460C46AE
:104AE0009A4601F1430207D8622F0AD8002F00F03E
:104AF000D880582F00F0A38004F1420584F842705A
:104B00003AE0A7F16303152BF6D801A151F823F081
:104B1000694B00087D4B0008F94A0008F94A000873
:104B2000F94A0008F94A00087D4B0008F94A0008D4
:104B3000F94A0008F94A0008F94A0008894C0008B7
:104B4000AD4B00086B4C0008F94A0008F94A000810
:104B5000AB4C0008F94A0008AD4B0008F94A0008C0
:104B6000F94A0008734C00082B681A1D1B682A605C
:104B700004F1420584F842300123A3E0206829684B
:104B8000060601F104030AD50E682B60002E03DA35
:104B90002D23764284F843305E480A2319E00E68DC
:104BA0002B6010F0400F18BF36B2EFE72B6820687B
:104BB000191D2960010601D51E6802E04606FBD5D5
:104BC0001E8854486F2F0CBF08230A23002184F845
:104BD00043106568A560002DA2BF216821F0040183
:104BE00021600EB9002D4DD01546B6FBF3F103FB45
:104BF0001167C75D05F8017D3746BB420E46F4D903
:104C0000082B0BD12368DE0708D523696168994218
:104C1000DEBF302305F8013C05F1FF35521B226150
:104C2000CDF800A04B4603AA21464046FFF7E2FE1E
:104C300001304CD14FF0FF3004B0BDE8F08735486B
:104C400081F845702968236851F8046B29601D06B6
:104C500014D5DF0744BF43F0200323601EB9236847
:104C600023F0200323601023B0E7236843F02003E0
:104C700023607823284884F84530E3E7590648BF85
:104C8000B6B2E6E71546BBE72B6826686169181DD2
:104C9000286035061B6801D5196002E07006FBD557
:104CA0001980002323611546BAE72B681A1D2A6074
:104CB0001D68626800212846FBF78AFA08B1401B8C
:104CC000606063682361002384F84330A8E72369A8
:104CD0002A4649464046D0470130ABD023689B075F
:104CE00013D4E068039B9842B8BF1846A4E7012399
:104CF000324649464046D04701309BD00135E368F3
:104D000003995B1AAB42F2DCEBE7002504F11906CC
:104D1000F5E700BFCD650008DE6500080A44914252
:104D200000F1FF3300D1704710B511F8014B03F8C3
:104D3000014F9142F9D110BD884210B501EB020438
:104D400002D98442234607D8431EA14208D011F855
:104D5000012B03F8012FF8E7024401468A4200D1F3
:104D600010BD13F8014D02F8014DF7E737B50029E2
:104D700044D051F8043C0190002BA1F10404B8BFC9
:104D8000E41800F013F91E4A0198136833B9636000
:104D9000146003B0BDE8304000F00EB9A34208D95A
:104DA000256861198B4201BF19685B684919216048
:104DB000EDE71A465B680BB1A342FAD911685518A2
:104DC000A5420BD1246821445418A3421160E0D1BC
:104DD0001C685B68536021441160DAE702D90C2338
:104DE0000360D6E7256861198B4204BF19685B68C8
:104DF000636004BF491921605460CAE703B030BD45
:104E0000C806002070B50E4E0C463168054611B933
:104E100000F0BCF830602146284600F0B7F8431C8B
:104E20000AD0C41C24F00304A04207D0211A28464B
:104E300000F0ACF8013001D14FF0FF34204670BDD6
:104E4000CC0600202DE9F041CD1C25F003050835E6
:104E50000C2D38BF0C25002D074601DBA94205D9D2
:104E60000C233B6000263046BDE8F0812E4E00F05A
:104E70009DF833681C4634BB29463846FFF7C2FF0D
:104E8000431C04464DD134682646002E40D1236889
:104E90003146384604EB030800F078F880453AD1F3
:104EA000216803356D1A25F0030508350C2D38BF30
:104EB0000C2529463846FFF7A5FF01302BD0236883
:104EC0002B4423600EE02268521B1ED40B2A16D9F5
:104ED0006119A342256018BF5960636808BF31603B
:104EE00062514B60384604F10B0600F065F826F07D
:104EF0000706231DF21AB6D09B1BA350B3E76268C6
:104F0000A3420CBF32605A60ECE723466468B2E704
:104F100034467668B9E70C233B60384600F04CF81D
:104F2000A1E72560DEE700BFC80600202DE9F041BB
:104F3000804614460E4621B9BDE8F0411146FFF700
:104F400081BF2AB9FFF712FF25462846BDE8F08148
:104F500000F038F88442074602D8B4EB500F12D85C
:104F600021464046FFF76EFF05460028EDD0BC42C3
:104F70002246314628BF3A46FFF7D0FE314640462A
:104F8000FFF7F4FEE1E73546DFE7000038B5064DF0
:104F90000023044608462B60FCF7C8F8431C02D1E6
:104FA0002B6803B1236038BDD0060020014800F013
:104FB00011B800BFD4060020014800F00CB800BFB3
:104FC000D406002051F8043C181F002BBCBF0B581E
:104FD000C01870477047704710EE103A07B51E4A68
:104FE00023F00043934206DCDFED1C0A03B05DF8BA
:104FF00004EB00F0B7B9B3F1FF4F04DB30EE400A29
:1050000003B05DF804FB684600F070F800F00300A0
:10501000012809D0022810D0B0B9DDED010A9DEDBC
:10502000000A00F09FF9EBE7DDED010A9DED000AB3
:1050300000F06EFCB1EE400AE2E7DDED010A9DED05
:10504000000A00F08FF9F5E7DDED010A9DED000A99
:10505000012000F05DFCD3E7D80F493F00000000BD
:1050600010EE103A07B51F4A23F00043934207DCC5
:10507000DFED1D0A002003B05DF804EB00F048BC32
:10508000B3F1FF4F04DB30EE400A03B05DF804FBE0
:10509000684600F02BF800F0030001280AD002282F
:1050A0000FD0C0B9DDED010A9DED000A012000F02E
:1050B0002FFCEAE7DDED010A9DED000A00F052F950
:1050C000E3E7DDED010A9DED000A012000F020FC80
:1050D000B1EE400AD9E7DDED010A9DED000A00F0CE
:1050E00041F9F5E7D80F493F00000000F0B510EE98
:1050F000106A8E4B26F000459D4287B0F0EE407A54
:10510000044605DC002380ED000A436000201AE01D
:10511000874B9D4246DC002E9FED860A864B25F08C
:105120000F051FDD9D4277EEC07A0ED09FED837A8A
:1051300037EEC70A77EEC07A80ED000A77EEC77ABD
:105140000120C4ED017A07B0F0BD9FED7D0A9FED0F
:105150007D7A77EEC07A77EEC76A77EEE67AC0EDB1
:10516000006AEBE79D4277EE807A0ED09FED737A6E
:1051700037EE870A77EEC07A80ED000A77EE877AFD
:105180004FF0FF30C4ED017ADDE79FED6D0A9FED32
:105190006D7A77EE807A77EE876A77EEE67AC0ED01
:1051A000006AEBE7684B9D4272DC00F0F9FB9FED73
:1051B000677AF6EE007AE0EE077AFDEEE77AB8EE6F
:1051C000E77A17EE900ADFED5B7AA7EE670A1F28F1
:1051D000DFED5A7A67EE277AB1EE476A70EE676ABA
:1051E00016EE902A1CDC5A49471E25F0FF0351F8A1
:1051F00027108B4214D0226094ED007A30EE470ADB
:10520000002E30EE670A84ED010A9CDAB1EE477A8F
:10521000B1EE400A84ED007A84ED010A404292E743
:10522000C2F3C751EB15C1EBD555082DE3DDDFED1A
:10523000447ADFED445AF0EE406AE6EE276A30EE3B
:10524000660AA6EE270AF0EE407AD7EE257A76EEC9
:10525000E75A15EE902AC2F3C7515B1A192B04DCEA
:10526000C4ED005AB0EE660AC6E7DFED3A5AB0EE7A
:10527000660AA6EE250A76EEC07ADFED376AE6EE1C
:10528000257AD7EE267A30EE677A84ED007AB3E796
:10529000B5F1FF4F06DB70EE407AC0ED017AC0ED4C
:1052A000007A33E7EA15863AA5EBC25307EE903A47
:1052B000BDEEE77ADFED296AB8EEC77A77EEC77AF6
:1052C0008DED037A67EEA67ABDEEE77AB8EEC77A7F
:1052D00077EEC77A8DED047A67EEA67AF5EE407A1E
:1052E000F1EE10FACDED057A1ED1B5EE407AF1EE71
:1052F00010FA14BF022301231949019102210091E0
:1053000003A8214600F08EF8002EBFF61CAFD4EDA6
:10531000007AF1EE677AC4ED007AD4ED017AF1EE0D
:10532000677AC4ED017A79E70323E5E7D80F493FAF
:10533000E3CB1640800FC93FD00FC93F43443537F8
:105340000044353708A3852E800F494384F9223F56
:10535000F065000800A3852E32318D2400008043C3
:105360007066000810EE103A23F00043B3F1485F76
:10537000B7EE006A05DAFDEEC07A17EE902A002A31
:105380003DD060EE005ADFED1F7A9FED1F7ADFED12
:105390001F6A1F4AA5EEA77A9342DFED1E7AE7EE59
:1053A000257A9FED1D7AA7EEA57ADFED1C7AE7EE50
:1053B000257AB0EE667AA7EEA57AF6EE006A65EE7B
:1053C000A67A67EE256A20EEC07AA5EEA67A04DCFE
:1053D00037EEC77A36EE470A7047114A9342DABF72
:1053E00003F17F4306EE903AF5EE026A77EEE67A35
:1053F00036EE660A77EEC77A30EE670A7047B0EE8F
:10540000460A70474ED747ADF6740F31ABAA2A3D16
:105410009999993E7CF293B4010DD037610BB6BADD
:105420000000483F2DE9F04F2DED048BD9B08846A0
:105430000290BB496698019351F820A0DDF89CE1E9
:10544000591E131D27DBB2F1030B48BF02F1040BF9
:105450004FEAEB00451CEC00471A9FEDB57A039428
:10546000A2EBC5050AEB010C1CAE0EEB870900246C
:10547000644512DD019B1CAC04EB83040DF5887BB5
:105480004FF0000CD44527DCDDF80890DFEDA87A5A
:105490002746002616E00020DCE7E7425DBF59F80A
:1054A000243007EE903AF8EEE77AF0EE477AE6EC31
:1054B000017A0134DCE7F9EC016A97ED007AE6EE57
:1054C000877A01368E42A7F10407F4DDEBEC017A0E
:1054D0000CF1010C0434D5E708AB03EB8A03DFEDD4
:1054E000938A9FED919A04930EEB800B5646B3007E
:1054F000059358AB03EB860008AC44AB10ED140ADF
:10550000A44603EB86003746002FA0F104004FDCD1
:105510002846CDE9061200F08DFAB0EE408AB4EECE
:10552000000A28EE000A00F043FAF2EE007AA0EE3C
:10553000678A002DDDE90612FDEEC87AB8EEE70AAB
:1055400017EE909A38EE408A44DD06F1FF3C08AB36
:10555000C5F1080E53F82C7047FA0EF0814400FA9A
:105560000EF03F1AC5F1070043F82C700741002FD9
:105570003FDD4FF0000E09F10109734676456BDC03
:10558000002D04DD012D78D0022D00F08180022F46
:105590002FD1B7EE000A30EE488A53B32846CDE942
:1055A000061200F047FADDE9061238EE408A20E0E4
:1055B00060EE287A013FFDEEE77AF8EEE77AA7EE93
:1055C000C90ABDEEC00AACEC010A90ED000A37EE44
:1055D000800A99E705D1701E08AB53F82070FF11BF
:1055E000C5E7F6EE007AB4EEE78AF1EE10FA31DAAA
:1055F0000027B5EE408AF1EE10FA40F09B80741E51
:10560000A4460020D4454ADA00287AD008AB083DE9
:1056100053F82430002B00F081802846B7EE000AB2
:10562000A50000F007FA44AA2B1D9FED407AD1187F
:105630002246002A80F2AE802246002AC0F2CC80A8
:1056400044A901EB8206DFF8DCC0DFED397A0020E7
:10565000A11AB6E002278CE720684BB918B1C0F553
:105660008070206001200EF1010E0434034685E7AE
:10567000C0F1FF0020601846F5E7741E08A850F836
:10568000240000F07F000DF1200C4CF824007EE790
:10569000741E08A850F8240000F03F00F3E708ABA0
:1056A00053F82C300CF1FF3C1843ABE70CF1010C24
:1056B00050F8044D002CF9D0059B03F5B0730DEBA9
:1056C0000300019BF4181CAB771C4C3803EB8404DB
:1056D0006644BE42FFF60BAF5BF82730DDF808E00A
:1056E00007EE903AF8EEE77A4FF0000CE4EC017A1E
:1056F000DFED0F7AA1468C4507DDE0EC017A01373A
:10570000E7E704984FF0010CD2E7FEEC016A39EDAF
:10571000017A0CF1010CE6EE877AECE7013C75E7C3
:10572000B469000888690008000080430000803BDD
:1057300000000000039BB0EE480A981A00F07AF9C6
:105740001FED077AB4EEC70AF1EE10FA19DB5FED30
:10575000097A60EE277A08AAFDEEE77A741CF8EE63
:10576000E77A0835A7EEC70AFDEEE77ABDEEC00A74
:1057700010EE103A42F8263017EE903A42F82430F4
:105780004BE7BDEEC00A08AA10EE103A344642F8C4
:10579000263042E708A850F82200019007EE900A50
:1057A000F8EEE77A013A67EE807A20EE070A61EDBB
:1057B000017A3EE7FCEC016AB6EC017AE6EE877A04
:1057C0000130504501DC8842F4DD58A800EB81012E
:1057D00041ED287A013A30E7669A022A09DC002A6C
:1057E0002ADC43D009F0070059B0BDEC048BBDE8BA
:1057F000F08F669B032BF5D130AB2B441A4619462C
:1058000020460028A1F1040151DC21460129A2F122
:1058100004025CDC5FED3A7A0433012C67DCDDEDD9
:10582000306A9DED317A002F67D1C8ED006A88EDAE
:10583000017AC8ED027AD5E730AA1FED437A134406
:105840002246002A24DA4FB3F1EE477AC8ED007AF7
:10585000DDED307A77EEC77A31AA01239C4220DA57
:105860000FB1F1EE677AC8ED017ABBE730AA5FEDC0
:10587000507A1344002C05DA0FB1F1EE677AC8EDC7
:10588000007AAFE733ED017A013C77EE877AF1E7F2
:1058900073ED017A013A37EE277AD2E7F0EE477AD4
:1058A000D4E7B2EC017A013377EE877AD6E7D1ED0F
:1058B000007AD1ED016A37EEA67A013877EEC77A21
:1058C00081ED007A77EEA67AC1ED017A99E7D2ED03
:1058D000007AD2ED016A37EEA67A013977EEC77AFF
:1058E00082ED007A77EEA67AC2ED017A8EE733ED8B
:1058F000017A013C77EE877A8FE7F1EE666AB1EEC6
:10590000477AC8ED006A88ED017AF1EE677A90E790
:1059100010EE103A23F00043B3F1485F04DAFDEED5
:10592000C07A17EE903A5BB320EE007ADFED157A7D
:105930009FED156AA7EE276ADFED147AE6EE077A87
:105940009FED136AA7EE876ADFED127A60EE076AB1
:10595000E6EE077A30B99FED106AA7EE276AA6EE49
:10596000260A704767EEE67AB6EE006AE0EE867ABF
:10597000D7EE870ADFED097AE6EEA70A30EE600A75
:10598000704700BFD3C92E2F342FD7B21BEF383644
:10599000010D50B98988083CABAA2ABEABAA2A3EA1
:1059A00010EE103A23F0004300EE103A704700006A
:1059B00010EE103AC3F3C7527F3A162A23F0004183
:1059C0002ADC002A11DADFED187A30EE270AB5EE6C
:1059D000C00AF1EE10FA05DD002B23DA134A002984
:1059E00018BF134600EE103A7047114911410B429F
:1059F000FAD0DFED0D7A30EE270AB5EEC00AF1EEEF
:105A000010FAEFDD002BBEBF4FF4000040FA02F2A7
:105A10009B1823EA0103E5E7B1F1FF4FE4D330EE31
:105A2000000A70470023DDE7CAF24971000080BF19
:105A3000FFFF7F0010EE103A33F0004225D0B2F1A4
:105A4000FF4F02D330EE000A704713F0FF4F22D110
:105A50002A4BDFED2B7A984220EE270A16DB10EE58
:105A6000103AC3F3C752193A0244FE2A15DD10EE6C
:105A7000103ADFED247ADFED246A002BB0EE677A6E
:105A8000B8BFF0EE667A27EE270A7047DFED1F7A7F
:105A900020EE270A7047D20DE6E7002A06DD23F044
:105AA000FF4343EAC25300EE103A704712F1160F5B
:105AB0001ADA4CF25033984210EE103A03F00043D9
:105AC0000ADD9FED100A9FED107AF0EE407A002B70
:105AD00018BFB0EE470ADBE79FED0C0A9FED0C7A8A
