:020000040800F2
:10000000000002202D1B0008F5190008FB1900084C
:10001000011A0008071A00080D1A00080000000065
:10002000000000000000000000000000131A00089B
:10003000211A0008000000002F1A00083D1A0008CD
:100040007D1B00087D1B00087D1B00087D1B000830
:100050007D1B0008491A0008571A0008651A000895
:100060007D1B00087D1B00087D1B00087D1B000810
:100070007D1B00087D1B00087D1B00087D1B000800
:100080007D1B00087D1B00087D1B00087D1B0008F0
:100090007D1B00087D1B00087D1B00087D1B0008E0
:1000A0007D1B00087D1B00087D1B00087D1B0008D0
:1000B0007D1B00087D1B00087D1B00087D1B0008C0
:1000C0007D1B00087D1B00087D1B00087D1B0008B0
:1000D0007D1B00087D1B0008751A0008891A00089E
:1000E0007D1B00087D1B00087D1B00087D1B000890
:1000F0007D1B00087D1B00087D1B00087D1B000880
:100100007D1B00087D1B00087D1B00087D1B00086F
:100110007D1B00087D1B00087D1B00087D1B00085F
:100120007D1B00087D1B00087D1B00087D1B00084F
:100130007D1B00087D1B00087D1B00087D1B00083F
:100140007D1B00087D1B00087D1B00087D1B00082F
:100150007D1B00087D1B00087D1B00087D1B00081F
:100160007D1B00087D1B00087D1B00087D1B00080F
:100170007D1B00087D1B00087D1B0008000000009F
:080180007D1B00087D1B000837
:1001900010B5054C237833B9044B13B10448AFF3C1
:1001A00000800123237010BD7000002000000000BB
:1001B0000C54000808B5034B1BB103490348AFF3C7
:1001C000008008BD00000000740000200C540008EE
:1001D00001F0FF01102A2BDB10F0070F08D010F8F8
:1001E000013B013A8B422DD010F0070F42B3F6D1FC
:1001F000F0B441EA012141EA014122F007047FF015
:1002000000070023F0E80256083C85EA010586EA6B
:10021000010685FA47F5A3FA87F586FA47F6A5FAA7
:1002200087F68EB9EED1F0BC01F0FF0102F00702B3
:1002300032B110F8013B013A83EA010313B1F8D15E
:100240000020704701387047002D06BF354603383F
:10025000073815F0010F07D1013015F4807F02BF78
:10026000013015F4C03F0130F0BC0138704700BFC9
:1002700053B94AB9002908BF00281CBF4FF0FF310D
:100280004FF0FF3000F074B9ADF1080C6DE904CE09
:1002900000F006F8DDF804E0DDE9022304B0704761
:1002A0002DE9F047089D04468E46002B4DD18A4229
:1002B000944669D9B2FA82F252B101FA02F3C2F15C
:1002C000200120FA01F10CFA02FC41EA030E9440ED
:1002D0004FEA1C48210CBEFBF8F61FFA8CF708FB0E
:1002E00016E341EA034306FB07F199420AD91CEBE6
:1002F000030306F1FF3080F01F81994240F21C8118
:10030000023E63445B1AA4B2B3FBF8F008FB10335F
:1003100044EA034400FB07F7A7420AD91CEB040494
:1003200000F1FF3380F00A81A74240F20781644464
:10033000023840EA0640E41B00261DB1D4400023E9
:10034000C5E900433146BDE8F0878B4209D9002D4D
:1003500000F0EF800026C5E9000130463146BDE8D7
:10036000F087B3FA83F6002E4AD18B4202D3824241
:1003700000F2F980841A61EB030301209E46002DF0
:10038000E0D0C5E9004EDDE702B9FFDEB2FA82F245
:10039000002A40F09280A1EB0C014FEA1C471FFAA3
:1003A0008CFE0126200CB1FBF7F307FB131140EA8A
:1003B00001410EFB03F0884208D91CEB010103F157
:1003C000FF3802D2884200F2CB804346091AA4B219
:1003D000B1FBF7F007FB101144EA01440EFB00FEED
:1003E000A64508D91CEB040400F1FF3102D2A64552
:1003F00000F2BB800846A4EB0E0440EA03409CE7F1
:10040000C6F12007B34022FA07FC4CEA030C20FA9D
:1004100007F401FA06F31C43F9404FEA1C4900FABD
:1004200006F3B1FBF9F8200C1FFA8CFE09FB18113A
:1004300040EA014108FB0EF0884202FA06F20BD9AD
:100440001CEB010108F1FF3A80F08880884240F2FD
:100450008580A8F102086144091AA4B2B1FBF9F041
:1004600009FB101144EA014100FB0EFE8E4508D93C
:100470001CEB010100F1FF346CD28E456AD90238C1
:10048000614440EA0840A0FB0294A1EB0E01A142A6
:10049000C846A64656D353D05DB1B3EB080261EB14
:1004A0000E0101FA07F722FA06F3F1401F43C5E9EE
:1004B000007100263146BDE8F087C2F12003D84024
:1004C0000CFA02FC21FA03F3914001434FEA1C4766
:1004D0001FFA8CFEB3FBF7F007FB10360B0C43EA58
:1004E000064300FB0EF69E4204FA02F408D91CEB08
:1004F000030300F1FF382FD29E422DD90238634406
:100500009B1B89B2B3FBF7F607FB163341EA0341A5
:1005100006FB0EF38B4208D91CEB010106F1FF38F4
:1005200016D28B4214D9023E6144C91A46EA0046EB
:1005300038E72E46284605E70646E3E61846F8E67D
:100540004B45A9D2B9EB020864EB0C0E0138A3E7C6
:100550004646EAE7204694E74046D1E7D0467BE7A7
:10056000023B614432E7304609E76444023842E71F
:10057000704700BFB0B58CB002AF01F001FB00F0D6
:10058000C7F800F041FB00F015FB00F029F900F07E
:10059000E7FA00F09FFA00F077F900F0C9F900F0EF
:1005A00049FA00F0D7FC00F057FF514A0A210A200F
:1005B00000F020FF00F0A6FD002387F8273097F811
:1005C0002730032B26D801A252F823F0DD050008BE
:1005D000E3050008F30500080306000800F02AFD03
:1005E00018E040F6B83000F0FDFC002000F00EFDF1
:1005F00010E0002000F0F6FC40F6B83000F006FDF8
:1006000008E040F6B83000F0EDFC40F6B83000F0FD
:10061000FDFC00BF97F8274000F044FD03461D464F
:1006200000F058FD0346381D00932B462246314901
:1006300004F07EFA3B1D1A460021002000F0DAFE8D
:100640002D4B1A6C2C4BDB6B381D2C4904F070FAC7
:100650003B1D1A461021002000F0CCFE284B5A6B9F
:10066000274B9B6B381D274904F062FA3B1D1A4645
:100670002021002000F0BEFE1F4BDA6A204BD96A11
:100680001D4B1B6803F00103002B14BF0123002343
:10069000DBB21C461A4B1B6803F00103002B14BF8E
:1006A00001230023DBB2381D019300940B46164949
:1006B00004F03EFA3B1D1A463021002000F09AFE5D
:1006C00000F020FD4FF48071104801F048FE40F624
:1006D000B83001F0C7FA97F8273001335A4203F0D7
:1006E000030302F0030258BF534287F8273066E73E
:1006F000245400082C540008000800403C54000812
:10070000004001404C5400085C54000800100240B6
:1007100080B594B000AF07F12003302200211846C5
:1007200004F0FEF907F10C0300221A605A609A6087
:10073000DA601A610023BB60274B1B6C264A43F02A
:1007400080531364244B1B6C03F08053BB60BB6865
:1007500000237B60214B1B68204A43F480431360D5
:100760001E4B1B6803F480437B607B6801233B6264
:100770004FF480337B620223BB634FF48003FB633F
:1007800004233B6448237B640223BB640423FB648F
:1007900007F12003184601F03DFE0346002B01D06F
:1007A00000F0E8FA0F23FB6002233B6100237B612A
:1007B0004FF48053BB610023FB6107F10C0302215E
:1007C000184602F09FF80346002B01D000F0D2FA41
:1007D00000BF5037BD4680BD003802400070004069
:1007E00080B58CB000AF07F10C032422002118461D
:1007F00004F096F93B1D00221A605A60214B4FF01D
:1008000080421A601F4B00225A601E4B00229A60E1
:100810001C4B4FF6FF72DA601A4B00221A61194B1B
:1008200000229A610323FB6000233B6101237B616B
:100830000023BB610A23FB6100233B6201237B622F
:100840000023BB620A23FB6207F10C0319460D4823
:1008500002F0DEFB0346002B01D000F08BFA0023F0
:100860007B600023BB603B1D1946064803F09EF9E0
:100870000346002B01D000F07DFA00BF3037BD46A3
:1008800080BD00BF8C00002080B58CB000AF07F1A8
:100890000C0324220021184604F042F93B1D0022DB
:1008A0001A605A60204B214A1A601F4B00225A607E
:1008B0001D4B00229A601C4B4FF6FF72DA601A4BF8
:1008C00000221A61184B00229A610323FB60002367
:1008D0003B6101237B610023BB610A23FB61002391
:1008E0003B6201237B620023BB620A23FB6207F1A8
:1008F0000C0319460C4802F08BFB0346002B01D079
:1009000000F038FA00237B600023BB603B1D1946D2
:10091000054803F04BF90346002B01D000F02AFAFA
:1009200000BF3037BD4680BDD40000200004004029
:1009300080B58EB000AF07F1280300221A605A601C
:100940009A60DA6007F1200300221A605A603B1DAA
:1009500000221A605A609A60DA601A615A619A61DC
:10096000324B334A1A60314B00225A602F4B00221F
:100970009A602E4B41F61F42DA602C4B00221A611E
:100980002A4B00229A61294802F0DCF90346002B29
:1009900001D000F0EFF94FF48053BB6207F1280358
:1009A0001946224802F02AFD0346002B01D000F030
:1009B000E1F91E4802F015FA0346002B01D000F0C1
:1009C000D9F900233B6200237B6207F1200319461B
:1009D000164803F0EBF80346002B01D000F0CAF9EB
:1009E00060237B600023BB600023FB6000237B61EE
:1009F0003B1D082219460D4802F03EFC0346002B21
:100A000001D000F0B7F93B1D0C221946074802F04F
:100A100033FC0346002B01D000F0ACF9034800F092
:100A2000D3FE00BF3837BD4680BD00BF1C0100208B
:100A30000008004080B588B000AF3B1D00221A605E
:100A40005A609A60DA601A615A619A611F4B204AB3
:100A50001A601E4B00225A601C4B00229A601B4BEE
:100A600041F61F42DA60194B00221A61174B00222F
:100A70009A61164802F0B5F90346002B01D000F048
:100A800079F960237B600023BB600023FB600023B7
:100A90007B613B1D002219460C4802F0EDFB03462A
:100AA000002B01D000F066F93B1D042219460748CF
:100AB00002F0E2FB0346002B01D000F05BF9034893
:100AC00000F082FE00BF2037BD4680BD64010020DB
:100AD0000040014080B588B000AF3B1D00221A6085
:100AE0005A609A60DA601A615A619A611A4B1B4A1D
:100AF0001A60194B47225A60174B00229A60164B16
:100B000044F61F62DA60144B00221A61124B002275
:100B10009A61114802F065F90346002B01D000F0FC
:100B200029F960237B600023BB600023FB60002366
:100B30007B613B1D04221946074802F09DFB0346DA
:100B4000002B01D000F016F9034800F03DFE00BF75
:100B50002037BD4680BD00BFAC010020001800401A
:100B600080B500AF114B124A1A60104B4FF49642F9
:100B70005A600E4B00229A600C4B0022DA600B4B3D
:100B800000221A61094B0C225A61084B00229A611B
:100B9000064B0022DA61054803F084F80346002B77
:100BA00001D000F0E7F800BF80BD00BFF4010020D5
:100BB0000044004080B500AF114B124A1A60104B40
:100BC0004FF4E1325A600E4B00229A600C4B002227
:100BD000DA600B4B00221A61094B0C225A61084B58
:100BE00000229A61064B0022DA61054803F05AF8A8
:100BF0000346002B01D000F0BDF800BF80BD00BF50
:100C0000380200200048004080B58AB000AF07F1EC
:100C1000140300221A605A609A60DA601A61002395
:100C20003B61474B1B6B464A43F010031363444B35
:100C30001B6B03F010033B613B690023FB60404BDF
:100C40001B6B3F4A43F0800313633D4B1B6B03F068
:100C50008003FB60FB680023BB60394B1B6B384A89
:100C600043F002031363364B1B6B03F00203BB60BC
:100C7000BB6800237B60324B1B6B314A43F0080397
:100C800013632F4B1B6B03F008037B607B6800230F
:100C90003B602B4B1B6B2A4A43F001031363284B29
:100CA0001B6B03F001033B603B6800224FF4D6410D
:100CB000244801F03BFB00224FF4F041224801F0B0
:100CC00035FB4FF4D6437B610123BB610023FB61FD
:100CD00000233B6207F1140319461A4801F08AF910
:100CE0004FF4F0437B610123BB610023FB610023D0
:100CF0003B6207F114031946134801F07BF9032303
:100D00007B614FF48813BB610023FB6107F114037F
:100D100019460C4801F06EF900220021062001F06E
:100D2000A0F8062001F0B9F800220021072001F008
:100D300098F8072001F0B1F800BF2837BD4680BD04
:100D40000038024000100240000C024080B483B022
:100D500000AF0346FB80FB88012B02D1044B01222C
:100D60001A7000BF0C37BD465DF8047B704700BFAA
:100D70007C02002080B400AF72B600BFFEE780B4F2
:100D800085B000AFF860B9607A607B803B7E002B55
:100D900003D07B885B429BB27B80B7F90230B3F50E
:100DA000E15F02DB41F61F437B80B7F9023013F5A8
:100DB000E15F02DC4EF2E1337B80B7F9023013F5DC
:100DC0007A7F3DDDB7F90230B3F57A7F38DABB6858
:100DD000002B04D1FB681B6800225A6313E0BB6838
:100DE000042B04D1FB681A68002393630BE0BB68F3
:100DF000082B04D1FB681A680023D36303E0FB6867
:100E00001A68002313647B68002B04D1FB681B68FD
:100E100000225A6398E07B68042B04D1FB681A68AF
:100E20000023936390E07B68082B04D1FB681A6869
:100E30000023D36388E0FB681A680023136483E00F
:100E4000B7F90230002B3CDD7B68002B04D1FB6836
:100E50001B6800225A6313E07B68042B04D1FB68F3
:100E60001A68002393630BE07B68082B04D1FB68AE
:100E70001A680023D36303E0FB681A680023136435
:100E8000BB68002B05D1FB681B68B7F902205A63C9
:100E90005AE0BB68042B05D1FB681A68B7F9023029
:100EA000936351E0BB68082B05D1FB681A68B7F95A
:100EB0000230D36348E0FB681A68B7F90230136464
:100EC00042E0BB68002B04D1FB681B6800225A6318
:100ED00013E0BB68042B04D1FB681A6800239363FA
:100EE0000BE0BB68082B04D1FB681A680023D363AE
:100EF00003E0FB681A68002313647B68002B06D1AB
:100F0000B7F902305A42FB681B685A631CE07B68E1
:100F1000042B07D1B7F902305942FB681A680B4617
:100F2000936311E07B68082B07D1B7F9023059426F
:100F3000FB681A680B46D36306E0B7F902305942E2
:100F4000FB681A680B4613641437BD465DF8047BD2
:100F50007047000080B500AF1C4B1B6800221A646C
:100F60001A4B1B680022DA63194B1B6800225A6374
:100F7000174B1B6800229A630C21144801F080FF74
:100F80000821124801F07CFF0021114801F078FF90
:100F900004210F4801F074FF3C210E4802F0DEF8F6
:100FA0003C210D4802F0DAF80A4B1B6800225A6215
:100FB000094B1B6800225A62084B00221A80074B1B
:100FC0001A88074B1A8000BF80BD00BF1C0100209B
:100FD000640100208C000020D4000020800200204A
:100FE0007E02002080B584B002AF0346FB80B7F9D3
:100FF00006300022009208220C210348FFF7BFFEB2
:1010000000BF0837BD4680BD1C01002080B584B0FC
:1010100002AF0346FB80B7F906300022009204229B
:1010200000210348FFF7ABFE00BF0837BD4680BD77
:101030006401002080B400AF0A4B1B6800221A64D0
:10104000084B1B680022DA63074B1B6800225A63B7
:10105000054B1B6800229A6300BFBD465DF8047B08
:10106000704700BF1C0100206401002080B400AF65
:10107000044B1B685B6A9BB21846BD465DF8047B57
:10108000704700BF8C00002080B400AF044B1B6889
:101090005B6A9BB21846BD465DF8047B704700BF93
:1010A000D400002080B582B000AFFFF7DFFF034619
:1010B000FB80074B1B88FA88D31A9BB2BB80044A7B
:1010C000FB881380B7F9043018460837BD4680BD49
:1010D0007E02002080B582B000AFFFF7D5FF034647
:1010E000FB80074B1B88FA88D31A9BB2BB80044A4B
:1010F000FB881380B7F9043018460837BD4680BD19
:101100008002002080B582B000AF0023FB7126E092
:10111000FB79503BDBB20021184600F02BF8002190
:10112000002000F027F80021102000F023F8002311
:10113000BB710DE0BA79FB790D49D2000A44134422
:101140001B780121184600F015F8BB790133BB71FB
:1011500097F90630002BEDDAFB790133FB71FB794F
:10116000072BD5D900BF00BF0837BD4680BD00BFE3
:101170008402002080B584B000AF03460A46FB71AC
:101180001346BB71BB79002B06D001224FF40061DE
:101190001E4801F0CBF805E000224FF400611B4827
:1011A00001F0C4F80023FB7322E000224FF48041D9
:1011B000164801F0BBF897F90730002B06DA012238
:1011C0004FF40051114801F0B1F805E000224FF44E
:1011D00000510E4801F0AAF801224FF480410B485B
:1011E00001F0A4F8FB795B00FB71FB7B0133FB731F
:1011F000FB7B072BD9D901224FF40061034801F092
:1012000095F800BF1037BD4680BD00BF000C0240FE
:1012100080B582B000AF0023FB7114E00023BB71E6
:101220000AE0BA79FB790C49D2000A44134400223F
:101230001A70BB790133BB7197F90630002BF0DAD5
:10124000FB790133FB71FB79072BE7D9FFF75AFFD5
:1012500000BF0837BD4680BD8402002080B485B041
:1012600000AF0346FB710B46BB7113467B71002335
:10127000FB7397F90730002B41DBBB793F2B3ED83E
:10128000BB79DB08DBB2C3F10703BB73BB7903F0A7
:1012900007037B737B7BC3F10703012202FA03F38D
:1012A000FB737B79002B12D0FA79BB7B1749D200F4
:1012B0000A4413441878FA79BB7BF97B0143C8B21E
:1012C0001249D2000A44134402461A7018E0FA790F
:1012D000BB7B0E49D2000A4413441B785AB297F9DB
:1012E0000F30DB435BB2134059B2FA79BB7BC8B213
:1012F0000649D2000A44134402461A7000E000BFB7
:101300001437BD465DF8047B704700BF840200209F
:1013100090B585B000AF0446084611461A462346EC
:10132000FB710346BB710B467B7113463B71BB7966
:101330003B737B79203B7B710023BB734DE03B7992
:101340000C2B0BD17A79B97B284813465B001344E8
:101350009B0003440B441B78FB7307E07A79BB7B4B
:10136000234912010A4413441B78FB7300237B7347
:101370002DE097F90F30002B07DA97F82020B97984
:10138000FB791846FFF76AFF0CE097F82030002B36
:101390000CBF01230023DBB21A46B979FB7918464A
:1013A000FFF75CFFFB7B5B00FB73BB790133BB7119
:1013B000BA793B7BD21A3B799A4205D13B7BBB7110
:1013C000FB790133FB7105E07B7B01337B737B7B16
:1013D000072BCED9BB7B0133BB73BA7B3B799A42D7
:1013E000ADD300BF00BF1437BD4690BD6C5400089C
:1013F000E058000880B584B002AF03463A60FB7144
:101400000B46BB711FE0FB797A2B04D90023FB71DB
:10141000BB791033BB71BB793A2B05D90023FB7123
:10142000FB79BB71FFF7F4FE3B681A78B979F8795C
:10143000012300930C23FFF76BFFFB790833FB714B
:101440003B6801333B603B681B78002BDBD100BF5E
:1014500000BF0837BD4680BD80B500AF00F0B2FFC9
:10146000424B1B6F414A23F0010313673F4B1B6F35
:101470003E4A23F00403136700F0B8FF00224FF444
:1014800080513B4800F052FF642000F0EBFB01224A
:101490004FF48051364800F049FF0021AE20FFF79D
:1014A00069FE0021D520FFF765FE00215020FFF7DF
:1014B00061FE0021A820FFF75DFE00213F20FFF71D
:1014C00059FE0021D320FFF755FE00210020FFF731
:1014D00051FE00214020FFF74DFE00218D20FFF737
:1014E00049FE00211420FFF745FE00212020FFF7D0
:1014F00041FE00210220FFF73DFE0021A120FFF761
:1015000039FE0021C020FFF735FE0021DA20FFF769
:1015100031FE00211220FFF72DFE00218120FFF770
:1015200029FE0021EF20FFF725FE0021D920FFF73B
:1015300021FE0021F120FFF71DFE0021DB20FFF737
:1015400019FE00213020FFF715FE0021A420FFF72F
:1015500011FE0021A620FFF70DFE0021AF20FFF7AE
:1015600009FEFFF755FE00BF80BD00BF00380240F6
:10157000000C024080B582B000AF00237B60174BA7
:101580005B6C164A43F480435364144B5B6C03F466
:1015900080437B607B6800233B60104B1B6C0F4AD1
:1015A00043F0805313640D4B1B6C03F080533B607E
:1015B0003B6800220021052000F053FC052000F0CC
:1015C0006CFC00220021052000F04BFC052000F0FF
:1015D00064FC00BF0837BD4680BD00BF0038024034
:1015E00080B58CB000AF786007F11C0300221A6050
:1015F0005A609A60DA601A617B681B68B3F1804FA9
:101600004BD10023BB613F4B1B6C3E4A43F00103AF
:1016100013643C4B1B6C03F00103BB61BB690023EB
:101620007B61384B1B6B374A43F001031363354B27
:101630001B6B03F001037B617B6900233B61314B32
:101640001B6B304A43F0020313632E4B1B6B03F0FA
:1016500002033B613B694FF40043FB6102233B62A1
:1016600000237B620023BB620123FB6207F11C03A2
:101670001946254800F0BEFC0823FB6102233B62AB
:1016800000237B620023BB620123FB6207F11C0382
:1016900019461E4800F0AEFC30E07B681B681C4A0F
:1016A00093422BD10023FB60164B1B6C154A43F071
:1016B00002031364134B1B6C03F00203FB60FB6813
:1016C0000023BB600F4B1B6B0E4A43F002031363F6
:1016D0000C4B1B6B03F00203BB60BB683023FB6148
:1016E00002233B6200237B620023BB620223FB6276
:1016F00007F11C031946054800F07CFC00BF303799
:10170000BD4680BD00380240000002400004024097
:101710000004004080B485B000AF78607B681B682F
:101720000B4A93420DD10023FB600A4B1B6C094A04
:1017300043F004031364074B1B6C03F00403FB60CA
:10174000FB6800BF1437BD465DF8047B704700BFDF
:10175000000800400038024080B485B000AF7860D7
:101760007B681B68154A93420ED10023FB60144B23
:101770005B6C134A43F480335364114B5B6C03F48A
:101780008033FB60FB6812E07B681B680D4A934264
:101790000DD10023BB600A4B1B6C094A43F0400388
:1017A0001364074B1B6C03F04003BB60BB6800BFB6
:1017B0001437BD465DF8047B704700BF0040014010
:1017C000003802400018004080B58AB000AF786051
:1017D00007F1140300221A605A609A60DA601A61F5
:1017E0007B681B68374A93421FD100233B61364B0D
:1017F0001B6B354A43F002031363334B1B6B03F03F
:1018000002033B613B694FF440737B610223BB6180
:101810000023FB6100233B6202237B6207F1140378
:1018200019462A4800F0E6FB47E07B681B68284A17
:1018300093421ED10023FB60234B1B6B224A43F0D3
:1018400010031363204B1B6B03F01003FB60FB685A
:1018500060237B610223BB610023FB6100233B62A9
:1018600003237B6207F1140319461A4800F0C2FBF8
:1018700023E07B681B68184A93421ED10023BB609B
:10188000114B1B6B104A43F0020313630E4B1B6B8F
:1018900003F00203BB60BB684FF400437B6102238B
:1018A000BB610023FB6100233B6209237B6207F1DC
:1018B00014031946054800F09DFB00BF2837BD46BC
:1018C00080BD00BF00080040003802400004024014
:1018D00000400140001002400018004080B58CB06C
:1018E00000AF786007F11C0300221A605A609A600A
:1018F000DA601A617B681B683A4A934234D100234C
:10190000BB61394B1B6C384A43F400331364364BCC
:101910001B6C03F40033BB61BB6900237B61324B5A
:101920001B6B314A43F0080313632F4B1B6B03F00F
:1019300008037B617B696023FB6102233B62002318
:101940007B620323BB620723FB6207F11C0319467A
:10195000264800F04FFB00220021262000F081FAEB
:10196000262000F09AFA39E07B681B68204A9342EF
:1019700034D100233B611C4B1B6C1B4A43F4802376
:101980001364194B1B6C03F480233B613B690023F8
:10199000FB60154B1B6B144A43F008031363124B97
:1019A0001B6B03F00803FB60FB684FF44073FB61A3
:1019B00002233B6200237B620323BB620723FB629B
:1019C00007F11C031946094800F014FB002200210E
:1019D000272000F046FA272000F05FFA00BF3037DA
:1019E000BD4680BD0044004000380240000C02406B
:1019F0000048004080B400AFFEE780B400AFFEE7CF
:101A000080B400AFFEE780B400AFFEE780B400AF63
:101A1000FEE780B400AF00BFBD465DF8047B7047B1
:101A200080B400AF00BFBD465DF8047B704780B452
:101A300000AF00BFBD465DF8047B704780B500AFC6
:101A400000F0F0F800BF80BD80B400AF00BFBD461D
:101A50005DF8047B704780B500AF012000F09AFC70
:101A600000BF80BD80B500AF022000F093FC00BF36
:101A700080BD000080B500AF024802F061F900BFF0
:101A800080BD00BFF401002080B500AF024802F025
:101A900057F900BF80BD00BF3802002080B586B076
:101AA00000AF7860144A154BD31A7B617B693B61A8
:101AB000134B1B68002B02D1114B124A1A60104BBA
:101AC0001A687B6813443A699A4207D202F0FEFF13
:101AD00003460C221A604FF0FF3309E0084B1B68E5
:101AE000FB60074B1A687B681344054A1360FB6868
:101AF00018461837BD4680BD0000022000040000D3
:101B000084060020A006002080B400AF064BD3F866
:101B10008830054A43F47003C2F8883000BFBD46E0
:101B20005DF8047B704700BF00ED00E0DFF834D0C3
:101B30000D480E490E4A002302E0D458C450043325
:101B4000C4188C42F9D30B4A0B4C002301E01360FC
:101B50000432A242FBD3FFF7D7FF02F0BDFFFEF72E
:101B600009FD7047000002200000002070000020E6
:101B70002C5F0008700000209C060020FEE700009B
:101B800080B500AF0E4B1B680D4A43F40073136021
:101B90000B4B1B680A4A43F480631360084B1B68B5
:101BA000074A43F480731360032000F04FF90F20BD
:101BB00000F008F8FFF7DEFC0023184680BD00BFE8
:101BC000003C024080B582B000AF7860124B1A68CA
:101BD000124B1B7819464FF47A73B3FBF1F3B2FB47
:101BE000F3F3184600F067F90346002B01D00123F8
:101BF0000EE07B680F2B0AD8002279684FF0FF3087
:101C000000F02FF9064A7B681360002300E00123EF
:101C100018460837BD4680BD00000020080000209F
:101C20000400002080B400AF064B1B781A46064B18
:101C30001B681344044A136000BFBD465DF8047B73
:101C4000704700BF080000208806002080B400AF65
:101C5000034B1B681846BD465DF8047B704700BF08
:101C60008806002080B584B000AF7860FFF7EEFFF3
:101C7000B8607B68FB60FB68B3F1FF3F05D00A4B9F
:101C80001B781A46FB681344FB6000BFFFF7DEFFBA
:101C90000246BB68D31AFA689A42F7D800BF00BF61
:101CA0001037BD4680BD00BF0800002080B485B05D
:101CB00000AF78607B6803F00703FB600C4BDB68C8
:101CC000BB60BA684FF6FF031340BB60FB681A02A3
:101CD000BB68134343F0BF6343F40033BB60044A63
:101CE000BB68D36000BF1437BD465DF8047B704706
:101CF00000ED00E080B400AF044BDB681B0A03F08A
:101D000007031846BD465DF8047B704700ED00E010
:101D100080B483B000AF0346FB7197F90730002B06
:101D20000BDBFB7903F01F02074997F907305B09CA
:101D3000012000FA02F241F8232000BF0C37BD4613
:101D40005DF8047B704700BF00E100E080B483B021
:101D500000AF03463960FB7197F90730002B0ADBAF
:101D60003B68DAB20C4997F907301201D2B20B4442
:101D700083F800230AE03B68DAB20849FB7903F0F4
:101D80000F03043B1201D2B20B441A7600BF0C378A
:101D9000BD465DF8047B704700E100E000ED00E027
:101DA00080B489B000AFF860B9607A60FB6803F076
:101DB0000703FB61FB69C3F10703042B28BF04235E
:101DC000BB61FB690433062B02D9FB69033B00E0CE
:101DD00000237B614FF0FF32BB6902FA03F3DA4361
:101DE000BB681A407B699A404FF0FF317B6901FA6A
:101DF00003F3D9437B680B40134318462437BD4691
:101E00005DF8047B7047000080B582B000AF786059
:101E10007B68013BB3F1807F01D301230FE00A4AC5
:101E20007B68013B53600F214FF0FF30FFF78EFFBF
:101E3000054B00229A60044B07221A6000231846C3
:101E40000837BD4680BD00BF10E000E080B582B01D
:101E500000AF78607868FFF729FF00BF0837BD46FC
:101E600080BD80B586B000AF0346B9607A60FB7371
:101E700000237B61FFF73EFF78617A68B968786973
:101E8000FFF78EFF024697F90F3011461846FFF70D
:101E90005DFF00BF1837BD4680BD80B582B000AF82
:101EA0000346FB7197F907301846FFF731FF00BF73
:101EB0000837BD4680BD80B582B000AF78607868D5
:101EC000FFF7A2FF034618460837BD4680BD80B520
:101ED00084B000AF78607B689B6DFB60FFF7B6FE57
:101EE000B8607B6893F83530DBB2022B08D07B6892
:101EF00080225A657B68002283F83420012352E057
:101F00007B681B681A687B681B6822F016021A60DF
:101F10007B681B685A697B681B6822F080025A61E3
:101F20007B681B6C002B03D17B689B6C002B07D05C
:101F30007B681B681A687B681B6822F008021A60BD
:101F40007B681B681A687B681B6822F001021A60B4
:101F500013E0FFF77BFE0246BB68D31A052B0CD9B2
:101F60007B6820225A657B68032283F835207B68D2
:101F7000002283F83420032315E07B681B681B686C
:101F800003F00103002BE4D17B68DB6D3F229A4014
:101F9000FB689A607B68012283F835207B68002209
:101FA00083F83420002318461037BD4680BD80B426
:101FB00083B000AF78607B6893F83530DBB2022BDA
:101FC00004D07B6880225A6501230CE07B680522DF
:101FD00083F835207B681B681A687B681B6822F0D1
:101FE00001021A60002318460C37BD465DF8047BD9
:101FF0007047000080B489B000AF7860396000237A
:102000007B6100233B610023BB610023FB616BE12B
:102010000122FB6902FA03F37B613B681B687A6962
:1020200013403B613A697B699A4240F05A813B68B0
:102030005B6803F00303012B05D03B685B6803F08A
:102040000303022B30D17B689B68BB61FB695B009B
:10205000032202FA03F3DB43BA691340BB613B6816
:10206000DA68FB695B0002FA03F3BA691343BB61E8
:102070007B68BA699A607B685B68BB610122FB6917
:1020800002FA03F3DB43BA691340BB613B685B6848
:102090001B0903F00102FB6902FA03F3BA69134357
:1020A000BB617B68BA695A603B685B6803F00303F5
:1020B000032B17D07B68DB68BB61FB695B000322E5
:1020C00002FA03F3DB43BA691340BB613B689A68C9
:1020D000FB695B0002FA03F3BA691343BB617B68D7
:1020E000BA69DA603B685B6803F00303022B23D113
:1020F000FB69DA087B68083253F82230BB61FB6960
:1021000003F007039B000F2202FA03F3DB43BA69D3
:102110001340BB613B681A69FB6903F007039B002E
:1021200002FA03F3BA691343BB61FB69DA087B68FF
:102130000832B96943F822107B681B68BB61FB69F0
:102140005B00032202FA03F3DB43BA691340BB616D
:102150003B685B6803F00302FB695B0002FA03F370
:10216000BA691343BB617B68BA691A603B685B68F4
:1021700003F44033002B00F0B4800023FB60604B7D
:102180005B6C5F4A43F4804353645D4B5B6C03F4C8
:102190008043FB60FB685B4AFB699B08023352F893
:1021A0002330BB61FB6903F003039B000F2202FA9B
:1021B00003F3DB43BA691340BB617B68524A934225
:1021C0002BD07B68514A934225D07B68504A93427A
:1021D0001FD07B684F4A934219D07B684E4A934286
:1021E00013D07B684D4A93420DD07B684C4A934292
:1021F00007D07B684B4A934201D107230EE00823A6
:102200000CE006230AE0052308E0042306E003238C
:1022100004E0022302E0012300E00023FA6902F057
:10222000030292009340BA691343BB613549FB69CD
:102230009B080233BA6941F823203B4B9B68BB6182
:102240003B69DB43BA691340BB613B685B6803F4DD
:102250008013002B03D0BA693B691343BB61324A38
:10226000BB699360304BDB68BB613B69DB43BA6998
:102270001340BB613B685B6803F40013002B03D081
:10228000BA693B691343BB61274ABB69D360264BDC
:102290005B68BB613B69DB43BA691340BB613B6868
:1022A0005B6803F40033002B03D0BA693B69134326
:1022B000BB611D4ABB6953601B4B1B68BB613B691B
:1022C000DB43BA691340BB613B685B6803F480334E
:1022D000002B03D0BA693B691343BB61124ABB6947
:1022E0001360FB690133FB61FB690F2B7FF690AE36
:1022F00000BF00BF2437BD465DF8047B704700BFB8
:102300000038024000380140000002400004024052
:1023100000080240000C024000100240001402407D
:1023200000180240001C0240003C014080B483B011
:1023300000AF78600B467B8013467B707B78002B68
:1023400003D07A887B689A6103E07B881A047B68F3
:102350009A6100BF0C37BD465DF8047B704780B4BE
:1023600085B000AF78600B467B807B685B69FB6063
:102370007A88FB6813401A04FB68D9437B880B40BA
:102380001A437B689A6100BF1437BD465DF8047B31
:102390007047000080B582B000AF0346FB80084B59
:1023A0005A69FB881340002B06D0054AFB8853610D
:1023B000FB881846FEF7CAFC00BF0837BD4680BD43
:1023C000003C014080B483B000AF064B01221A608C
:1023D000054B1B687B607B6800BF0C37BD465DF812
:1023E000047B704720000E420070004080B483B030
:1023F00000AF064B00221A60054B1B687B607B68B0
:1024000000BF0C37BD465DF8047B704720000E42CC
:102410000070004080B586B000AF78607B68002B0C
:1024200001D1012367E27B681B6803F00103002BE5
:1024300075D0884B9B6803F00C03042B0CD0854BA4
:102440009B6803F00C03082B12D1824B5B6803F4EA
:102450008003B3F5800F0BD17E4B1B6803F4003370
:10246000002B5BD07B685B68002B57D1012342E2D5
:102470007B685B68B3F5803F06D1764B1B68754A75
:1024800043F4803313601DE07B685B68B3F5A02FD5
:102490000CD1704B1B686F4A43F4802313606D4B63
:1024A0001B686C4A43F4803313600BE0694B1B6874
:1024B000684A23F480331360664B1B68654A23F433
:1024C000802313607B685B68002B13D0FFF7BEFB93
:1024D000386108E0FFF7BAFB02463B69D31A642B68
:1024E00001D9032307E25B4B1B6803F40033002B85
:1024F000F0D014E0FFF7AAFB386108E0FFF7A6FB75
:1025000002463B69D31A642B01D90323F3E1514BF3
:102510001B6803F40033002BF0D100E000BF7B68A0
:102520001B6803F00203002B63D04A4B9B6803F047
:102530000C03002B0BD0474B9B6803F00C03082BBC
:102540001CD1444B5B6803F48003002B16D1414B34
:102550001B6803F00203002B05D07B68DB68012BAE
:1025600001D00123C7E13B4B1B6823F0F8027B68D5
:102570001B69DB00374913430B603AE07B68DB687B
:10258000002B20D0344B01221A60FFF75FFB38612B
:1025900008E0FFF75BFB02463B69D31A022B01D927
:1025A0000323A8E12B4B1B6803F00203002BF0D0A0
:1025B000284B1B6823F0F8027B681B69DB00254968
:1025C00013430B6015E0244B00221A60FFF73EFB1B
:1025D000386108E0FFF73AFB02463B69D31A022B49
:1025E00001D9032387E11B4B1B6803F00203002B77
:1025F000F0D17B681B6803F00803002B36D07B68A2
:102600005B69002B16D0154B01221A60FFF71EFBE9
:10261000386108E0FFF71AFB02463B69D31A022B28
:1026200001D9032367E10B4B5B6F03F00203002B1F
:10263000F0D01BE0094B00221A60FFF707FB38615E
:102640000EE0FFF703FB02463B69D31A022B07D9C2
:10265000032350E10038024000004742800E474209
:10266000884B5B6F03F00203002BEAD17B681B6889
:1026700003F00403002B00F097800023FB75814BCF
:102680001B6C03F08053002B0FD10023BB607D4BEC
:102690001B6C7C4A43F0805313647A4B1B6C03F031
:1026A0008053BB60BB680123FB75774B1B6803F449
:1026B0008073002B18D1744B1B68734A43F48073EA
:1026C0001360FFF7C3FA386108E0FFF7BFFA02466C
:1026D0003B69D31A022B01D903230CE16A4B1B6817
:1026E00003F48073002BF0D07B689B68012B06D12C
:1026F000644B1B6F634A43F0010313671CE07B6864
:102700009B68052B0CD15F4B1B6F5E4A43F00403A3
:1027100013675C4B1B6F5B4A43F0010313670BE0CD
:10272000584B1B6F574A23F001031367554B1B6F20
:10273000544A23F0040313677B689B68002B15D071
:10274000FFF784FA38610AE0FFF780FA02463B6936
:10275000D31A41F28832934201D90323CBE0494B8B
:102760001B6F03F00203002BEED014E0FFF76EFAAC
:1027700038610AE0FFF76AFA02463B69D31A41F270
:102780008832934201D90323B5E03E4B1B6F03F01F
:102790000203002BEED1FB7D012B05D1394B1B6CC5
:1027A000384A23F0805313647B689B69002B00F048
:1027B000A180344B9B6803F00C03082B5CD07B6832
:1027C0009B69022B41D1314B00221A60FFF73EFA80
:1027D000386108E0FFF73AFA02463B69D31A022B48
:1027E00001D9032387E0274B1B6803F00073002BFC
:1027F000F0D17B68DA697B681B6A1A437B685B6A85
:102800009B011A437B689B6A5B08013B1B041A43CC
:102810007B68DB6A1B061B4913434B601B4B012281
:102820001A60FFF713FA386108E0FFF70FFA024663
:102830003B69D31A022B01D903235CE0114B1B68BF
:1028400003F00073002BF0D054E0104B00221A600C
:10285000FFF7FCF9386108E0FFF7F8F902463B6939
:10286000D31A022B01D9032345E0064B1B6803F062
:102870000073002BF0D13DE07B689B69012B07D1F1
:10288000012338E0003802400070004060004742F9
:102890001B4B5B68FB607B689B69012B28D0FB6846
:1028A00003F480027B68DB699A4221D1FB6803F064
:1028B0003F027B681B6A9A421AD1FA6847F6C073D6
:1028C00013407A68526A9201934211D1FB6803F473
:1028D00040327B689B6A5B08013B1B049A4207D12C
:1028E000FB6803F070627B68DB6A1B069A4201D0CA
:1028F000012300E0002318461837BD4680BD00BF05
:102900000038024080B584B000AF786039607B68E1
:10291000002B01D10123CCE0684B1B6803F00703B7
:102920003A689A420CD9654B3A68D2B21A70634B36
:102930001B6803F007033A689A4201D00123B8E00C
:102940007B681B6803F00203002B20D07B681B68A8
:1029500003F00403002B05D0594B9B68584A43F4FD
:10296000E05393607B681B6803F00803002B05D0DD
:10297000534B9B68524A43F460439360504B9B68AF
:1029800023F0F0027B689B684D4913438B607B68A2
:102990001B6803F00103002B44D07B685B68012BAC
:1029A00007D1474B1B6803F40033002B19D10123D7
:1029B0007FE07B685B68022B03D07B685B68032B3E
:1029C00007D13F4B1B6803F00073002B09D1012393
:1029D0006FE03B4B1B6803F00203002B01D1012386
:1029E00067E0374B9B6823F003027B685B683449E0
:1029F00013438B60FFF72AF9F8600AE0FFF726F926
:102A00000246FB68D31A41F28832934201D903236C
:102A10004FE02B4B9B6803F00C027B685B689B00CC
:102A20009A42EBD1254B1B6803F007033A689A42A0
:102A30000CD2224B3A68D2B21A70204B1B6803F0BA
:102A400007033A689A4201D0012332E07B681B6891
:102A500003F00403002B08D0194B9B6823F4E052C9
:102A60007B68DB68164913438B607B681B6803F047
:102A70000803002B09D0124B9B6823F460427B684B
:102A80001B69DB000E4913438B6000F021F80246FE
:102A90000B4B9B681B0903F00F030A49CB5C22FA1E
:102AA00003F3094A1360094B1B681846FFF78AF8BD
:102AB000002318461037BD4680BD00BF003C0240D1
:102AC00000380240D05E0008000000200400002012
:102AD0002DE9B04F94B000AF00237B640023FB646A
:102AE00000233B640023BB64794B9B6803F00C0319
:102AF000082B0DD0082B00F2E180002B02D0042B14
:102B000003D0DBE0734BBB64DBE0734BBB64D8E00A
:102B10006F4B5B6803F03F037B646D4B5B6803F4B2
:102B20008003002B63D06A4B5B689B090022BB6368
:102B3000FA63BB6BC3F308033B6300237B63D7E9F2
:102B40000C4522462B464FF000004FF00001590182
:102B500041EAD261500102460B462146511A3961C1
:102B6000294663EB01037B614FF000024FF0000345
:102B7000D7E904AB59468B01514643EA916351466C
:102B80008A015146B2EB0108594663EB01094FF047
:102B900000024FF000034FEAC90343EA58734FEABB
:102BA000C80290469946234618EB0303BB602B46A8
:102BB00049EB0303FB604FF000024FF00003D7E93D
:102BC000024529464B02214643EAD15321464A0297
:102BD000104619467B6C0022BB62FA62D7E90A23D1
:102BE000FDF746FB02460B461346FB6458E0384BA4
:102BF0005B689B09002218461146C0F308033B623C
:102C000000237B62D7E9088942464B464FF000001B
:102C10004FF00001590141EAD261500102460B46D2
:102C20004146B2EB010A494663EB010B4FF000024B
:102C30004FF000034FEA8B1343EA9A634FEA8A127C
:102C4000B2EB0A0463EB0B054FF000024FF00003F8
:102C5000EB0043EA5473E20014461D464346E31872
:102C60003B604B4645EB03037B604FF000024FF0A7
:102C70000003D7E9004529468B02214643EA9153D8
:102C800021468A02104619467B6C0022BB61FA611C
:102C9000D7E90623FDF7ECFA02460B461346FB6420
:102CA0000B4B5B681B0C03F0030301335B003B64BD
:102CB000FA6C3B6CB2FBF3F3BB6402E0054BBB6404
:102CC00000BFBB6C18465037BD46BDE8B08F00BF93
:102CD000003802400024F40000127A0080B400AFF3
:102CE000034B1B681846BD465DF8047B704700BF68
:102CF0000000002080B500AFFFF7F0FF0246054B53
:102D00009B689B0A03F007030349CB5C22FA03F399
:102D1000184680BD00380240E05E000880B500AF74
:102D2000FFF7DCFF0246054B9B685B0B03F00703D4
:102D30000349CB5C22FA03F3184680BD00380240F9
:102D4000E05E000880B582B000AF78607B68002B41
:102D500001D1012341E07B6893F83D30DBB2002BC9
:102D600006D17B68002283F83C207868FEF7D2FC0D
:102D70007B68022283F83D207B681A687B680433F5
:102D80001946104600F002FC7B68012283F84620B9
:102D90007B68012283F83E207B68012283F83F2074
:102DA0007B68012283F840207B68012283F8412060
:102DB0007B68012283F842207B68012283F843204C
:102DC0007B68012283F844207B68012283F8452038
:102DD0007B68012283F83D20002318460837BD4652
:102DE00080BD80B582B000AF78607B68002B01D1D8
:102DF000012341E07B6893F83D30DBB2002B06D124
:102E00007B68002283F83C207868FEF7A5FC7B688D
:102E1000022283F83D207B681A687B6804331946D8
:102E2000104600F0B3FB7B68012283F846207B68E4
:102E3000012283F83E207B68012283F83F207B68D3
:102E4000012283F840207B68012283F841207B68BF
:102E5000012283F842207B68012283F843207B68AB
:102E6000012283F844207B68012283F845207B6897
:102E7000012283F83D20002318460837BD4680BD57
:102E800080B584B000AF786039603B68002B09D111
:102E90007B6893F83E30DBB2012B14BF0123002383
:102EA000DBB222E03B68042B09D17B6893F83F300A
:102EB000DBB2012B14BF01230023DBB215E03B681A
:102EC000082B09D17B6893F84030DBB2012B14BF8B
:102ED00001230023DBB208E07B6893F84130DBB2CA
:102EE000012B14BF01230023DBB2002B01D00123EF
:102EF0007CE03B68002B04D17B68022283F83E20F3
:102F000013E03B68042B04D17B68022283F83F2046
:102F10000BE03B68082B04D17B68022283F8402039
:102F200003E07B68022283F841207B681B68012252
:102F30003968184600F014FE7B681B682D4A9342DE
:102F400004D07B681B682C4A934201D1012300E026
:102F50000023002B07D07B681B685A6C7B681B68BA
:102F600042F400425A647B681B68224A934222D092
:102F70007B681B68B3F1804F1DD07B681B681F4ABC
:102F8000934218D07B681B681D4A934213D07B681C
:102F90001B681C4A93420ED07B681B68164A9342FA
:102FA00009D07B681B68184A934204D07B681B6871
:102FB000164A934211D17B681B689B6803F0070394
:102FC000FB60FB68062B10D07B681B681A687B6867
:102FD0001B6842F001021A6007E07B681B681A68F0
:102FE0007B681B6842F001021A6000231846103704
:102FF000BD4680BD000001400004014000040040C7
:1030000000080040000C0040004001400018004053
:1030100080B586B000AF786039607B68002B01D145
:10302000012397E07B6893F83D30DBB2002B06D19B
:103030007B68002283F83C207868FEF7D1FA7B6831
:10304000022283F83D207B681B689B687A681268BF
:1030500023F4804323F0070393607B681A687B683E
:1030600004331946104600F091FA7B681B689B6890
:103070007B617B681B689B693B617B681B681B6A83
:10308000FB603B681B687A6913437B613B6923F4EF
:10309000407323F003033B613B689A683B689B697C
:1030A0001B0213433A6913433B613B6923F44063BA
:1030B00023F00C033B613B6923F4704323F0F003DE
:1030C0003B613B68DA683B68DB691B0213433A6982
:1030D00013433B613B681B691A013B681B6A1B0376
:1030E00013433A6913433B61FB6823F02203FB60FF
:1030F000FB6823F08803FB603B685A683B685B69A8
:103100001B011343FA681343FB607B681B687A69F1
:103110009A607B681B683A699A617B681B68FA68E9
:103120001A627B68012283F846207B68012283F8BB
:103130003E207B68012283F83F207B68012283F8D0
:1031400042207B68012283F843207B68012283F8B8
:103150003D20002318461837BD4680BD80B584B099
:1031600000AF786039607B6893F83E30FB737B6812
:1031700093F83F30BB737B6893F842307B737B6876
:1031800093F843303B733B68002B10D1FB7B012B42
:1031900002D17B7B012B01D0012369E07B680222F5
:1031A00083F83E207B68022283F8422031E03B68AE
:1031B000042B10D1BB7B012B02D13B7B012B01D017
:1031C000012355E07B68022283F83F207B680222BE
:1031D00083F843201DE0FB7B012B08D1BB7B012B37
:1031E00005D17B7B012B02D13B7B012B01D001233D
:1031F0003EE07B68022283F83E207B68022283F84F
:103200003F207B68022283F842207B68022283F8F9
:1032100043203B68002B03D03B68042B08D00FE011
:103220007B681B6801220021184600F099FC16E01B
:103230007B681B6801220421184600F091FC0EE017
:103240007B681B6801220021184600F089FC7B681E
:103250001B6801220421184600F082FC00BF7B6835
:103260001B681A687B681B6842F001021A60002321
:1032700018461037BD4680BD80B586B000AFF860F7
:10328000B9607A600023FB75FB6893F83C30012B32
:1032900001D10223AEE0FB68012283F83C207B6869
:1032A0000C2B00F29F8001A252F823F0E1320008BB
:1032B000E5330008E5330008E53300082133000852
:1032C000E5330008E5330008E53300086333000800
:1032D000E5330008E5330008E5330008A3330008B0
:1032E000FB681B68B968184600F0F0F9FB681B68BA
:1032F0009A69FB681B6842F008029A61FB681B68C8
:103300009A69FB681B6822F004029A61FB681B68DB
:103310009969BB681A69FB681B680A439A6164E093
:10332000FB681B68B968184600F040FAFB681B6828
:103330009A69FB681B6842F400629A61FB681B682B
:103340009A69FB681B6822F480629A61FB681B68BB
:103350009969BB681B691A02FB681B680A439A617A
:1033600043E0FB681B68B968184600F095FAFB68F3
:103370001B68DA69FB681B6842F00802DA61FB68C7
:103380001B68DA69FB681B6822F00402DA61FB68DB
:103390001B68D969BB681A69FB681B680A43DA6154
:1033A00023E0FB681B68B968184600F0E9FAFB687F
:1033B0001B68DA69FB681B6842F40062DA61FB682B
:1033C0001B68DA69FB681B6822F48062DA61FB68BB
:1033D0001B68D969BB681B691A02FB681B680A4332
:1033E000DA6102E00123FB7500BFFB68002283F86D
:1033F0003C20FB7D18461837BD4680BD80B584B0A3
:1034000000AF786039600023FB737B6893F83C3031
:10341000012B01D10223B4E07B68012283F83C2018
:103420007B68022283F83D207B681B689B68BB6039
:10343000BB6823F07703BB60BB6823F47F43BB60AA
:103440007B681B68BA689A603B681B68B3F5005FCD
:103450003ED0B3F5005F00F28780B3F5805F00F0E7
:103460008680B3F5805F7FD8702B1AD0702B7BD805
:10347000602B50D0602B77D8502B3CD0502B73D87A
:10348000402B58D0402B6FD8302B64D0302B6BD8CA
:10349000202B60D0202B67D8002B5CD0102B5AD06B
:1034A00062E07B6818683B6899683B685A683B68CB
:1034B000DB6800F035FB7B681B689B68BB60BB6802
:1034C00043F07703BB607B681B68BA689A604FE083
:1034D0007B6818683B6899683B685A683B68DB689A
:1034E00000F01EFB7B681B689A687B681B6842F4CF
:1034F00080429A603CE07B6818683B6859683B688A
:10350000DB681A4600F092FA7B681B685021184667
:1035100000F0EBFA2CE07B6818683B6859683B6860
:10352000DB681A4600F0B1FA7B681B686021184618
:1035300000F0DBFA1CE07B6818683B6859683B6860
:10354000DB681A4600F072FA7B681B684021184657
:1035500000F0CBFA0CE07B681A683B681B681946E0
:10356000104600F0C2FA03E00123FB7300E000BF45
:103570007B68012283F83D207B68002283F83C2091
:10358000FB7B18461037BD4680BD000080B485B077
:1035900000AF786039607B681B68FB607B68404ADD
:1035A000934213D07B68B3F1804F0FD07B683D4AC4
:1035B00093420BD07B683C4A934207D07B683B4ADE
:1035C000934203D07B683A4A934208D1FB6823F0C8
:1035D0007003FB603B685B68FA681343FB607B68C1
:1035E0002F4A93422BD07B68B3F1804F27D07B6862
:1035F0002C4A934223D07B682B4A93421FD07B688E
:103600002A4A93421BD07B68294A934217D07B6891
:10361000284A934213D07B68274A93420FD07B6895
:10362000264A93420BD07B68254A934207D07B6899
:10363000244A934203D07B68234A934208D1FB6813
:1036400023F44073FB603B68DB68FA681343FB605C
:10365000FB6823F080023B685B691343FB607B6877
:10366000FA681A603B689A687B68DA623B681A6895
:103670007B689A627B680A4A934203D07B680C4A53
:10368000934203D13B681A697B681A637B68012205
:103690005A6100BF1437BD465DF8047B704700BF18
:1036A000000001400004004000080040000C004001
:1036B0000004014000400140004401400048014036
:1036C00000180040001C00400020004080B487B07B
:1036D00000AF786039607B681B6A23F001027B6869
:1036E0001A627B681B6A7B617B685B683B617B68F5
:1036F0009B69FB60FB6823F07003FB60FB6823F0B1
:103700000303FB603B681B68FA681343FB607B693B
:1037100023F002037B613B689B687A6913437B61FA
:103720007B68204A934203D07B681F4A93420CD1A6
:103730007B6923F008037B613B68DB687A6913438C
:103740007B617B6923F004037B617B68154A9342AC
:1037500003D07B68144A934211D13B6923F48073F0
:103760003B613B6923F400733B613B685B693A69E9
:1037700013433B613B689B693A6913433B617B6838
:103780003A695A607B68FA689A613B685A687B6854
:103790005A637B687A691A6200BF1C37BD465DF8C0
:1037A000047B7047000001400004014080B487B0F2
:1037B00000AF786039607B681B6A23F010027B6879
:1037C0001A627B681B6A7B617B685B683B617B6814
:1037D0009B69FB60FB6823F4E043FB60FB6823F418
:1037E0004073FB603B681B681B02FA681343FB6075
:1037F0007B6923F020037B613B689B681B017A692E
:1038000013437B617B68224A934203D07B68214A41
:1038100093420DD17B6923F080037B613B68DB68B9
:103820001B017A6913437B617B6923F040037B6151
:103830007B68174A934203D07B68164A934213D1A0
:103840003B6923F480633B613B6923F400633B6184
:103850003B685B699B003A6913433B613B689B692A
:103860009B003A6913433B617B683A695A607B6805
:10387000FA689A613B685A687B689A637B687A69E0
:103880001A6200BF1C37BD465DF8047B704700BF5D
:10389000000001400004014080B487B000AF7860B0
:1038A00039607B681B6A23F480727B681A627B68CC
:1038B0001B6A7B617B685B683B617B68DB69FB60E3
:1038C000FB6823F07003FB60FB6823F00303FB60DD
:1038D0003B681B68FA681343FB607B6923F4007341
:1038E0007B613B689B681B027A6913437B617B6841
:1038F000214A934203D07B68204A93420DD17B69D1
:1039000023F400637B613B68DB681B027A69134325
:103910007B617B6923F480637B617B68164A9342F9
:1039200003D07B68154A934213D13B6923F480533B
:103930003B613B6923F400533B613B685B691B01BE
:103940003A6913433B613B689B691B013A69134326
:103950003B617B683A695A607B68FA68DA613B6868
:103960005A687B68DA637B687A691A6200BF1C3721
:10397000BD465DF8047B7047000001400004014033
:1039800080B487B000AF786039607B681B6A23F42D
:1039900080527B681A627B681B6A3B617B685B684C
:1039A0007B617B68DB69FB60FB6823F4E043FB60C1
:1039B000FB6823F44073FB603B681B681B02FA68DA
:1039C0001343FB603B6923F400533B613B689B68F6
:1039D0001B033A6913433B617B68124A934203D04D
:1039E0007B68114A934209D17B6923F480437B6150
:1039F0003B685B699B017A6913437B617B687A69E9
:103A00005A607B68FA68DA613B685A687B681A64B6
:103A10007B683A691A6200BF1C37BD465DF8047BBB
:103A2000704700BF000001400004014080B487B02F
:103A300000AFF860B9607A60FB681B6A7B61FB6865
:103A40001B6A23F00102FB681A62FB689B693B61F9
:103A50003B6923F0F0033B617B681B013A69134328
:103A60003B617B6923F00A037B617A69BB6813437E
:103A70007B61FB683A699A61FB687A691A6200BFE8
:103A80001C37BD465DF8047B704780B487B000AF3B
:103A9000F860B9607A60FB681B6A23F01002FB686B
:103AA0001A62FB689B697B61FB681B6A3B617B69EF
:103AB00023F470437B617B681B037A6913437B614A
:103AC0003B6923F0A0033B61BB681B013A691343C8
:103AD0003B61FB687A699A61FB683A691A6200BFC8
:103AE0001C37BD465DF8047B704780B485B000AFDD
:103AF000786039607B689B68FB60FB6823F070032B
:103B0000FB603A68FB68134343F00703FB607B6884
:103B1000FA689A6000BF1437BD465DF8047B7047B1
:103B200080B487B000AFF860B9607A603B60FB6832
:103B30009B687B617B6923F47F437B613B681A024E
:103B40007B681A43BB6813437A6913437B61FB6844
:103B50007A699A6000BF1C37BD465DF8047B7047E8
:103B600080B487B000AFF860B9607A60BB6803F0DA
:103B70001F03012202FA03F37B61FB681A6A7B6967
:103B8000DB431A40FB681A62FB681A6ABB6803F0E1
:103B90001F03796801FA03F31A43FB681A6200BF36
:103BA0001C37BD465DF8047B7047000080B485B0CB
:103BB00000AF786039607B6893F83C30012B01D10D
:103BC00002235AE07B68012283F83C207B680222B2
:103BD00083F83D207B681B685B68FB607B681B6823
:103BE0009B68BB60FB6823F07003FB603B681B684D
:103BF000FA681343FB607B681B68FA685A607B684D
:103C00001B68214A934222D07B681B68B3F1804F26
:103C10001DD07B681B681D4A934218D07B681B68C7
:103C20001B4A934213D07B681B681A4A93420ED0FA
:103C30007B681B68184A934209D07B681B68174A47
:103C4000934204D07B681B68154A93420CD1BB6831
:103C500023F08003BB603B685B68BA681343BB60BA
:103C60007B681B68BA689A607B68012283F83D20F4
:103C70007B68002283F83C20002318461437BD4699
:103C80005DF8047B704700BF000001400004004065
:103C900000080040000C00400004014000400140CA
:103CA0000018004080B582B000AF78607B68002BC0
:103CB00001D101233FE07B6893F83D30DBB2002B5C
:103CC00006D17B68002283F83C207868FDF706FE69
:103CD0007B68242283F83D207B681B68DA687B6858
:103CE0001B6822F40052DA60786800F07BFC7B6885
:103CF0001B681A697B681B6822F490421A617B6812
:103D00001B685A697B681B6822F02A025A617B682B
:103D10001B68DA687B681B6842F40052DA607B68D3
:103D200000221A647B68202283F83D207B682022D1
:103D300083F83E20002318460837BD4680BD0000AA
:103D400080B5BAB000AF78607B681B681B68C7F8A5
:103D5000E4307B681B68DB68C7F8E0307B681B6871
:103D60005B69C7F8DC300023C7F8D8300023C7F8F8
:103D7000D430D7F8E43003F00F03C7F8D830D7F8C1
:103D8000D830002B0FD1D7F8E43003F02003002BFC
:103D900009D0D7F8E03003F02003002B03D0786877
:103DA00000F065FB56E2D7F8D830002B00F0DE803B
:103DB000D7F8DC3003F00103002B06D1D7F8E03050
:103DC00003F49073002B00F0D180D7F8E43003F0B7
:103DD0000103002B0BD0D7F8E03003F48073002BE5
:103DE00005D07B681B6C43F001027B681A64D7F82E
:103DF000E43003F00403002B0BD0D7F8DC3003F0E1
:103E00000103002B05D07B681B6C43F002027B682A
:103E10001A64D7F8E43003F00203002B0BD0D7F874
:103E2000DC3003F00103002B05D07B681B6C43F0F2
:103E300004027B681A64D7F8E43003F00803002B0F
:103E400011D0D7F8E03003F02003002B05D1D7F8CC
:103E5000DC3003F00103002B05D07B681B6C43F0C2
:103E600008027B681A647B681B6C002B00F0ED81F4
:103E7000D7F8E43003F02003002B08D0D7F8E03067
:103E800003F02003002B02D0786800F0F0FA7B6882
:103E90001B685B6903F04003402B0CBF0123002328
:103EA000DBB2C7F8D4307B681B6C03F00803002B2F
:103EB00003D1D7F8D430002B4FD0786800F0F8F950
:103EC0007B681B685B6903F04003402B41D17B6832
:103ED0001B681433C7F89C30D7F89C3053E8003F78
:103EE000C7F89830D7F8983023F04003C7F8D0309F
:103EF0007B681B681433D7F8D020C7F8A820C7F810
:103F0000A430D7F8A410D7F8A82041E80023C7F8B8
:103F1000A030D7F8A030002BD9D17B689B6B002B49
:103F200013D07B689B6B7D4A1A657B689B6B184638
:103F3000FEF73DF80346002B16D07B689B6B1B6D8C
:103F40007A68926B104698470EE0786800F09AF90C
:103F50000AE0786800F096F906E0786800F092F9D7
:103F60007B6800221A6470E100BF6EE17B681B6B06
:103F7000012B40F04A81D7F8E43003F01003002B06
:103F800000F04381D7F8E03003F01003002B00F07D
:103F90003C810023BB607B681B681B68BB607B683F
:103FA0001B685B68BB60BB687B681B685B6903F070
:103FB0004003402B40F0B4807B689B6B1B685B68C0
:103FC000A7F8BE30B7F8BE30002B00F040817B6808
:103FD0009B8DB7F8BE209A4280F039817B68B7F894
:103FE000BE20DA857B689B6BDB69B3F5807F00F0D0
:103FF00088807B681B680C33C7F88830D7F8883016
:1040000053E8003FC7F88430D7F8843023F4807336
:10401000C7F8B8307B681B680C33D7F8B820C7F8EE
:104020009420C7F89030D7F89010D7F8942041E842
:104030000023C7F88C30D7F88C30002BD9D17B689F
:104040001B6814337B677B6F53E8003F3B673B6F14
:1040500023F00103C7F8B4307B681B681433D7F82A
:10406000B420C7F88020FB67F96FD7F8802041E8BB
:104070000023BB67BB6F002BE1D17B681B68143347
:104080003B663B6E53E8003FFB65FB6D23F040034E
:10409000C7F8B0307B681B681433D7F8B020FA66D5
:1040A000BB66B96EFA6E41E800237B667B6E002B1F
:1040B000E3D17B68202283F83E207B6800221A63CC
:1040C0007B681B680C33FB64FB6C53E8003FBB64EC
:1040D000BB6C23F01003C7F8AC307B681B680C3353
:1040E000D7F8AC20BA657B65796DBA6D41E80023DD
:1040F0003B653B6D002BE3D17B689B6B1846FDF75E
:10410000E6FE7B689A8D7B68DB8D9BB2D31A9BB2EF
:104110001946786800F0C0F899E000BF77430008BE
:104120007B689A8D7B68DB8D9BB2D31AA7F8CE3063
:104130007B68DB8D9BB2002B00F08B80B7F8CE3014
:10414000002B00F086807B681B680C33BB63BB6B65
:1041500053E8003F7B637B6B23F49073C7F8C83050
:104160007B681B680C33D7F8C8207A643B64396CD1
:104170007A6C41E80023FB63FB6B002BE3D17B6887
:104180001B6814337B627B6A53E8003F3B623B6AE7
:1041900023F00103C7F8C4307B681B681433D7F8D9
:1041A000C4203A63FB62F96A3A6B41E80023BB62C0
:1041B000BB6A002BE3D17B68202283F83E207B681A
:1041C00000221A637B681B680C333B613B6953E830
:1041D000003FFB60FB6823F01003C7F8C0307B682A
:1041E0001B680C33D7F8C020FA61BB61B969FA6962
:1041F00041E800237B617B69002BE3D1B7F8CE3027
:104200001946786800F048F823E0D7F8E43003F066
:104210008003002B09D0D7F8E03003F08003002B97
:1042200003D0786800F0BBF814E0D7F8E43003F06E
:104230004003002B0ED0D7F8E03003F04003002BF2
:1042400008D0786800F0FBF804E000BF02E000BF8F
:1042500000E000BFE837BD4680BD00BF80B483B03A
:1042600000AF786000BF0C37BD465DF8047B704737
:1042700080B483B000AF786000BF0C37BD465DF8F6
:10428000047B704780B483B000AF786000BF0C3708
:10429000BD465DF8047B704780B483B000AF7860A2
:1042A0000B467B8000BF0C37BD465DF8047B704732
:1042B00080B495B000AF78607B681B680C337B637B
:1042C0007B6B53E8003F3B633B6B23F49073FB64D1
:1042D0007B681B680C33FA6C3A64FB63F96B3A6CCD
:1042E00041E80023BB63BB6B002BE5D17B681B68F7
:1042F00014333B623B6A53E8003FFB61FB6923F0E8
:104300000103BB647B681B681433BA6CFA62BB623E
:10431000B96AFA6A41E800237B627B6A002BE5D127
:104320007B681B6B012B19D17B681B680C33FB600E
:10433000FB6853E8003FBB60BB6823F010037B645D
:104340007B681B680C337A6CBA617B617969BA69E6
:1043500041E800233B613B69002BE5D17B682022CB
:1043600083F83E207B6800221A6300BF5437BD46A5
:104370005DF8047B704780B584B000AF78607B68DF
:104380009B6BFB60FB680022DA85FB680022DA8405
:10439000F868FFF777FF00BF1037BD4680BD80B4D7
:1043A00085B000AF78607B6893F83D30DBB2212B9D
:1043B0003ED17B689B68B3F5805F14D17B681B6935
:1043C000002B10D17B681B6AFB60FB681B881A46B8
:1043D0007B681B68C2F308025A607B681B6A9A1CE0
:1043E0007B681A6208E07B681B6A591C7A68116254
:1043F0001A787B681B685A607B68DB8C9BB2013B38
:104400009BB27A681946D184002B0FD17B681B6858
:10441000DA687B681B6822F08002DA607B681B68C0
:10442000DA687B681B6842F04002DA60002300E033
:10443000022318461437BD465DF8047B704780B5EB
:1044400082B000AF78607B681B68DA687B681B68A5
:1044500022F04002DA607B68202283F83D207868F1
:10446000FFF7FCFE002318460837BD4680BD80B527
:104470008CB000AF78607B6893F83E30DBB2222BC3
:1044800040F0AB807B689B68B3F5805F17D17B6899
:104490001B69002B13D10023FB627B689B6ABB6204
:1044A0007B681B685B689BB2C3F308039AB2BB6A64
:1044B0001A807B689B6A9A1C7B689A6226E07B68FC
:1044C0009B6AFB620023BB627B689B68B3F5805FDD
:1044D00007D07B689B68002B0AD17B681B69002B87
:1044E00006D17B681B685B68DAB2FB6A1A7008E069
:1044F0007B681B685B68DBB203F07F03DAB2FB6AA0
:104500001A707B689B6A5A1C7B689A627B68DB8D99
:104510009BB2013B9BB27A681946D185002B5AD1D8
:104520007B681B68DA687B681B6822F02002DA600F
:104530007B681B68DA687B681B6822F48072DA602B
:104540007B681B685A697B681B6822F001025A610C
:104550007B68202283F83E207B681B6B012B35D1C2
:104560007B6800221A637B681B680C337B617B6964
:1045700053E8003F3B613B6923F010037B627B689B
:104580001B680C337A6A3A62FB61F9693A6A41E85E
:104590000023BB61BB69002BE5D17B681B681B68EE
:1045A00003F01003102B0AD10023FB607B681B680B
:1045B0001B68FB607B681B685B68FB60FB687B6853
:1045C0009B8D19467868FFF767FE02E07868FFF771
:1045D0004FFE002302E0002300E00223184630379C
:1045E000BD4680BD2DE9B04FC0B000AFC7F8F400A4
:1045F000D7F8F4301B681B6923F44050D7F8F43027
:10460000D968D7F8F4301A6840EA01031361D7F883
:10461000F4309A68D7F8F4301B691A43D7F8F430AD
:104620005B691A43D7F8F430DB691343C7F8F830F5
:10463000D7F8F4301B68DB6823F4164121F00C0135
:10464000D7F8F4301A68D7F8F8300B43D360D7F8AE
:10465000F4301B685B6923F44070D7F8F430996933
:10466000D7F8F4301A6840EA01035361D7F8F43000
:104670001A688F4B9A4205D0D7F8F4301A688D4BE0
:104680009A4204D1FEF74AFBC7F8FC0003E0FEF7AC
:1046900031FBC7F8FC00D7F8F430DB69B3F5004F05
:1046A00040F00C81D7F8FC300022C7F8E830C7F89A
:1046B000EC20D7E93A4522462B469118B9655B4173
:1046C000FB65D7E91623214612EB0108294643EB87
:1046D00001094FF000024FF000034FEAC90343EA1B
:1046E00058734FEAC80290469946234618EB0303D5
:1046F000C7F8E0302B4649EB0303C7F8E430D7F89E
:10470000F4305B680022C7F8D830C7F8DC20D7E95E
:1047100036120B46DB183B65134642EB03037B6501
:10472000D7E91423D7E93801FBF7A2FD02460B466F
:10473000614BA3FB02235B091C01D7F8FC3000226C
:10474000C7F8D030C7F8D420D7E9348942464B4661
:104750009118B9645B41FB64D7E91223414612EB1F
:10476000010A494643EB010B4FF000024FF00003F2
:104770004FEACB0343EA5A734FEACA0292469B467A
:1047800043461AEB0303C7F8C8304B464BEB030311
:10479000C7F8CC30D7F8F4305B680022C7F8C030D7
:1047A000C7F8C420D7E930120B46DB183B64134628
:1047B00042EB03037B64D7E91023D7E93201FBF70F
:1047C00057FD02460B4611463B4BA3FB01235B09F9
:1047D000642202FB03F3CB1ADB0003F13202364BF7
:1047E000A3FB02235B095B0003F4F8731C44D7F8B6
:1047F000FC300022C7F8B830C7F8BC20D7E92E89B2
:1048000042464B469118B9635B41FB63D7E90E23DF
:1048100041465118396349464B417B634FF00002D2
:104820004FF00003D7E90CAB5946CB00514643EAA1
:1048300051735146CA0010461946034642469B181A
:10484000C7F8B0304B460A4642EB0303C7F8B43012
:10485000D7F8F4305B680022C7F8A830C7F8AC205E
:10486000D7E92A120B46DB18BB62134642EB03035F
:10487000FB62D7E90A23D7E92C01FBF7F9FC0246D2
:104880000B460D4BA3FB02135B09642101FB03F3F1
:10489000D31ADB003233084AA2FB03235B0903F07F
:1048A0000702D7F8F4301B6822449A6005E100BF84
:1048B00000100140001401401F85EB51D7F8FC3077
:1048C0000022C7F8A030C7F8A420D7E928894246BB
:1048D0004B46911839625B417B62D7E90823414618
:1048E0005418494643EB01054FF000024FF0000316
:1048F000EB0043EA5473E20014461D464346E318B6
:10490000C7F898304B4645EB0303C7F89C30D7F8FF
:10491000F4305B680022C7F89030C7F894204FF05D
:1049200000024FF00003D7E9244529468B002146B9
:1049300043EA917321468A00D7E92601FBF798FCE8
:1049400002460B46604BA3FB02235B091C01D7F810
:10495000FC300022C7F88830C7F88C20D7E92289BC
:1049600042464B469118B9615B41FB61D7E906238A
:1049700041465118396149464B417B614FF0000275
:104980004FF00003D7E904AB5946CB00514643EA48
:1049900051735146CA0010461946034642469B18B9
:1049A000C7F880304B460A4642EB0303C7F8843011
:1049B000D7F8F4305B680022BB67FA674FF000025B
:1049C0004FF00003D7E91E8949468B00414643EA70
:1049D000917341468A00D7E92001FBF749FC024662
:1049E0000B46394BA3FB02135B09642101FB03F364
:1049F000D31A1B013233344AA2FB03235B0903F0B1
:104A0000F0031C44D7F8FC3000223B677A67D7E9F3
:104A10001C8942464B469118B9605B41FB60D7E95F
:104A2000022341465118396049464B417B604FF0A3
:104A300000024FF00003D7E900AB5946CB005146C6
:104A400043EA51735146CA0010461946034642468E
:104A50009B18BB664B460A4642EB0303FB66D7F83E
:104A6000F4305B6800223B667A664FF000024FF03C
:104A70000003D7E9188949468B00414643EA917300
:104A800041468A00D7E91A01FBF7F2FB02460B46C2
:104A90000D4BA3FB02135B09642101FB03F3D31A43
:104AA0001B013233084AA2FB03235B0903F00F0208
:104AB000D7F8F4301B6822449A6000BF07F580776E
:104AC000BD46BDE8B08F00BF1F85EB51014B186894
:104AD000704700BF0C00002070B50D4D0D4C641BDD
:104AE000A4100026A64209D10B4D0C4C00F08EFC00
:104AF000641BA4100026A64205D170BD55F8043BE6
:104B000098470136EEE755F8043B98470136F2E73F
:104B1000245F0008245F0008245F0008285F000865
:104B200002440346934200D1704703F8011BF9E7A2
:104B30000EB400B59CB01DAB029006906FF0004122
:104B4000094807910491094953F8042B059100681D
:104B5000019302A900F068F8029B00221A701CB0B1
:104B60005DF804EB03B070470C0000200802FFFF63
:104B70002DE9F0478E689E4282460C4690461F46BD
:104B800038D88A8912F4906F32D025680969A5EB6C
:104B90000109656905EB450505EBD57501334B4406
:104BA0006D109D4238BF1D46530531D5294600F092
:104BB00063FB064650B90C23CAF80030A38943F0C2
:104BC0004003A3814FF0FF30BDE8F08721694A46DA
:104BD00000F0BEFAA38923F4906343F08003A3811D
:104BE000266165614E44A5EB09052660A5603E4639
:104BF000BE4200D93E4620683246414600F0B6FA31
:104C0000A3689B1BA3602368334423600020DBE779
:104C10002A4600F0A5FB06460028E1D1216950464E
:104C200000F0BEFAC7E700002DE9F04F98468B89E7
:104C30001B069DB007460D4614460ED50B6963B999
:104C4000402100F019FB2860286120B90C233B604B
:104C50004FF0FF30D1E040236B6100230993202304
:104C60008DF82930CDF80C803023DFF8A8818DF83D
:104C70002A304FF0010923469A4613F8012B0AB156
:104C8000252AF9D1BAEB040B0BD05B462246294604
:104C90003846FFF76DFF013000F0AA80099A5A44A8
:104CA00009929AF80030002B00F0A28000234FF008
:104CB000FF32CDE905230AF1010A049307938DF829
:104CC00053301A935446052214F8011B5148FBF740
:104CD0007FFA049AD8B9D00644BF20238DF8533008
:104CE000110744BF2B238DF853309AF800302A2B3C
:104CF00015D0079A544600204FF00A0C214611F8AF
:104D0000013B303B092B4ED9B0B1079214E0A0EB28
:104D1000080309FA03F313430493A246D2E7039B63
:104D2000191D1B680391002BBBBF5B4242F00202BE
:104D300007930793B8BF049223782E2B0CD1637886
:104D40002A2B35D1039B1A1D1B680392002BB8BF79
:104D50004FF0FF3302340593DFF8C8A02178032217
:104D60005046FBF735FA40B14023A0EB0A0003FAA6
:104D700000F0049B03430134049314F8011B2648FC
:104D80008DF828100622FBF723FA002838D0234B91
:104D90001BBB039B073323F0070308330393099BD3
:104DA0003344099367E70CFB02320C460120A5E768
:104DB00000230134059319464FF00A0C204610F8E1
:104DC000012B303A092A03D9002BC5D00591C3E73E
:104DD0000CFB012104460123F0E703AB00932A46B4
:104DE0000F4B04A93846AFF30080421C0646D6D1CB
:104DF000AB895B063FF52CAF09981DB0BDE8F08F7D
:104E000003AB00932A46064B04A9384600F07AF813
:104E1000EBE700BFE85E0008F25E0008000000005B
:104E2000714B0008EE5E00082DE9F04716469946E2
:104E30008A680B69DDF820809342B8BF134633605F
:104E400091F8432007460C460AB1013333602368CA
:104E5000990642BF336802333360256815F00605B2
:104E600006D104F1190AE36832689B1AAB4226DCCA
:104E700094F84320131E226818BF012392062BD4F6
:104E800004F1430249463846C04701301ED023682A
:104E9000E568326803F00603042B08BFAD1AA36867
:104EA00022690CBF25EAE57500259342C4BF9B1A11
:104EB000ED1800261A34B5421AD1002008E001236B
:104EC000524649463846C047013003D14FF0FF30C3
:104ED000BDE8F0870135C6E7E1185A1C302081F89B
:104EE0004300224494F8451082F843100233C7E788
:104EF0000123224649463846C0470130E6D00136F4
:104F0000D9E700002DE9FF470F7E0C9D782F9146D1
:104F100080460C469A4601F1430207D8622F0AD810
:104F2000002F00F0D880582F00F0A38004F1420534
:104F300084F842703AE0A7F16303152BF6D801A17B
:104F400051F823F09D4F0008B14F00082D4F000885
:104F50002D4F00082D4F00082D4F0008B14F0008BD
:104F60002D4F00082D4F00082D4F00082D4F000831
:104F7000BD500008E14F00089F5000082D4F000869
:104F80002D4F0008DF5000082D4F0008E14F0008AA
:104F90002D4F00082D4F0008A75000082B681A1D40
:104FA0001B682A6004F1420584F842300123A3E023
:104FB00020682968060601F104030AD50E682B60F3
:104FC000002E03DA2D23764284F843305E480A230C
:104FD00019E00E682B6010F0400F18BF36B2EFE7F3
:104FE0002B682068191D2960010601D51E6802E0A2
:104FF0004606FBD51E8854486F2F0CBF08230A2392
:10500000002184F843106568A560002DA2BF2168C7
:1050100021F0040121600EB9002D4DD01546B6FBDC
:10502000F3F103FB1167C75D05F8017D3746BB420D
:105030000E46F4D9082B0BD12368DE0708D5236967
:1050400061689942DEBF302305F8013C05F1FF3568
:10505000521B2261CDF800A04B4603AA21464046D0
:10506000FFF7E2FE01304CD14FF0FF3004B0BDE855
:10507000F087354881F845702968236851F8046B3A
:1050800029601D0614D5DF0744BF43F020032360C9
:105090001EB9236823F0200323601023B0E72368A0
:1050A00043F0200323607823284884F84530E3E761
:1050B000590648BFB6B2E6E71546BBE72B68266837
:1050C0006169181D286035061B6801D5196002E06A
:1050D0007006FBD51980002323611546BAE72B68BB
:1050E0001A1D2A601D68626800212846FBF770F8C7
:1050F00008B1401B606063682361002384F843307B
:10510000A8E723692A4649464046D0470130ABD03C
:1051100023689B0713D4E068039B9842B8BF1846E6
:10512000A4E70123324649464046D04701309BD090
:105130000135E36803995B1AAB42F2DCEBE700252B
:1051400004F11906F5E700BFF95E00080A5F0008E0
:105150000A44914200F1FF3300D1704710B511F8B5
:10516000014B03F8014F9142F9D110BD884210B5AF
:1051700001EB020402D98442234607D8431EA14210
:1051800008D011F8012B03F8012FF8E7024401467B
:105190008A4200D110BD13F8014D02F8014DF7E726
:1051A00037B5002944D051F8043C0190002BA1F1FF
:1051B0000404B8BFE41800F013F91E4A01981368FC
:1051C00033B96360146003B0BDE8304000F00EB93D
:1051D000A34208D9256861198B4201BF19685B6831
:1051E00049192160EDE71A465B680BB1A342FAD971
:1051F00011685518A5420BD1246821445418A342C4
:105200001160E0D11C685B68536021441160DAE7EB
:1052100002D90C230360D6E7256861198B4204BFCD
:1052200019685B68636004BF491921605460CAE76C
:1052300003B030BD8C06002070B50E4E0C463168B0
:10524000054611B900F0BCF830602146284600F050
:10525000B7F8431C0AD0C41C24F00304A04207D0B2
:10526000211A284600F0ACF8013001D14FF0FF348C
:10527000204670BD900600202DE9F041CD1C25F0A0
:10528000030508350C2D38BF0C25002D074601DB22
:10529000A94205D90C233B6000263046BDE8F081C9
:1052A0002E4E00F09DF833681C4634BB2946384624
:1052B000FFF7C2FF431C04464DD134682646002E3A
:1052C00040D123683146384604EB030800F078F8F3
:1052D00080453AD1216803356D1A25F0030508355C
:1052E0000C2D38BF0C2529463846FFF7A5FF0130A5
:1052F0002BD023682B4423600EE02268521B1ED45F
:105300000B2A16D96119A342256018BF596063683A
:1053100008BF316062514B60384604F10B0600F063
:1053200065F826F00706231DF21AB6D09B1BA35082
:10533000B3E76268A3420CBF32605A60ECE72346D1
:105340006468B2E734467668B9E70C233B603846B8
:1053500000F04CF8A1E72560DEE700BF8C060020D6
:105360002DE9F041804614460E4621B9BDE8F041D2
:105370001146FFF781BF2AB9FFF712FF25462846DD
:10538000BDE8F08100F038F88442074602D8B4EB5B
:10539000500F12D821464046FFF76EFF0546002801
:1053A000EDD0BC422246314628BF3A46FFF7D0FE38
:1053B00031464046FFF7F4FEE1E73546DFE70000FF
:1053C00038B5064D0023044608462B60FCF766FB03
:1053D000431C02D12B6803B1236038BD9406002022
:1053E000014800F011B800BF98060020014800F005
:1053F0000CB800BF9806002051F8043C181F002B81
:10540000BCBF0B58C018704770477047F8B500BF55
:10541000F8BC08BC9E467047F8B500BFF8BC08BC95
:045420009E467047ED
:1054240054302069646C650054256420204125644F
:105434002042256420202000343A256C7520256CF8
:105444007520202020202000393A256C7520256CF9
:10545400752020202020200052256C7520256C7595
:1054640020432564256400000000000000000000C3
:1054740000000000000000003F40000000000000A9
:1054840000003000400030004000000009000BC064
:105494003D000BC03D00090018C024407FE02240BD
:1054A40031800000180024C01B000D8032400180B0
:1054B40003801C4027401C8007400040100060000F
:1054C40000000000000000000000000000001F8039
:1054D400204040200000402020401F8000000000A9
:1054E400090006001F8006000900000004000400F3
:1054F4003F80040004000000001000600000000071
:105504000000000004000400040004000400000083
:10551400000000400000000000000000002001C066
:1055240006003800400000001F802040204020403A
:105534001F800000000010403FC000400000000039
:1055440018C0214022402440184000001080204010
:10555400244024401B80000002000D0011003FC0C5
:10556400014000003C80244024402440238000006B
:105574001F80244024403440038000003000200079
:1055840027C03800200000001B8024402440244011
:105594001B8000001C0022C0224022401F8000000B
:1055A40000000000084000000000000000000000AF
:1055B4000460000000000000000004000A00110064
:1055C400208040400900090009000900090000008A
:1055D40000004040208011000A0004001800200050
:1055E40023402400180000001F8020402740294049
:1055F4001F400000004007C039000F0001C00040F8
:1056040020403FC0244024401B8000001F802040D5
:10561400204020403080000020403FC020402040F7
:105624001F80000020403FC024402E4030C00000B6
:1056340020403FC024402E00300000000F001080A6
:10564400204022403380020020403FC00400040078
:105654003FC02040204020403FC020402040000068
:105664000060202020203FC02000200020403FC0B8
:1056740024400B0030C0204020403FC02040004068
:10568400004000C03FC03C0003C03C003FC00000DD
:1056940020403FC00C4023003FC020001F8020401A
:1056A400204020401F80000020403FC024402400B0
:1056B400180000001F802140214020E01FA00000AE
:1056C40020403FC02440260019C0004018C0244098
:1056D4002440224031800000300020403FC0204060
:1056E4003000000020003F80004000403F80200048
:1056F40020003E0001C0070038002000380007C029
:105704003C0007C038000000204039C0060039C002
:10571400204000002000384007C03840200000002E
:10572400304021C02640384020C000000000000066
:105734007FE0402040200000000070000C00038047
:10574400004000000000402040207FE000000000F6
:1057540000002000400020000000000000100010A5
:1057640000100010001000100000000040000000B5
:1057740000000000000002800540054003C0004016
:1057840020003FC004400440038000000000038068
:10579400044004400640000000000380044024400C
:1057A4003FC0004000000380054005400340000066
:1057B400000004401FC0244024402000000002E0F8
:1057C400055005500650042020403FC0044004000A
:1057D40003C000400000044027C000400000000057
:1057E40000100010041027E00000000020403FC01B
:1057F4000140070004C00440204020403FC0004056
:105804000040000007C0040007C0040003C00000FB
:10581400044007C00440040003C0004000000380AB
:105824000440044003800000041007F004500440C6
:1058340003800000000003800440045007F00010BF
:10584400044007C0024004000400000000000640B9
:105854000540054004C00000000004001F8004400F
:1058640000400000040007800040044007C00040DE
:105874000400070004C0018006000400060001C003
:10588400070001C006000000044006C0010006C075
:10589400044000000410071004E001800600040026
:1058A4000000044005C00640044000000000000061
:1058B40004007BE040200000000000000000FFF036
:1058C40000000000000040207BE004000000000015
:1058D4004000800040002000200040000000000044
:1058E40000000000000000000000000000000000B4
:1058F40000001FCC000C00000000000000000800A5
:10590400300060000800300060000000022003FC4A
:105914001E20022003FC1E200220000000000E189E
:1059240011043FFF10840C78000000000F00108465
:105934000F3800C0077818840078000000780F84BE
:1059440010C411240E9800E40084000808006800C4
:1059540070000000000000000000000000000000D3
:10596400000007E018182004400200000000400274
:105974002004181807E00000000000000240024064
:1059840001800FF00180024002400000008000808E
:1059940000800FF800800080008000000001000DEE
:1059A400000E000000000000000000000000008065
:1059B4000080008000800080008000800000000CD7
:1059C400000C0000000000000000000000000006C1
:1059D400001800600180060018002000000007F095
:1059E400080810041004080807F000000000080468
:1059F40008041FFC000400040000000000000E0C5A
:105A040010141024104411840E0C000000000C1813
:105A140010041104110412880C700000000000E04E
:105A24000320042408241FFC0024000000001F9805
:105A3400108411041104108810700000000007F095
:105A440008881104110418880070000000001C006C
:105A5400100010FC13001C001000000000000E38A1
:105A640011441084108411440E3800000000070013
:105A7400088C10441044088807F00000000000005F
:105A84000000030C030C00000000000000000000F4
:105A9400000101060000000000000000000000807A
:105AA4000140022004100808100400000220022013
:105AB4000220022002200220022000000000100424
:105AC40008080410022001400080000000000E00BD
:105AD4001200100C106C10800F00000003E00C1872
